{
  "_format": "hh-sol-artifact-1",
  "contractName": "BaseStrategy",
  "sourceName": "contracts/Strategy.sol",
  "abi": [
    {
      "inputs": [
        {
          "internalType": "contract IERC20",
          "name": "_token",
          "type": "address"
        }
      ],
      "stateMutability": "nonpayable",
      "type": "constructor"
    },
    {
      "inputs": [],
      "name": "balance",
      "outputs": [
        {
          "internalType": "uint256",
          "name": "",
          "type": "uint256"
        }
      ],
      "stateMutability": "view",
      "type": "function"
    },
    {
      "inputs": [
        {
          "internalType": "uint256",
          "name": "_amount",
          "type": "uint256"
        }
      ],
      "name": "deposit",
      "outputs": [],
      "stateMutability": "nonpayable",
      "type": "function"
    },
    {
      "inputs": [],
      "name": "description",
      "outputs": [
        {
          "internalType": "string",
          "name": "",
          "type": "string"
        }
      ],
      "stateMutability": "view",
      "type": "function"
    },
    {
      "inputs": [],
      "name": "getBalance",
      "outputs": [
        {
          "internalType": "uint256",
          "name": "",
          "type": "uint256"
        }
      ],
      "stateMutability": "view",
      "type": "function"
    },
    {
      "inputs": [],
      "name": "name",
      "outputs": [
        {
          "internalType": "string",
          "name": "",
          "type": "string"
        }
      ],
      "stateMutability": "view",
      "type": "function"
    },
    {
      "inputs": [],
      "name": "token",
      "outputs": [
        {
          "internalType": "contract IERC20",
          "name": "",
          "type": "address"
        }
      ],
      "stateMutability": "view",
      "type": "function"
    },
    {
      "inputs": [
        {
          "internalType": "uint256",
          "name": "_amount",
          "type": "uint256"
        }
      ],
      "name": "withdraw",
      "outputs": [],
      "stateMutability": "nonpayable",
      "type": "function"
    }
  ],
  "bytecode": "0x60e0604052600d60a09081526c5465737420537472617465677960981b60c05260019061002c908261014a565b5060408051808201909152601481527f5374726174656779204465736372697074696f6e000000000000000000000000602082015260029061006e908261014a565b5034801561007b57600080fd5b5060405161094238038061094283398101604081905261009a91610208565b6001600160a01b0316608052610238565b634e487b7160e01b600052604160045260246000fd5b600181811c908216806100d557607f821691505b6020821081036100f557634e487b7160e01b600052602260045260246000fd5b50919050565b601f82111561014557806000526020600020601f840160051c810160208510156101225750805b601f840160051c820191505b81811015610142576000815560010161012e565b50505b505050565b81516001600160401b03811115610163576101636100ab565b6101778161017184546100c1565b846100fb565b6020601f8211600181146101ab57600083156101935750848201515b600019600385901b1c1916600184901b178455610142565b600084815260208120601f198516915b828110156101db57878501518255602094850194600190920191016101bb565b50848210156101f95786840151600019600387901b60f8161c191681555b50505050600190811b01905550565b60006020828403121561021a57600080fd5b81516001600160a01b038116811461023157600080fd5b9392505050565b6080516106db6102676000396000818160f0015281816102a60152818161036901526104a401526106db6000f3fe608060405234801561001057600080fd5b506004361061007d5760003560e01c80637284e4161161005b5780637284e416146100c7578063b69ef8a8146100cf578063b6b55f25146100d8578063fc0c546a146100eb57600080fd5b806306fdde031461008257806312065fe0146100a05780632e1a7d4d146100b2575b600080fd5b61008a610137565b6040516100979190610540565b60405180910390f35b6000545b604051908152602001610097565b6100c56100c03660046105ac565b6101c5565b005b61008a6103f2565b6100a460005481565b6100c56100e63660046105ac565b6103ff565b6101127f000000000000000000000000000000000000000000000000000000000000000081565b60405173ffffffffffffffffffffffffffffffffffffffff9091168152602001610097565b60018054610144906105c5565b80601f0160208091040260200160405190810160405280929190818152602001828054610170906105c5565b80156101bd5780601f10610192576101008083540402835291602001916101bd565b820191906000526020600020905b8154815290600101906020018083116101a057829003601f168201915b505050505081565b6000811180156101d757506000548111155b610242576040517f08c379a000000000000000000000000000000000000000000000000000000000815260206004820152600e60248201527f496e76616c696420616d6f756e7400000000000000000000000000000000000060448201526064015b60405180910390fd5b600061024f600a83610615565b9050600061025d8284610637565b9050826000808282546102709190610650565b90915550506040517f70a082310000000000000000000000000000000000000000000000000000000081523060048201526000907f000000000000000000000000000000000000000000000000000000000000000073ffffffffffffffffffffffffffffffffffffffff16906370a0823190602401602060405180830381865afa158015610302573d6000803e3d6000fd5b505050506040513d601f19601f820116820180604052508101906103269190610663565b905080821115610334578091505b6040517fa9059cbb000000000000000000000000000000000000000000000000000000008152336004820152602481018390527f000000000000000000000000000000000000000000000000000000000000000073ffffffffffffffffffffffffffffffffffffffff169063a9059cbb906044016020604051808303816000875af11580156103c7573d6000803e3d6000fd5b505050506040513d601f19601f820116820180604052508101906103eb919061067c565b5050505050565b60028054610144906105c5565b60008111610469576040517f08c379a000000000000000000000000000000000000000000000000000000000815260206004820152600b60248201527f5a65726f20616d6f756e740000000000000000000000000000000000000000006044820152606401610239565b6040517f23b872dd000000000000000000000000000000000000000000000000000000008152336004820152306024820152604481018290527f000000000000000000000000000000000000000000000000000000000000000073ffffffffffffffffffffffffffffffffffffffff16906323b872dd906064016020604051808303816000875af1158015610502573d6000803e3d6000fd5b505050506040513d601f19601f82011682018060405250810190610526919061067c565b50806000808282546105389190610637565b909155505050565b602081526000825180602084015260005b8181101561056e5760208186018101516040868401015201610551565b5060006040828501015260407fffffffffffffffffffffffffffffffffffffffffffffffffffffffffffffffe0601f83011684010191505092915050565b6000602082840312156105be57600080fd5b5035919050565b600181811c908216806105d957607f821691505b6020821081036105f957634e487b7160e01b600052602260045260246000fd5b50919050565b634e487b7160e01b600052601160045260246000fd5b60008261063257634e487b7160e01b600052601260045260246000fd5b500490565b8082018082111561064a5761064a6105ff565b92915050565b8181038181111561064a5761064a6105ff565b60006020828403121561067557600080fd5b5051919050565b60006020828403121561068e57600080fd5b8151801515811461069e57600080fd5b939250505056fea264697066735822122013ec86e2c00ad53512b3840cfd99f5bb5b34acc87978916ebc035070d359682964736f6c634300081c0033",
  "linkReferences": {},
  "deployedLinkReferences": {}
}