{
  "_format": "hh-sol-artifact-1",
  "contractName": "InvestmentPool",
  "sourceName": "contracts/Dao.sol",
  "abi": [
    {
      "inputs": [
        {
          "internalType": "contract IERC20",
          "name": "_baseToken",
          "type": "address"
        }
      ],
      "stateMutability": "nonpayable",
      "type": "constructor"
    },
    {
      "inputs": [],
      "name": "AccessControlBadConfirmation",
      "type": "error"
    },
    {
      "inputs": [
        {
          "internalType": "address",
          "name": "account",
          "type": "address"
        },
        {
          "internalType": "bytes32",
          "name": "neededRole",
          "type": "bytes32"
        }
      ],
      "name": "AccessControlUnauthorizedAccount",
      "type": "error"
    },
    {
      "inputs": [
        {
          "internalType": "address",
          "name": "spender",
          "type": "address"
        },
        {
          "internalType": "uint256",
          "name": "allowance",
          "type": "uint256"
        },
        {
          "internalType": "uint256",
          "name": "needed",
          "type": "uint256"
        }
      ],
      "name": "ERC20InsufficientAllowance",
      "type": "error"
    },
    {
      "inputs": [
        {
          "internalType": "address",
          "name": "sender",
          "type": "address"
        },
        {
          "internalType": "uint256",
          "name": "balance",
          "type": "uint256"
        },
        {
          "internalType": "uint256",
          "name": "needed",
          "type": "uint256"
        }
      ],
      "name": "ERC20InsufficientBalance",
      "type": "error"
    },
    {
      "inputs": [
        {
          "internalType": "address",
          "name": "approver",
          "type": "address"
        }
      ],
      "name": "ERC20InvalidApprover",
      "type": "error"
    },
    {
      "inputs": [
        {
          "internalType": "address",
          "name": "receiver",
          "type": "address"
        }
      ],
      "name": "ERC20InvalidReceiver",
      "type": "error"
    },
    {
      "inputs": [
        {
          "internalType": "address",
          "name": "sender",
          "type": "address"
        }
      ],
      "name": "ERC20InvalidSender",
      "type": "error"
    },
    {
      "inputs": [
        {
          "internalType": "address",
          "name": "spender",
          "type": "address"
        }
      ],
      "name": "ERC20InvalidSpender",
      "type": "error"
    },
    {
      "inputs": [],
      "name": "ReentrancyGuardReentrantCall",
      "type": "error"
    },
    {
      "inputs": [
        {
          "internalType": "address",
          "name": "token",
          "type": "address"
        }
      ],
      "name": "SafeERC20FailedOperation",
      "type": "error"
    },
    {
      "anonymous": false,
      "inputs": [
        {
          "indexed": true,
          "internalType": "address",
          "name": "owner",
          "type": "address"
        },
        {
          "indexed": true,
          "internalType": "address",
          "name": "spender",
          "type": "address"
        },
        {
          "indexed": false,
          "internalType": "uint256",
          "name": "value",
          "type": "uint256"
        }
      ],
      "name": "Approval",
      "type": "event"
    },
    {
      "anonymous": false,
      "inputs": [
        {
          "indexed": true,
          "internalType": "uint256",
          "name": "proposalId",
          "type": "uint256"
        },
        {
          "indexed": false,
          "internalType": "uint256",
          "name": "start",
          "type": "uint256"
        },
        {
          "indexed": false,
          "internalType": "uint256",
          "name": "end",
          "type": "uint256"
        }
      ],
      "name": "CancelVoteStarted",
      "type": "event"
    },
    {
      "anonymous": false,
      "inputs": [
        {
          "indexed": true,
          "internalType": "uint256",
          "name": "proposalId",
          "type": "uint256"
        },
        {
          "indexed": false,
          "internalType": "address",
          "name": "voter",
          "type": "address"
        },
        {
          "indexed": false,
          "internalType": "bool",
          "name": "support",
          "type": "bool"
        },
        {
          "indexed": false,
          "internalType": "uint256",
          "name": "weight",
          "type": "uint256"
        }
      ],
      "name": "CancelVoted",
      "type": "event"
    },
    {
      "anonymous": false,
      "inputs": [
        {
          "indexed": false,
          "internalType": "string",
          "name": "msg",
          "type": "string"
        },
        {
          "indexed": false,
          "internalType": "uint256",
          "name": "val",
          "type": "uint256"
        }
      ],
      "name": "Debug",
      "type": "event"
    },
    {
      "anonymous": false,
      "inputs": [
        {
          "indexed": true,
          "internalType": "address",
          "name": "user",
          "type": "address"
        },
        {
          "indexed": false,
          "internalType": "uint256",
          "name": "amount",
          "type": "uint256"
        },
        {
          "indexed": false,
          "internalType": "uint256",
          "name": "sharesMinted",
          "type": "uint256"
        }
      ],
      "name": "Deposit",
      "type": "event"
    },
    {
      "anonymous": false,
      "inputs": [
        {
          "indexed": true,
          "internalType": "address",
          "name": "admin",
          "type": "address"
        },
        {
          "indexed": false,
          "internalType": "uint256",
          "name": "amount",
          "type": "uint256"
        }
      ],
      "name": "EmergencyWithdraw",
      "type": "event"
    },
    {
      "anonymous": false,
      "inputs": [
        {
          "indexed": true,
          "internalType": "uint256",
          "name": "proposalId",
          "type": "uint256"
        }
      ],
      "name": "ProposalCancelled",
      "type": "event"
    },
    {
      "anonymous": false,
      "inputs": [
        {
          "indexed": true,
          "internalType": "uint256",
          "name": "proposalId",
          "type": "uint256"
        }
      ],
      "name": "ProposalCancelledByVote",
      "type": "event"
    },
    {
      "anonymous": false,
      "inputs": [
        {
          "indexed": true,
          "internalType": "uint256",
          "name": "id",
          "type": "uint256"
        },
        {
          "indexed": false,
          "internalType": "address",
          "name": "proposer",
          "type": "address"
        },
        {
          "indexed": false,
          "internalType": "uint256",
          "name": "strategyId",
          "type": "uint256"
        },
        {
          "indexed": false,
          "internalType": "uint256",
          "name": "amount",
          "type": "uint256"
        },
        {
          "indexed": false,
          "internalType": "uint256",
          "name": "start",
          "type": "uint256"
        },
        {
          "indexed": false,
          "internalType": "uint256",
          "name": "end",
          "type": "uint256"
        }
      ],
      "name": "ProposalCreated",
      "type": "event"
    },
    {
      "anonymous": false,
      "inputs": [
        {
          "indexed": true,
          "internalType": "uint256",
          "name": "proposalId",
          "type": "uint256"
        },
        {
          "indexed": false,
          "internalType": "address",
          "name": "strategy",
          "type": "address"
        },
        {
          "indexed": false,
          "internalType": "uint256",
          "name": "amount",
          "type": "uint256"
        }
      ],
      "name": "ProposalExecuted",
      "type": "event"
    },
    {
      "anonymous": false,
      "inputs": [
        {
          "indexed": true,
          "internalType": "address",
          "name": "user",
          "type": "address"
        },
        {
          "indexed": false,
          "internalType": "uint256",
          "name": "sharesBurned",
          "type": "uint256"
        },
        {
          "indexed": false,
          "internalType": "uint256",
          "name": "amountReturned",
          "type": "uint256"
        }
      ],
      "name": "Redeem",
      "type": "event"
    },
    {
      "anonymous": false,
      "inputs": [
        {
          "indexed": true,
          "internalType": "bytes32",
          "name": "role",
          "type": "bytes32"
        },
        {
          "indexed": true,
          "internalType": "bytes32",
          "name": "previousAdminRole",
          "type": "bytes32"
        },
        {
          "indexed": true,
          "internalType": "bytes32",
          "name": "newAdminRole",
          "type": "bytes32"
        }
      ],
      "name": "RoleAdminChanged",
      "type": "event"
    },
    {
      "anonymous": false,
      "inputs": [
        {
          "indexed": true,
          "internalType": "bytes32",
          "name": "role",
          "type": "bytes32"
        },
        {
          "indexed": true,
          "internalType": "address",
          "name": "account",
          "type": "address"
        },
        {
          "indexed": true,
          "internalType": "address",
          "name": "sender",
          "type": "address"
        }
      ],
      "name": "RoleGranted",
      "type": "event"
    },
    {
      "anonymous": false,
      "inputs": [
        {
          "indexed": true,
          "internalType": "bytes32",
          "name": "role",
          "type": "bytes32"
        },
        {
          "indexed": true,
          "internalType": "address",
          "name": "account",
          "type": "address"
        },
        {
          "indexed": true,
          "internalType": "address",
          "name": "sender",
          "type": "address"
        }
      ],
      "name": "RoleRevoked",
      "type": "event"
    },
    {
      "anonymous": false,
      "inputs": [
        {
          "indexed": true,
          "internalType": "uint256",
          "name": "strategyId",
          "type": "uint256"
        },
        {
          "indexed": false,
          "internalType": "address",
          "name": "strategy",
          "type": "address"
        }
      ],
      "name": "StrategyAdded",
      "type": "event"
    },
    {
      "anonymous": false,
      "inputs": [
        {
          "indexed": true,
          "internalType": "uint256",
          "name": "strategyId",
          "type": "uint256"
        },
        {
          "indexed": false,
          "internalType": "address",
          "name": "strategy",
          "type": "address"
        },
        {
          "indexed": false,
          "internalType": "bool",
          "name": "active",
          "type": "bool"
        }
      ],
      "name": "StrategyToggled",
      "type": "event"
    },
    {
      "anonymous": false,
      "inputs": [
        {
          "indexed": true,
          "internalType": "address",
          "name": "from",
          "type": "address"
        },
        {
          "indexed": true,
          "internalType": "address",
          "name": "to",
          "type": "address"
        },
        {
          "indexed": false,
          "internalType": "uint256",
          "name": "value",
          "type": "uint256"
        }
      ],
      "name": "Transfer",
      "type": "event"
    },
    {
      "anonymous": false,
      "inputs": [
        {
          "indexed": true,
          "internalType": "uint256",
          "name": "proposalId",
          "type": "uint256"
        },
        {
          "indexed": false,
          "internalType": "address",
          "name": "voter",
          "type": "address"
        },
        {
          "indexed": false,
          "internalType": "bool",
          "name": "support",
          "type": "bool"
        },
        {
          "indexed": false,
          "internalType": "uint256",
          "name": "weight",
          "type": "uint256"
        }
      ],
      "name": "Voted",
      "type": "event"
    },
    {
      "inputs": [],
      "name": "ADMIN_ROLE",
      "outputs": [
        {
          "internalType": "bytes32",
          "name": "",
          "type": "bytes32"
        }
      ],
      "stateMutability": "view",
      "type": "function"
    },
    {
      "inputs": [],
      "name": "DEFAULT_ADMIN_ROLE",
      "outputs": [
        {
          "internalType": "bytes32",
          "name": "",
          "type": "bytes32"
        }
      ],
      "stateMutability": "view",
      "type": "function"
    },
    {
      "inputs": [],
      "name": "STRATEGIST_ROLE",
      "outputs": [
        {
          "internalType": "bytes32",
          "name": "",
          "type": "bytes32"
        }
      ],
      "stateMutability": "view",
      "type": "function"
    },
    {
      "inputs": [
        {
          "internalType": "address",
          "name": "_strategy",
          "type": "address"
        },
        {
          "internalType": "string",
          "name": "_description",
          "type": "string"
        }
      ],
      "name": "addStrategy",
      "outputs": [],
      "stateMutability": "nonpayable",
      "type": "function"
    },
    {
      "inputs": [
        {
          "internalType": "address",
          "name": "owner",
          "type": "address"
        },
        {
          "internalType": "address",
          "name": "spender",
          "type": "address"
        }
      ],
      "name": "allowance",
      "outputs": [
        {
          "internalType": "uint256",
          "name": "",
          "type": "uint256"
        }
      ],
      "stateMutability": "view",
      "type": "function"
    },
    {
      "inputs": [
        {
          "internalType": "address",
          "name": "spender",
          "type": "address"
        },
        {
          "internalType": "uint256",
          "name": "value",
          "type": "uint256"
        }
      ],
      "name": "approve",
      "outputs": [
        {
          "internalType": "bool",
          "name": "",
          "type": "bool"
        }
      ],
      "stateMutability": "nonpayable",
      "type": "function"
    },
    {
      "inputs": [
        {
          "internalType": "address",
          "name": "account",
          "type": "address"
        }
      ],
      "name": "balanceOf",
      "outputs": [
        {
          "internalType": "uint256",
          "name": "",
          "type": "uint256"
        }
      ],
      "stateMutability": "view",
      "type": "function"
    },
    {
      "inputs": [],
      "name": "baseToken",
      "outputs": [
        {
          "internalType": "contract IERC20",
          "name": "",
          "type": "address"
        }
      ],
      "stateMutability": "view",
      "type": "function"
    },
    {
      "inputs": [
        {
          "internalType": "uint256",
          "name": "_proposalId",
          "type": "uint256"
        }
      ],
      "name": "cancelProposal",
      "outputs": [],
      "stateMutability": "nonpayable",
      "type": "function"
    },
    {
      "inputs": [
        {
          "internalType": "uint256",
          "name": "_strategyId",
          "type": "uint256"
        },
        {
          "internalType": "uint256",
          "name": "_amount",
          "type": "uint256"
        },
        {
          "internalType": "uint256",
          "name": "votingPeriodMinutes",
          "type": "uint256"
        },
        {
          "internalType": "string",
          "name": "_title",
          "type": "string"
        },
        {
          "internalType": "string",
          "name": "_description",
          "type": "string"
        }
      ],
      "name": "createProposal",
      "outputs": [
        {
          "internalType": "uint256",
          "name": "",
          "type": "uint256"
        }
      ],
      "stateMutability": "nonpayable",
      "type": "function"
    },
    {
      "inputs": [],
      "name": "decimals",
      "outputs": [
        {
          "internalType": "uint8",
          "name": "",
          "type": "uint8"
        }
      ],
      "stateMutability": "view",
      "type": "function"
    },
    {
      "inputs": [
        {
          "internalType": "uint256",
          "name": "_amount",
          "type": "uint256"
        }
      ],
      "name": "deposit",
      "outputs": [],
      "stateMutability": "nonpayable",
      "type": "function"
    },
    {
      "inputs": [
        {
          "internalType": "address",
          "name": "",
          "type": "address"
        }
      ],
      "name": "deposited",
      "outputs": [
        {
          "internalType": "uint256",
          "name": "",
          "type": "uint256"
        }
      ],
      "stateMutability": "view",
      "type": "function"
    },
    {
      "inputs": [
        {
          "internalType": "uint256",
          "name": "_proposalId",
          "type": "uint256"
        }
      ],
      "name": "executeProposal",
      "outputs": [],
      "stateMutability": "nonpayable",
      "type": "function"
    },
    {
      "inputs": [],
      "name": "feeCollected",
      "outputs": [
        {
          "internalType": "uint256",
          "name": "",
          "type": "uint256"
        }
      ],
      "stateMutability": "view",
      "type": "function"
    },
    {
      "inputs": [
        {
          "internalType": "uint256",
          "name": "_proposalId",
          "type": "uint256"
        }
      ],
      "name": "finalizeCancelVote",
      "outputs": [],
      "stateMutability": "nonpayable",
      "type": "function"
    },
    {
      "inputs": [
        {
          "internalType": "uint256",
          "name": "_proposalId",
          "type": "uint256"
        }
      ],
      "name": "finalizeProposal",
      "outputs": [],
      "stateMutability": "nonpayable",
      "type": "function"
    },
    {
      "inputs": [
        {
          "internalType": "uint256",
          "name": "_proposalId",
          "type": "uint256"
        }
      ],
      "name": "getProposal",
      "outputs": [
        {
          "internalType": "uint256",
          "name": "id",
          "type": "uint256"
        },
        {
          "internalType": "address",
          "name": "proposer",
          "type": "address"
        },
        {
          "internalType": "uint256",
          "name": "strategyId",
          "type": "uint256"
        },
        {
          "internalType": "uint256",
          "name": "amount",
          "type": "uint256"
        },
        {
          "internalType": "uint256",
          "name": "forVotes",
          "type": "uint256"
        },
        {
          "internalType": "uint256",
          "name": "againstVotes",
          "type": "uint256"
        },
        {
          "internalType": "uint256",
          "name": "startTimestamp",
          "type": "uint256"
        },
        {
          "internalType": "uint256",
          "name": "endTimestamp",
          "type": "uint256"
        },
        {
          "internalType": "uint256",
          "name": "votingPeriodMinutes",
          "type": "uint256"
        },
        {
          "internalType": "enum InvestmentPool.ProposalState",
          "name": "state",
          "type": "uint8"
        },
        {
          "internalType": "string",
          "name": "description",
          "type": "string"
        },
        {
          "internalType": "string",
          "name": "title",
          "type": "string"
        }
      ],
      "stateMutability": "view",
      "type": "function"
    },
    {
      "inputs": [
        {
          "internalType": "uint256",
          "name": "_proposalId",
          "type": "uint256"
        },
        {
          "internalType": "address",
          "name": "_user",
          "type": "address"
        }
      ],
      "name": "getProposalCancel",
      "outputs": [
        {
          "internalType": "uint256",
          "name": "cancelForVotes",
          "type": "uint256"
        },
        {
          "internalType": "uint256",
          "name": "cancelAgainstVotes",
          "type": "uint256"
        },
        {
          "internalType": "bool",
          "name": "cancelActive",
          "type": "bool"
        },
        {
          "internalType": "uint256",
          "name": "cancelStartTimestamp",
          "type": "uint256"
        },
        {
          "internalType": "uint256",
          "name": "cancelEndTimestamp",
          "type": "uint256"
        },
        {
          "internalType": "bool",
          "name": "votedCancel",
          "type": "bool"
        }
      ],
      "stateMutability": "view",
      "type": "function"
    },
    {
      "inputs": [
        {
          "internalType": "bytes32",
          "name": "role",
          "type": "bytes32"
        }
      ],
      "name": "getRoleAdmin",
      "outputs": [
        {
          "internalType": "bytes32",
          "name": "",
          "type": "bytes32"
        }
      ],
      "stateMutability": "view",
      "type": "function"
    },
    {
      "inputs": [
        {
          "internalType": "uint256",
          "name": "_strategyId",
          "type": "uint256"
        }
      ],
      "name": "getStrategy",
      "outputs": [
        {
          "internalType": "address",
          "name": "strategy",
          "type": "address"
        },
        {
          "internalType": "bool",
          "name": "active",
          "type": "bool"
        },
        {
          "internalType": "uint256",
          "name": "balance",
          "type": "uint256"
        },
        {
          "internalType": "string",
          "name": "name",
          "type": "string"
        },
        {
          "internalType": "string",
          "name": "description",
          "type": "string"
        }
      ],
      "stateMutability": "view",
      "type": "function"
    },
    {
      "inputs": [],
      "name": "getWithdrawalFeePercent",
      "outputs": [
        {
          "internalType": "uint256",
          "name": "",
          "type": "uint256"
        }
      ],
      "stateMutability": "view",
      "type": "function"
    },
    {
      "inputs": [
        {
          "internalType": "bytes32",
          "name": "role",
          "type": "bytes32"
        },
        {
          "internalType": "address",
          "name": "account",
          "type": "address"
        }
      ],
      "name": "grantRole",
      "outputs": [],
      "stateMutability": "nonpayable",
      "type": "function"
    },
    {
      "inputs": [
        {
          "internalType": "bytes32",
          "name": "role",
          "type": "bytes32"
        },
        {
          "internalType": "address",
          "name": "account",
          "type": "address"
        }
      ],
      "name": "hasRole",
      "outputs": [
        {
          "internalType": "bool",
          "name": "",
          "type": "bool"
        }
      ],
      "stateMutability": "view",
      "type": "function"
    },
    {
      "inputs": [
        {
          "internalType": "uint256",
          "name": "_proposalId",
          "type": "uint256"
        },
        {
          "internalType": "address",
          "name": "_user",
          "type": "address"
        }
      ],
      "name": "hasVoted",
      "outputs": [
        {
          "internalType": "bool",
          "name": "",
          "type": "bool"
        }
      ],
      "stateMutability": "view",
      "type": "function"
    },
    {
      "inputs": [],
      "name": "name",
      "outputs": [
        {
          "internalType": "string",
          "name": "",
          "type": "string"
        }
      ],
      "stateMutability": "view",
      "type": "function"
    },
    {
      "inputs": [],
      "name": "proposalCount",
      "outputs": [
        {
          "internalType": "uint256",
          "name": "",
          "type": "uint256"
        }
      ],
      "stateMutability": "view",
      "type": "function"
    },
    {
      "inputs": [
        {
          "internalType": "uint256",
          "name": "_shares",
          "type": "uint256"
        }
      ],
      "name": "randeem",
      "outputs": [],
      "stateMutability": "nonpayable",
      "type": "function"
    },
    {
      "inputs": [
        {
          "internalType": "bytes32",
          "name": "role",
          "type": "bytes32"
        },
        {
          "internalType": "address",
          "name": "callerConfirmation",
          "type": "address"
        }
      ],
      "name": "renounceRole",
      "outputs": [],
      "stateMutability": "nonpayable",
      "type": "function"
    },
    {
      "inputs": [
        {
          "internalType": "bytes32",
          "name": "role",
          "type": "bytes32"
        },
        {
          "internalType": "address",
          "name": "account",
          "type": "address"
        }
      ],
      "name": "revokeRole",
      "outputs": [],
      "stateMutability": "nonpayable",
      "type": "function"
    },
    {
      "inputs": [
        {
          "internalType": "uint256",
          "name": "_percent",
          "type": "uint256"
        }
      ],
      "name": "setWithdrawalFeePercent",
      "outputs": [],
      "stateMutability": "nonpayable",
      "type": "function"
    },
    {
      "inputs": [
        {
          "internalType": "uint256",
          "name": "_proposalId",
          "type": "uint256"
        },
        {
          "internalType": "uint256",
          "name": "votingPeriodMinutes",
          "type": "uint256"
        }
      ],
      "name": "startCancelVoting",
      "outputs": [],
      "stateMutability": "nonpayable",
      "type": "function"
    },
    {
      "inputs": [
        {
          "internalType": "uint256",
          "name": "",
          "type": "uint256"
        }
      ],
      "name": "strategies",
      "outputs": [
        {
          "internalType": "address",
          "name": "strategy",
          "type": "address"
        },
        {
          "internalType": "bool",
          "name": "active",
          "type": "bool"
        },
        {
          "internalType": "string",
          "name": "description",
          "type": "string"
        }
      ],
      "stateMutability": "view",
      "type": "function"
    },
    {
      "inputs": [],
      "name": "strategyCount",
      "outputs": [
        {
          "internalType": "uint256",
          "name": "",
          "type": "uint256"
        }
      ],
      "stateMutability": "view",
      "type": "function"
    },
    {
      "inputs": [
        {
          "internalType": "bytes4",
          "name": "interfaceId",
          "type": "bytes4"
        }
      ],
      "name": "supportsInterface",
      "outputs": [
        {
          "internalType": "bool",
          "name": "",
          "type": "bool"
        }
      ],
      "stateMutability": "view",
      "type": "function"
    },
    {
      "inputs": [],
      "name": "symbol",
      "outputs": [
        {
          "internalType": "string",
          "name": "",
          "type": "string"
        }
      ],
      "stateMutability": "view",
      "type": "function"
    },
    {
      "inputs": [
        {
          "internalType": "uint256",
          "name": "_strategyId",
          "type": "uint256"
        },
        {
          "internalType": "bool",
          "name": "_active",
          "type": "bool"
        }
      ],
      "name": "toggleStrategy",
      "outputs": [],
      "stateMutability": "nonpayable",
      "type": "function"
    },
    {
      "inputs": [],
      "name": "totalAssets",
      "outputs": [
        {
          "internalType": "uint256",
          "name": "",
          "type": "uint256"
        }
      ],
      "stateMutability": "view",
      "type": "function"
    },
    {
      "inputs": [],
      "name": "totalLockedInStrategies",
      "outputs": [
        {
          "internalType": "uint256",
          "name": "",
          "type": "uint256"
        }
      ],
      "stateMutability": "view",
      "type": "function"
    },
    {
      "inputs": [],
      "name": "totalSupply",
      "outputs": [
        {
          "internalType": "uint256",
          "name": "",
          "type": "uint256"
        }
      ],
      "stateMutability": "view",
      "type": "function"
    },
    {
      "inputs": [
        {
          "internalType": "address",
          "name": "to",
          "type": "address"
        },
        {
          "internalType": "uint256",
          "name": "value",
          "type": "uint256"
        }
      ],
      "name": "transfer",
      "outputs": [
        {
          "internalType": "bool",
          "name": "",
          "type": "bool"
        }
      ],
      "stateMutability": "nonpayable",
      "type": "function"
    },
    {
      "inputs": [
        {
          "internalType": "address",
          "name": "from",
          "type": "address"
        },
        {
          "internalType": "address",
          "name": "to",
          "type": "address"
        },
        {
          "internalType": "uint256",
          "name": "value",
          "type": "uint256"
        }
      ],
      "name": "transferFrom",
      "outputs": [
        {
          "internalType": "bool",
          "name": "",
          "type": "bool"
        }
      ],
      "stateMutability": "nonpayable",
      "type": "function"
    },
    {
      "inputs": [
        {
          "internalType": "uint256",
          "name": "_proposalId",
          "type": "uint256"
        },
        {
          "internalType": "bool",
          "name": "support",
          "type": "bool"
        }
      ],
      "name": "vote",
      "outputs": [],
      "stateMutability": "nonpayable",
      "type": "function"
    },
    {
      "inputs": [
        {
          "internalType": "uint256",
          "name": "_proposalId",
          "type": "uint256"
        },
        {
          "internalType": "bool",
          "name": "support",
          "type": "bool"
        }
      ],
      "name": "voteCancel",
      "outputs": [],
      "stateMutability": "nonpayable",
      "type": "function"
    },
    {
      "inputs": [
        {
          "internalType": "uint256",
          "name": "amount",
          "type": "uint256"
        }
      ],
      "name": "withdrawCollectedFees",
      "outputs": [],
      "stateMutability": "nonpayable",
      "type": "function"
    },
    {
      "inputs": [
        {
          "internalType": "uint256",
          "name": "_proposalId",
          "type": "uint256"
        }
      ],
      "name": "withdrawFromProposal",
      "outputs": [],
      "stateMutability": "nonpayable",
      "type": "function"
    },
    {
      "inputs": [],
      "name": "withdrawalFeePercent",
      "outputs": [
        {
          "internalType": "uint256",
          "name": "",
          "type": "uint256"
        }
      ],
      "stateMutability": "view",
      "type": "function"
    }
  ],
  "bytecode": "0x60a0604052600a60095534801561001557600080fd5b50604051614830380380614830833981016040819052610034916101eb565b6040518060400160405280601581526020017f496e766573746d656e7420506f6f6c20536861726500000000000000000000008152506040518060400160405280600381526020016249505360e81b815250816003908161009591906102ba565b5060046100a282826102ba565b50506001600555506001600160a01b0381166100f15760405162461bcd60e51b815260206004820152600a6024820152693d32b937903a37b5b2b760b11b604482015260640160405180910390fd5b6001600160a01b03811660805261010960003361013b565b506101347fa49807205ce4d355092ef5a8a18f56e8913cf4a201fbe287825b095693c217753361013b565b5050610378565b60008281526006602090815260408083206001600160a01b038516845290915281205460ff166101e15760008381526006602090815260408083206001600160a01b03861684529091529020805460ff191660011790556101993390565b6001600160a01b0316826001600160a01b0316847f2f8788117e7eff1d82e926ec794901d17c78024a50270940304540a733656f0d60405160405180910390a45060016101e5565b5060005b92915050565b6000602082840312156101fd57600080fd5b81516001600160a01b038116811461021457600080fd5b9392505050565b634e487b7160e01b600052604160045260246000fd5b600181811c9082168061024557607f821691505b60208210810361026557634e487b7160e01b600052602260045260246000fd5b50919050565b601f8211156102b557806000526020600020601f840160051c810160208510156102925750805b601f840160051c820191505b818110156102b2576000815560010161029e565b50505b505050565b81516001600160401b038111156102d3576102d361021b565b6102e7816102e18454610231565b8461026b565b6020601f82116001811461031b57600083156103035750848201515b600019600385901b1c1916600184901b1784556102b2565b600084815260208120601f198516915b8281101561034b578785015182556020948501946001909201910161032b565b50848210156103695786840151600019600387901b60f8161c191681555b50505050600190811b01905550565b6080516144576103d96000396000818161062e015281816108de0152818161113c015281816112c70152818161135e0152818161141c01528181611add01528181611f4d015281816121a40152818161235d015261245301526144576000f3fe608060405234801561001057600080fd5b50600436106103145760003560e01c80637cb9b544116101a7578063c55dae63116100ee578063d574ea3d11610097578063dd62ed3e11610071578063dd62ed3e1461073b578063e0a8f6f514610774578063e3ecf59f1461078757600080fd5b8063d574ea3d146106fd578063da35c6641461071f578063dc3e56951461072857600080fd5b8063cb13cddb116100c8578063cb13cddb146106a6578063cfc0cc34146106c6578063d547741f146106ea57600080fd5b8063c55dae6314610629578063c7f758a814610668578063c9d27afe1461069357600080fd5b80639e38c2e711610150578063a378a3241161012a578063a378a324146105dc578063a9059cbb14610603578063b6b55f251461061657600080fd5b80639e38c2e7146105c2578063a0499b3b146105cb578063a217fddf146105d457600080fd5b806391d148541161018157806391d148541461056e57806395d89b41146105a75780639b2f288c146105af57600080fd5b80637cb9b544146105005780637d5a177a14610513578063913c26f31461055b57600080fd5b8063248a9ca31161026b5780634bf3a02a116102145780636ed785ff116101ee5780636ed785ff1461049d57806370a08231146104b057806375b238fc146104d957600080fd5b80634bf3a02a1461046e5780635652077c146104815780636ca7f95c1461049457600080fd5b8063313ce56711610245578063313ce5671461043957806336568abe14610448578063438596321461045b57600080fd5b8063248a9ca3146103f05780632f2ff15d146104135780632f94dfa31461042657600080fd5b806306fdde03116102cd57806318160ddd116102a757806318160ddd146103cd57806322068b44146103d557806323b872dd146103dd57600080fd5b806306fdde0314610392578063095ea7b3146103a75780630d61b519146103ba57600080fd5b806301e6de42116102fe57806301e6de421461034957806301ffc9a71461035c578063052ec8601461037f57600080fd5b806221bc371461031957806301e1d1141461032e575b600080fd5b61032c610327366004613bb3565b61078f565b005b6103366108bc565b6040519081526020015b60405180910390f35b610336610357366004613c2c565b610a5f565b61036f61036a366004613cbe565b610d45565b6040519015158152602001610340565b61032c61038d366004613d07565b610dde565b61039a610f64565b6040516103409190613d70565b61036f6103b5366004613d9f565b610ff6565b61032c6103c8366004613d07565b61100e565b600254610336565b600c54610336565b61036f6103eb366004613dc9565b6114f1565b6103366103fe366004613d07565b60009081526006602052604090206001015490565b61032c610421366004613e06565b611515565b61032c610434366004613d07565b611540565b60405160128152602001610340565b61032c610456366004613e06565b6115b1565b61036f610469366004613e06565b611602565b61032c61047c366004613e32565b611649565b61032c61048f366004613d07565b611873565b610336600a5481565b61032c6104ab366004613d07565b6119ef565b6103366104be366004613e54565b6001600160a01b031660009081526020819052604090205490565b6103367fa49807205ce4d355092ef5a8a18f56e8913cf4a201fbe287825b095693c2177581565b61032c61050e366004613ede565b611b08565b610526610521366004613e06565b611ca2565b6040805196875260208701959095529215159385019390935260608401526080830191909152151560a082015260c001610340565b61032c610569366004613d07565b611d67565b61036f61057c366004613e06565b60009182526006602090815260408084206001600160a01b0393909316845291905290205460ff1690565b61039a611de8565b61032c6105bd366004613d07565b611df7565b61033660075481565b61033660095481565b610336600081565b6103367f17a8e30262c1f919c33056d877a3c22b95c2f5e4dac44683c1c2323cd79fbdb081565b61036f610611366004613d9f565b6123d4565b61032c610624366004613d07565b6123e2565b6106507f000000000000000000000000000000000000000000000000000000000000000081565b6040516001600160a01b039091168152602001610340565b61067b610676366004613d07565b61257f565b6040516103409c9b9a99989796959493929190613f85565b61032c6106a1366004613bb3565b612783565b6103366106b4366004613e54565b600b6020526000908152604090205481565b6106d96106d4366004613d07565b612a01565b604051610340959493929190614026565b61032c6106f8366004613e06565b612c23565b61071061070b366004613d07565b612c48565b60405161034093929190614074565b61033660085481565b61032c610736366004613bb3565b612d15565b6103366107493660046140a7565b6001600160a01b03918216600090815260016020908152604080832093909416825291909152205490565b61032c610782366004613d07565b612f69565b600954610336565b7fa49807205ce4d355092ef5a8a18f56e8913cf4a201fbe287825b095693c217756107b98161308c565b600c54831061080f5760405162461bcd60e51b815260206004820152600a60248201527f496e76616c69642069640000000000000000000000000000000000000000000060448201526064015b60405180910390fd5b81600c8481548110610823576108236140d1565b906000526020600020906002020160000160146101000a81548160ff021916908315150217905550827f8b5f2c4ceef0d3cbbd60bbd304f81d421b33f88ce4dab1cdc290a2f5eace86b8600c8581548110610880576108806140d1565b600091825260209182902060029091020154604080516001600160a01b03909216825286151592820192909252015b60405180910390a2505050565b6040516370a0823160e01b815230600482015260009081906001600160a01b037f000000000000000000000000000000000000000000000000000000000000000016906370a0823190602401602060405180830381865afa158015610925573d6000803e3d6000fd5b505050506040513d601f19601f8201168201806040525081019061094991906140e7565b90506000600a54821061096a57600a546109639083614116565b915061096f565b600091505b60005b600c54811015610a4d57600c818154811061098f5761098f6140d1565b6000918252602090912060029091020154600160a01b900460ff1615610a4557600c81815481106109c2576109c26140d1565b60009182526020918290206002909102015460408051629032ff60e51b815290516001600160a01b03909216926312065fe0926004808401938290030181865afa158015610a14573d6000803e3d6000fd5b505050506040513d601f19601f82011682018060405250810190610a3891906140e7565b610a429083614129565b91505b600101610972565b50610a588183614129565b9250505090565b336000908152602081905260408120548110610abd5760405162461bcd60e51b815260206004820152601660248201527f4e6565642073686172657320746f2070726f706f7365000000000000000000006044820152606401610806565b600c548810610b0e5760405162461bcd60e51b815260206004820152601060248201527f496e76616c6964207374726174656779000000000000000000000000000000006044820152606401610806565b600c8881548110610b2157610b216140d1565b6000918252602090912060029091020154600160a01b900460ff16610b885760405162461bcd60e51b815260206004820152601160248201527f496e6163746976652073747261746567790000000000000000000000000000006044820152606401610806565b60008711610bd85760405162461bcd60e51b815260206004820152600e60248201527f496e76616c696420616d6f756e740000000000000000000000000000000000006044820152606401610806565b60008611610c285760405162461bcd60e51b815260206004820152601960248201527f566f74696e6720706572696f64206d757374206265203e2030000000000000006044820152606401610806565b60088054906000610c388361413c565b90915550506008546000818152600d602052604090208181556001810180547fffffffffffffffffffffffff00000000000000000000000000000000000000001633179055600281018a905560038101899055426006820155610c9c88603c614156565b610ca69042614129565b6007820155600b810188905560088101805460ff1916905560098101610ccd8587836141f5565b50600a8101610cdd8789836141f5565b506006810154600782015460408051338152602081018e90529081018c90526060810192909252608082015282907f8b6db1e8bf2f36cfa26dc90b4a539c5280a8531c988f1734450a6d919c6569a09060a00160405180910390a25098975050505050505050565b60007fffffffff0000000000000000000000000000000000000000000000000000000082167f7965db0b000000000000000000000000000000000000000000000000000000001480610dd857507f01ffc9a7000000000000000000000000000000000000000000000000000000007fffffffff000000000000000000000000000000000000000000000000000000008316145b92915050565b6000818152600d602052604081208054909103610e305760405162461bcd60e51b815260206004820152601060248201526f125b9d985b1a59081c1c9bdc1bdcd85b60821b6044820152606401610806565b600f81015460ff16610e845760405162461bcd60e51b815260206004820152601660248201527f43616e63656c20766f7465206e6f7420616374697665000000000000000000006044820152606401610806565b80601101544211610ed75760405162461bcd60e51b815260206004820152601760248201527f43616e63656c20766f74696e67206e6f7420656e6465640000000000000000006044820152606401610806565b6000610ee260025490565b90506000610ef1600a836142b5565b905080600003610eff575060015b82600e015483600d0154118015610f1a57508083600d015410155b15610f5457610f2884613096565b60405184907f5789c4d658fb6af71484e63ce8b8e730acb07e6020a729da2d041a229008bd9690600090a25b5050600f01805460ff1916905550565b606060038054610f739061416d565b80601f0160208091040260200160405190810160405280929190818152602001828054610f9f9061416d565b8015610fec5780601f10610fc157610100808354040283529160200191610fec565b820191906000526020600020905b815481529060010190602001808311610fcf57829003601f168201915b5050505050905090565b6000336110048185856132d9565b5060019392505050565b6110166132e6565b6000818152600d6020526040812080549091036110685760405162461bcd60e51b815260206004820152601060248201526f125b9d985b1a59081c1c9bdc1bdcd85b60821b6044820152606401610806565b6002600882015460ff16600481111561108357611083613f6f565b146110d05760405162461bcd60e51b815260206004820152601660248201527f50726f706f73616c206e6f7420737563636565646564000000000000000000006044820152606401610806565b60008160030154116111245760405162461bcd60e51b815260206004820152600b60248201527f5a65726f20616d6f756e740000000000000000000000000000000000000000006044820152606401610806565b6040516370a0823160e01b81523060048201526000907f00000000000000000000000000000000000000000000000000000000000000006001600160a01b0316906370a0823190602401602060405180830381865afa15801561118b573d6000803e3d6000fd5b505050506040513d601f19601f820116820180604052508101906111af91906140e7565b90508160030154670de0b6b3a76400006111c99190614156565b8110156112185760405162461bcd60e51b815260206004820152601260248201527f496e73756666696369656e742066756e647300000000000000000000000000006044820152606401610806565b6000600c836002015481548110611231576112316140d1565b600091825260209091206002909102018054909150600160a01b900460ff1661129c5760405162461bcd60e51b815260206004820152601360248201527f5374726174656779206e6f7420616374697665000000000000000000000000006044820152606401610806565b805460405163095ea7b360e01b81526001600160a01b039182166004820181905260006024830152917f0000000000000000000000000000000000000000000000000000000000000000169063095ea7b3906044016020604051808303816000875af1158015611310573d6000803e3d6000fd5b505050506040513d601f19601f8201168201806040525081019061133491906142d7565b5060008460030154670de0b6b3a764000061134f9190614156565b90506113856001600160a01b037f0000000000000000000000000000000000000000000000000000000000000000168383613329565b6040517fb6b55f25000000000000000000000000000000000000000000000000000000008152600481018290526001600160a01b0383169063b6b55f2590602401600060405180830381600087803b1580156113e057600080fd5b505af11580156113f4573d6000803e3d6000fd5b505060405163095ea7b360e01b81526001600160a01b038581166004830152600060248301527f000000000000000000000000000000000000000000000000000000000000000016925063095ea7b391506044016020604051808303816000875af1158015611467573d6000803e3d6000fd5b505050506040513d601f19601f8201168201806040525081019061148b91906142d7565b5060088501805460ff19166003179055604080516001600160a01b03841681526020810183905287917f3b7c90df35b419337cff0919fe91849006607bb66c4373623f06f9d48c1ebb98910160405180910390a250505050506114ee6001600555565b50565b6000336114ff8582856133cc565b61150a85858561345e565b506001949350505050565b6000828152600660205260409020600101546115308161308c565b61153a83836134ef565b50505050565b6115486132e6565b7fa49807205ce4d355092ef5a8a18f56e8913cf4a201fbe287825b095693c217756115728161308c565b61157b82613096565b60405182907f416e669c63d9a3a5e36ee7cc7e2104b8db28ccd286aa18966e98fa230c73b08c90600090a2506114ee6001600555565b6001600160a01b03811633146115f3576040517f6697b23200000000000000000000000000000000000000000000000000000000815260040160405180910390fd5b6115fd828261359d565b505050565b6000828152600d6020526040812080548203611622576000915050610dd8565b6001600160a01b0383166000908152600c909101602052604090205460ff16905092915050565b6000828152600d60209081526040808320338452918390528220549091106116b35760405162461bcd60e51b815260206004820152600b60248201527f4e656564207368617265730000000000000000000000000000000000000000006044820152606401610806565b80546000036116f75760405162461bcd60e51b815260206004820152601060248201526f125b9d985b1a59081c1c9bdc1bdcd85b60821b6044820152606401610806565b6003600882015460ff16600481111561171257611712613f6f565b1461175f5760405162461bcd60e51b815260206004820152600a60248201527f4e6f7420616374697665000000000000000000000000000000000000000000006044820152606401610806565b600f81015460ff16156117b45760405162461bcd60e51b815260206004820152601a60248201527f43616e63656c20766f746520616c7265616479206163746976650000000000006044820152606401610806565b600082116118045760405162461bcd60e51b815260206004820152600e60248201527f496e76616c696420706572696f640000000000000000000000000000000000006044820152606401610806565b600f8101805460ff1916600117905542601082015561182482603c614156565b61182e9042614129565b60118201819055601082015460408051918252602082019290925284917fe2e6212a456d1e02f2fd537bf9469c888678037bff8522bc23cf5cf01020a16891016108af565b6000818152600d6020526040812080549091036118c55760405162461bcd60e51b815260206004820152601060248201526f125b9d985b1a59081c1c9bdc1bdcd85b60821b6044820152606401610806565b6000600882015460ff1660048111156118e0576118e0613f6f565b1461192d5760405162461bcd60e51b815260206004820152601660248201527f50726f706f73616c206973206e6f7420616374697665000000000000000000006044820152606401610806565b806007015442116119805760405162461bcd60e51b815260206004820152601060248201527f566f74696e67206e6f7420656e646564000000000000000000000000000000006044820152606401610806565b600061198b60025490565b9050600061199a600a836142b5565b9050806000036119a8575060015b826005015483600401541180156119c3575080836004015410155b156119dc5760088301805460ff1916600217905561153a565b5050600801805460ff1916600117905550565b7fa49807205ce4d355092ef5a8a18f56e8913cf4a201fbe287825b095693c21775611a198161308c565b33611a665760405162461bcd60e51b815260206004820152600f60248201527f496e76616c6964206164647265737300000000000000000000000000000000006044820152606401610806565b600a54821115611ab85760405162461bcd60e51b815260206004820152600f60248201527f4e6f7420656e6f756768206665657300000000000000000000000000000000006044820152606401610806565b81600a6000828254611aca9190614116565b90915550611b0490506001600160a01b037f0000000000000000000000000000000000000000000000000000000000000000163384613624565b5050565b7fa49807205ce4d355092ef5a8a18f56e8913cf4a201fbe287825b095693c21775611b328161308c565b6001600160a01b038316611b885760405162461bcd60e51b815260206004820152601060248201527f496e76616c6964207374726174656779000000000000000000000000000000006044820152606401610806565b604080516060810182526001600160a01b038086168252600160208301818152938301868152600c80549283018155600052835160029092027fdf6966c971051c3d54ec59162606531493a51404a002842f56009d7e5cf4a8c78101805496511515600160a01b027fffffffffffffffffffffff00000000000000000000000000000000000000000090971693909416929092179490941782559251919290917fdf6966c971051c3d54ec59162606531493a51404a002842f56009d7e5cf4a8c890910190611c5790826142f4565b5050600c54611c699150600190614116565b6040516001600160a01b03851681527f1f967990e6274c3926058ddfc32b6d36f1ba6e914cc98ad1fe7d5d55ac05d16e906020016108af565b6000828152600d60205260408120805482918291829182918291908203611cfe5760405162461bcd60e51b815260206004820152601060248201526f125b9d985b1a59081c1c9bdc1bdcd85b60821b6044820152606401610806565b600d810154600e820154600f83015460108401546011850154939a5091985060ff169650945092506001600160a01b038816611d3b576000611d5a565b6001600160a01b038816600090815260128201602052604090205460ff165b9150509295509295509295565b7fa49807205ce4d355092ef5a8a18f56e8913cf4a201fbe287825b095693c21775611d918161308c565b6064821115611de25760405162461bcd60e51b815260206004820152601660248201527f4665652063616e6e6f74206578636565642031303025000000000000000000006044820152606401610806565b50600955565b606060048054610f739061416d565b611dff6132e6565b60008111611e4f5760405162461bcd60e51b815260206004820152601160248201527f4e6f7468696e6720746f2072656465656d0000000000000000000000000000006044820152606401610806565b33600090815260208190526040902054811115611eae5760405162461bcd60e51b815260206004820152601160248201527f4e6f7420656e6f756768207368617265730000000000000000000000000000006044820152606401610806565b6000611eb960025490565b905060008111611f0b5760405162461bcd60e51b815260206004820152600960248201527f4e6f20737570706c7900000000000000000000000000000000000000000000006044820152606401610806565b600081611f166108bc565b611f209085614156565b611f2a91906142b5565b6040516370a0823160e01b81523060048201529091506000906001600160a01b037f000000000000000000000000000000000000000000000000000000000000000016906370a0823190602401602060405180830381865afa158015611f94573d6000803e3d6000fd5b505050506040513d601f19601f82011682018060405250810190611fb891906140e7565b9050600a54811115611fd857600a54611fd19082614116565b9050611fdc565b5060005b8181101561218c576000611ff08284614116565b905060005b600c54811080156120065750600082115b1561218957600c818154811061201e5761201e6140d1565b6000918252602090912060029091020154600160a01b900460ff1615612177576000600c8281548110612053576120536140d1565b6000918252602080832060029092029091015460408051629032ff60e51b815290516001600160a01b03909216945084926312065fe0926004808401938290030181865afa1580156120a9573d6000803e3d6000fd5b505050506040513d601f19601f820116820180604052508101906120cd91906140e7565b9050806000036120de575050612177565b60008482116120ed57816120ef565b845b6040517f2e1a7d4d000000000000000000000000000000000000000000000000000000008152600481018290529091506001600160a01b03841690632e1a7d4d90602401600060405180830381600087803b15801561214d57600080fd5b505af1158015612161573d6000803e3d6000fd5b5050505080856121719190614116565b94505050505b806121818161413c565b915050611ff5565b50505b6040516370a0823160e01b81523060048201526000907f00000000000000000000000000000000000000000000000000000000000000006001600160a01b0316906370a0823190602401602060405180830381865afa1580156121f3573d6000803e3d6000fd5b505050506040513d601f19601f8201168201806040525081019061221791906140e7565b9050600a5481111561223757600a546122309082614116565b905061223b565b5060005b600081841161224a578361224c565b815b90506000811161229e5760405162461bcd60e51b815260206004820152601660248201527f496e73756666696369656e74206c6971756964697479000000000000000000006044820152606401610806565b3360009081526020818152604080832054600b9092528220549091826122c48a84614156565b6122ce91906142b5565b90506000808286111561231b576122e58387614116565b91506064600954836122f79190614156565b61230191906142b5565b905080600a60008282546123159190614129565b90915550505b60006123278288614116565b90506123338486614116565b336000818152600b6020526040902091909155612350908d613698565b6123846001600160a01b037f0000000000000000000000000000000000000000000000000000000000000000163383613624565b604080518d81526020810183905233917fe5b754fb1abb7f01b499791d0b820ae3b6af3424ac1c59768edb53f4ec31a929910160405180910390a250505050505050505050506114ee6001600555565b60003361100481858561345e565b6123ea6132e6565b6000811161243a5760405162461bcd60e51b815260206004820152601260248201527f4e6f7468696e6720746f206465706f73697400000000000000000000000000006044820152606401610806565b60006124446108bc565b905061247b6001600160a01b037f0000000000000000000000000000000000000000000000000000000000000000163330856136e7565b60008061248760025490565b9050801580612494575082155b156124a1578391506124b9565b826124ac8286614156565b6124b691906142b5565b91505b600082116125095760405162461bcd60e51b815260206004820152600b60248201527f5a65726f207368617265730000000000000000000000000000000000000000006044820152606401610806565b6125133383613720565b336000908152600b602052604081208054869290612532908490614129565b9091555050604080518581526020810184905233917f90890809c654f11d6e72a28fa60149770a0d11ec6c92319d6ceb2bb0a4ea1a15910160405180910390a25050506114ee6001600555565b6000806000806000806000806000806060806000600d60008f8152602001908152602001600020905080600001546000036125ef5760405162461bcd60e51b815260206004820152601060248201526f125b9d985b1a59081c1c9bdc1bdcd85b60821b6044820152606401610806565b80600001549c508060010160009054906101000a90046001600160a01b03169b5080600201549a50806003015499508060040154985080600501549750806006015496508060070154955080600b015494508060080160009054906101000a900460ff1693508060090180546126649061416d565b80601f01602080910402602001604051908101604052809291908181526020018280546126909061416d565b80156126dd5780601f106126b2576101008083540402835291602001916126dd565b820191906000526020600020905b8154815290600101906020018083116126c057829003601f168201915b5050505050925080600a0180546126f39061416d565b80601f016020809104026020016040519081016040528092919081815260200182805461271f9061416d565b801561276c5780601f106127415761010080835404028352916020019161276c565b820191906000526020600020905b81548152906001019060200180831161274f57829003601f168201915b505050505091505091939597999b5091939597999b565b6000828152600d6020526040812080549091036127e25760405162461bcd60e51b815260206004820152601060248201527f4e6f20737563682070726f706f73616c000000000000000000000000000000006044820152606401610806565b6000600882015460ff1660048111156127fd576127fd613f6f565b1461284a5760405162461bcd60e51b815260206004820152601360248201527f50726f706f73616c206e6f7420616374697665000000000000000000000000006044820152606401610806565b8060070154421061289d5760405162461bcd60e51b815260206004820152600d60248201527f566f74696e6720636c6f736564000000000000000000000000000000000000006044820152606401610806565b336000908152600c8201602052604090205460ff16156128ff5760405162461bcd60e51b815260206004820152600d60248201527f416c726561647920766f746564000000000000000000000000000000000000006044820152606401610806565b336000908152600c820160209081526040808320805460ff19166001179055908290528120549050600081116129775760405162461bcd60e51b815260206004820152600f60248201527f6e6f20766f74696e6720706f77657200000000000000000000000000000000006044820152606401610806565b821561299c57808260040160008282546129919190614129565b909155506129b69050565b808260050160008282546129b09190614129565b90915550505b60408051338152841515602082015290810182905284907f7c2de587c00d75474a0c6c6fa96fd3b45dc974cd4e8a75f712bb84c950dce1b5906060015b60405180910390a250505050565b6000806000606080600c805490508610612a5d5760405162461bcd60e51b815260206004820152600a60248201527f496e76616c6964206964000000000000000000000000000000000000000000006044820152606401610806565b6000600c8781548110612a7257612a726140d1565b600091825260209182902060029190910201805460408051629032ff60e51b815290516001600160a01b0383169a50600160a01b90920460ff16985091935088926312065fe092600480820193918290030181865afa158015612ad9573d6000803e3d6000fd5b505050506040513d601f19601f82011682018060405250810190612afd91906140e7565b8154604080517f06fdde0300000000000000000000000000000000000000000000000000000000815290519296506001600160a01b03909116916306fdde03916004808201926000929091908290030181865afa158015612b62573d6000803e3d6000fd5b505050506040513d6000823e601f3d908101601f19168201604052612b8a91908101906143b3565b8154604080517f7284e41600000000000000000000000000000000000000000000000000000000815290519295506001600160a01b0390911691637284e416916004808201926000929091908290030181865afa158015612bef573d6000803e3d6000fd5b505050506040513d6000823e601f3d908101601f19168201604052612c1791908101906143b3565b91505091939590929450565b600082815260066020526040902060010154612c3e8161308c565b61153a838361359d565b600c8181548110612c5857600080fd5b6000918252602090912060029091020180546001820180546001600160a01b0383169450600160a01b90920460ff169291612c929061416d565b80601f0160208091040260200160405190810160405280929190818152602001828054612cbe9061416d565b8015612d0b5780601f10612ce057610100808354040283529160200191612d0b565b820191906000526020600020905b815481529060010190602001808311612cee57829003601f168201915b5050505050905083565b6000828152600d602052604081208054909103612d675760405162461bcd60e51b815260206004820152601060248201526f125b9d985b1a59081c1c9bdc1bdcd85b60821b6044820152606401610806565b600f81015460ff16612dbb5760405162461bcd60e51b815260206004820152601860248201527f43616e63656c20766f74696e67206e6f742061637469766500000000000000006044820152606401610806565b80601101544210612e0e5760405162461bcd60e51b815260206004820152601360248201527f43616e63656c20766f74696e6720656e646564000000000000000000000000006044820152606401610806565b33600090815260128201602052604090205460ff1615612e705760405162461bcd60e51b815260206004820152601460248201527f416c726561647920766f7465642063616e63656c0000000000000000000000006044820152606401610806565b3360009081526020819052604090205480612ecd5760405162461bcd60e51b815260206004820152600f60248201527f4e6f20766f74696e6720706f77657200000000000000000000000000000000006044820152606401610806565b3360009081526012830160205260409020805460ff191660011790558215612f0e578082600d016000828254612f039190614129565b90915550612f289050565b8082600e016000828254612f229190614129565b90915550505b60408051338152841515602082015290810182905284907f2afa3ec744a2db0716287bbd720599669eba1cddc53520cbcfa1aac2f12ebe4e906060016129f3565b7fa49807205ce4d355092ef5a8a18f56e8913cf4a201fbe287825b095693c21775612f938161308c565b6000828152600d602052604081208054909103612fe55760405162461bcd60e51b815260206004820152601060248201526f125b9d985b1a59081c1c9bdc1bdcd85b60821b6044820152606401610806565b6000600882015460ff16600481111561300057613000613f6f565b1461304d5760405162461bcd60e51b815260206004820152600d60248201527f43616e6e6f742063616e63656c000000000000000000000000000000000000006044820152606401610806565b60088101805460ff1916600117905560405183907f416e669c63d9a3a5e36ee7cc7e2104b8db28ccd286aa18966e98fa230c73b08c90600090a2505050565b6114ee813361376f565b6000818152600d602052604090206003600882015460ff1660048111156130bf576130bf613f6f565b1461310c5760405162461bcd60e51b815260206004820152601560248201527f50726f706f73616c206e6f7420657865637574656400000000000000000000006044820152606401610806565b6002810154600c5481106131625760405162461bcd60e51b815260206004820152601060248201527f4e6f2073756368207374726174656779000000000000000000000000000000006044820152606401610806565b6000600c8281548110613177576131776140d1565b6000918252602090912060029091020180549091506001600160a01b0316806131e25760405162461bcd60e51b815260206004820152601860248201527f496e76616c6964207374726174656779206164647265737300000000000000006044820152606401610806565b60008460030154670de0b6b3a76400006131fc9190614156565b90506000811161324e5760405162461bcd60e51b815260206004820152600b60248201527f5a65726f20616d6f756e740000000000000000000000000000000000000000006044820152606401610806565b6040517f2e1a7d4d000000000000000000000000000000000000000000000000000000008152600481018290526001600160a01b03831690632e1a7d4d90602401600060405180830381600087803b1580156132a957600080fd5b505af11580156132bd573d6000803e3d6000fd5b50505050600894909401805460ff191660041790555050505050565b6115fd83838360016137dd565b600260055403613322576040517f3ee5aeb500000000000000000000000000000000000000000000000000000000815260040160405180910390fd5b6002600555565b6040517fdd62ed3e0000000000000000000000000000000000000000000000000000000081523060048201526001600160a01b0383811660248301526000919085169063dd62ed3e90604401602060405180830381865afa158015613392573d6000803e3d6000fd5b505050506040513d601f19601f820116820180604052508101906133b691906140e7565b905061153a84846133c78585614129565b6138e4565b6001600160a01b0383811660009081526001602090815260408083209386168352929052205460001981101561153a578181101561344f576040517ffb8f41b20000000000000000000000000000000000000000000000000000000081526001600160a01b03841660048201526024810182905260448101839052606401610806565b61153a848484840360006137dd565b6001600160a01b0383166134a1576040517f96c6fd1e00000000000000000000000000000000000000000000000000000000815260006004820152602401610806565b6001600160a01b0382166134e4576040517fec442f0500000000000000000000000000000000000000000000000000000000815260006004820152602401610806565b6115fd838383613989565b60008281526006602090815260408083206001600160a01b038516845290915281205460ff166135955760008381526006602090815260408083206001600160a01b03861684529091529020805460ff1916600117905561354d3390565b6001600160a01b0316826001600160a01b0316847f2f8788117e7eff1d82e926ec794901d17c78024a50270940304540a733656f0d60405160405180910390a4506001610dd8565b506000610dd8565b60008281526006602090815260408083206001600160a01b038516845290915281205460ff16156135955760008381526006602090815260408083206001600160a01b0386168085529252808320805460ff1916905551339286917ff6391f5c32d9c69d2a47ea670b442974b53935d1edc7fd64eb21e047a839171b9190a4506001610dd8565b6040516001600160a01b038381166024830152604482018390526115fd91859182169063a9059cbb906064015b604051602081830303815290604052915060e01b6020820180517bffffffffffffffffffffffffffffffffffffffffffffffffffffffff8381831617835250505050613acc565b6001600160a01b0382166136db576040517f96c6fd1e00000000000000000000000000000000000000000000000000000000815260006004820152602401610806565b611b0482600083613989565b6040516001600160a01b03848116602483015283811660448301526064820183905261153a9186918216906323b872dd90608401613651565b6001600160a01b038216613763576040517fec442f0500000000000000000000000000000000000000000000000000000000815260006004820152602401610806565b611b0460008383613989565b60008281526006602090815260408083206001600160a01b038516845290915290205460ff16611b04576040517fe2517d3f0000000000000000000000000000000000000000000000000000000081526001600160a01b038216600482015260248101839052604401610806565b6001600160a01b038416613820576040517fe602df0500000000000000000000000000000000000000000000000000000000815260006004820152602401610806565b6001600160a01b038316613863576040517f94280d6200000000000000000000000000000000000000000000000000000000815260006004820152602401610806565b6001600160a01b038085166000908152600160209081526040808320938716835292905220829055801561153a57826001600160a01b0316846001600160a01b03167f8c5be1e5ebec7d5bd14f71427d1e84f3dd0314c0f7b2291e5b200ac8c7c3b925846040516138d691815260200190565b60405180910390a350505050565b604080516001600160a01b038416602482015260448082018490528251808303909101815260649091019091526020810180517bffffffffffffffffffffffffffffffffffffffffffffffffffffffff1663095ea7b360e01b17905261394a8482613b56565b61153a576040516001600160a01b0384811660248301526000604483015261397f91869182169063095ea7b390606401613651565b61153a8482613acc565b6001600160a01b0383166139b45780600260008282546139a99190614129565b90915550613a3f9050565b6001600160a01b03831660009081526020819052604090205481811015613a20576040517fe450d38c0000000000000000000000000000000000000000000000000000000081526001600160a01b03851660048201526024810182905260448101839052606401610806565b6001600160a01b03841660009081526020819052604090209082900390555b6001600160a01b038216613a5b57600280548290039055613a7a565b6001600160a01b03821660009081526020819052604090208054820190555b816001600160a01b0316836001600160a01b03167fddf252ad1be2c89b69c2b068fc378daa952ba7f163c4a11628f55a4df523b3ef83604051613abf91815260200190565b60405180910390a3505050565b600080602060008451602086016000885af180613aef576040513d6000823e3d81fd5b50506000513d91508115613b07578060011415613b14565b6001600160a01b0384163b155b1561153a576040517f5274afe70000000000000000000000000000000000000000000000000000000081526001600160a01b0385166004820152602401610806565b6000806000806020600086516020880160008a5af192503d91506000519050828015613b9b57508115613b8c5780600114613b9b565b6000866001600160a01b03163b115b9695505050505050565b80151581146114ee57600080fd5b60008060408385031215613bc657600080fd5b823591506020830135613bd881613ba5565b809150509250929050565b60008083601f840112613bf557600080fd5b50813567ffffffffffffffff811115613c0d57600080fd5b602083019150836020828501011115613c2557600080fd5b9250929050565b600080600080600080600060a0888a031215613c4757600080fd5b873596506020880135955060408801359450606088013567ffffffffffffffff811115613c7357600080fd5b613c7f8a828b01613be3565b909550935050608088013567ffffffffffffffff811115613c9f57600080fd5b613cab8a828b01613be3565b989b979a50959850939692959293505050565b600060208284031215613cd057600080fd5b81357fffffffff0000000000000000000000000000000000000000000000000000000081168114613d0057600080fd5b9392505050565b600060208284031215613d1957600080fd5b5035919050565b60005b83811015613d3b578181015183820152602001613d23565b50506000910152565b60008151808452613d5c816020860160208601613d20565b601f01601f19169290920160200192915050565b602081526000613d006020830184613d44565b80356001600160a01b0381168114613d9a57600080fd5b919050565b60008060408385031215613db257600080fd5b613dbb83613d83565b946020939093013593505050565b600080600060608486031215613dde57600080fd5b613de784613d83565b9250613df560208501613d83565b929592945050506040919091013590565b60008060408385031215613e1957600080fd5b82359150613e2960208401613d83565b90509250929050565b60008060408385031215613e4557600080fd5b50508035926020909101359150565b600060208284031215613e6657600080fd5b613d0082613d83565b634e487b7160e01b600052604160045260246000fd5b604051601f8201601f1916810167ffffffffffffffff81118282101715613eae57613eae613e6f565b604052919050565b600067ffffffffffffffff821115613ed057613ed0613e6f565b50601f01601f191660200190565b60008060408385031215613ef157600080fd5b613efa83613d83565b9150602083013567ffffffffffffffff811115613f1657600080fd5b8301601f81018513613f2757600080fd5b8035613f3a613f3582613eb6565b613e85565b818152866020838501011115613f4f57600080fd5b816020840160208301376000602083830101528093505050509250929050565b634e487b7160e01b600052602160045260246000fd5b8c81526001600160a01b038c1660208201528a60408201528960608201528860808201528760a08201528660c08201528560e082015284610100820152600060058510613fe257634e487b7160e01b600052602160045260246000fd5b84610120830152610180610140830152614000610180830185613d44565b8281036101608401526140138185613d44565b9f9e505050505050505050505050505050565b6001600160a01b0386168152841515602082015283604082015260a06060820152600061405660a0830185613d44565b82810360808401526140688185613d44565b98975050505050505050565b6001600160a01b0384168152821515602082015260606040820152600061409e6060830184613d44565b95945050505050565b600080604083850312156140ba57600080fd5b6140c383613d83565b9150613e2960208401613d83565b634e487b7160e01b600052603260045260246000fd5b6000602082840312156140f957600080fd5b5051919050565b634e487b7160e01b600052601160045260246000fd5b81810381811115610dd857610dd8614100565b80820180821115610dd857610dd8614100565b6000600019820361414f5761414f614100565b5060010190565b8082028115828204841417610dd857610dd8614100565b600181811c9082168061418157607f821691505b6020821081036141a157634e487b7160e01b600052602260045260246000fd5b50919050565b601f8211156115fd57806000526020600020601f840160051c810160208510156141ce5750805b601f840160051c820191505b818110156141ee57600081556001016141da565b5050505050565b67ffffffffffffffff83111561420d5761420d613e6f565b6142218361421b835461416d565b836141a7565b6000601f841160018114614255576000851561423d5750838201355b600019600387901b1c1916600186901b1783556141ee565b600083815260209020601f19861690835b828110156142865786850135825560209485019460019092019101614266565b50868210156142a35760001960f88860031b161c19848701351681555b505060018560011b0183555050505050565b6000826142d257634e487b7160e01b600052601260045260246000fd5b500490565b6000602082840312156142e957600080fd5b8151613d0081613ba5565b815167ffffffffffffffff81111561430e5761430e613e6f565b6143228161431c845461416d565b846141a7565b6020601f821160018114614356576000831561433e5750848201515b600019600385901b1c1916600184901b1784556141ee565b600084815260208120601f198516915b828110156143865787850151825560209485019460019092019101614366565b50848210156143a45786840151600019600387901b60f8161c191681555b50505050600190811b01905550565b6000602082840312156143c557600080fd5b815167ffffffffffffffff8111156143dc57600080fd5b8201601f810184136143ed57600080fd5b80516143fb613f3582613eb6565b81815285602083850101111561441057600080fd5b61409e826020830160208601613d2056fea26469706673582212202239d164127d7bbffd6a1a263e275eb938e09c986025bbe072d8b16d270cfe4f64736f6c634300081c0033",
  "linkReferences": {},
  "deployedLinkReferences": {}
}