{
  "_format": "hh-sol-artifact-1",
  "contractName": "InvestmentPool",
  "sourceName": "contracts/Dao.sol",
  "abi": [
    {
      "inputs": [
        {
          "internalType": "contract IERC20",
          "name": "_baseToken",
          "type": "address"
        }
      ],
      "stateMutability": "nonpayable",
      "type": "constructor"
    },
    {
      "inputs": [],
      "name": "AccessControlBadConfirmation",
      "type": "error"
    },
    {
      "inputs": [
        {
          "internalType": "address",
          "name": "account",
          "type": "address"
        },
        {
          "internalType": "bytes32",
          "name": "neededRole",
          "type": "bytes32"
        }
      ],
      "name": "AccessControlUnauthorizedAccount",
      "type": "error"
    },
    {
      "inputs": [
        {
          "internalType": "address",
          "name": "spender",
          "type": "address"
        },
        {
          "internalType": "uint256",
          "name": "allowance",
          "type": "uint256"
        },
        {
          "internalType": "uint256",
          "name": "needed",
          "type": "uint256"
        }
      ],
      "name": "ERC20InsufficientAllowance",
      "type": "error"
    },
    {
      "inputs": [
        {
          "internalType": "address",
          "name": "sender",
          "type": "address"
        },
        {
          "internalType": "uint256",
          "name": "balance",
          "type": "uint256"
        },
        {
          "internalType": "uint256",
          "name": "needed",
          "type": "uint256"
        }
      ],
      "name": "ERC20InsufficientBalance",
      "type": "error"
    },
    {
      "inputs": [
        {
          "internalType": "address",
          "name": "approver",
          "type": "address"
        }
      ],
      "name": "ERC20InvalidApprover",
      "type": "error"
    },
    {
      "inputs": [
        {
          "internalType": "address",
          "name": "receiver",
          "type": "address"
        }
      ],
      "name": "ERC20InvalidReceiver",
      "type": "error"
    },
    {
      "inputs": [
        {
          "internalType": "address",
          "name": "sender",
          "type": "address"
        }
      ],
      "name": "ERC20InvalidSender",
      "type": "error"
    },
    {
      "inputs": [
        {
          "internalType": "address",
          "name": "spender",
          "type": "address"
        }
      ],
      "name": "ERC20InvalidSpender",
      "type": "error"
    },
    {
      "inputs": [],
      "name": "ReentrancyGuardReentrantCall",
      "type": "error"
    },
    {
      "inputs": [
        {
          "internalType": "address",
          "name": "token",
          "type": "address"
        }
      ],
      "name": "SafeERC20FailedOperation",
      "type": "error"
    },
    {
      "anonymous": false,
      "inputs": [
        {
          "indexed": true,
          "internalType": "address",
          "name": "owner",
          "type": "address"
        },
        {
          "indexed": true,
          "internalType": "address",
          "name": "spender",
          "type": "address"
        },
        {
          "indexed": false,
          "internalType": "uint256",
          "name": "value",
          "type": "uint256"
        }
      ],
      "name": "Approval",
      "type": "event"
    },
    {
      "anonymous": false,
      "inputs": [
        {
          "indexed": true,
          "internalType": "uint256",
          "name": "proposalId",
          "type": "uint256"
        },
        {
          "indexed": false,
          "internalType": "uint256",
          "name": "start",
          "type": "uint256"
        },
        {
          "indexed": false,
          "internalType": "uint256",
          "name": "end",
          "type": "uint256"
        }
      ],
      "name": "CancelVoteStarted",
      "type": "event"
    },
    {
      "anonymous": false,
      "inputs": [
        {
          "indexed": true,
          "internalType": "uint256",
          "name": "proposalId",
          "type": "uint256"
        },
        {
          "indexed": false,
          "internalType": "address",
          "name": "voter",
          "type": "address"
        },
        {
          "indexed": false,
          "internalType": "bool",
          "name": "support",
          "type": "bool"
        },
        {
          "indexed": false,
          "internalType": "uint256",
          "name": "weight",
          "type": "uint256"
        }
      ],
      "name": "CancelVoted",
      "type": "event"
    },
    {
      "anonymous": false,
      "inputs": [
        {
          "indexed": false,
          "internalType": "string",
          "name": "msg",
          "type": "string"
        },
        {
          "indexed": false,
          "internalType": "uint256",
          "name": "val",
          "type": "uint256"
        }
      ],
      "name": "Debug",
      "type": "event"
    },
    {
      "anonymous": false,
      "inputs": [
        {
          "indexed": true,
          "internalType": "address",
          "name": "user",
          "type": "address"
        },
        {
          "indexed": false,
          "internalType": "uint256",
          "name": "amount",
          "type": "uint256"
        },
        {
          "indexed": false,
          "internalType": "uint256",
          "name": "sharesMinted",
          "type": "uint256"
        }
      ],
      "name": "Deposit",
      "type": "event"
    },
    {
      "anonymous": false,
      "inputs": [
        {
          "indexed": true,
          "internalType": "address",
          "name": "admin",
          "type": "address"
        },
        {
          "indexed": false,
          "internalType": "uint256",
          "name": "amount",
          "type": "uint256"
        }
      ],
      "name": "EmergencyWithdraw",
      "type": "event"
    },
    {
      "anonymous": false,
      "inputs": [
        {
          "indexed": true,
          "internalType": "uint256",
          "name": "proposalId",
          "type": "uint256"
        }
      ],
      "name": "ProposalCancelled",
      "type": "event"
    },
    {
      "anonymous": false,
      "inputs": [
        {
          "indexed": true,
          "internalType": "uint256",
          "name": "proposalId",
          "type": "uint256"
        }
      ],
      "name": "ProposalCancelledByVote",
      "type": "event"
    },
    {
      "anonymous": false,
      "inputs": [
        {
          "indexed": true,
          "internalType": "uint256",
          "name": "id",
          "type": "uint256"
        },
        {
          "indexed": false,
          "internalType": "address",
          "name": "proposer",
          "type": "address"
        },
        {
          "indexed": false,
          "internalType": "uint256",
          "name": "strategyId",
          "type": "uint256"
        },
        {
          "indexed": false,
          "internalType": "uint256",
          "name": "amount",
          "type": "uint256"
        },
        {
          "indexed": false,
          "internalType": "uint256",
          "name": "start",
          "type": "uint256"
        },
        {
          "indexed": false,
          "internalType": "uint256",
          "name": "end",
          "type": "uint256"
        }
      ],
      "name": "ProposalCreated",
      "type": "event"
    },
    {
      "anonymous": false,
      "inputs": [
        {
          "indexed": true,
          "internalType": "uint256",
          "name": "proposalId",
          "type": "uint256"
        },
        {
          "indexed": false,
          "internalType": "address",
          "name": "strategy",
          "type": "address"
        },
        {
          "indexed": false,
          "internalType": "uint256",
          "name": "amount",
          "type": "uint256"
        }
      ],
      "name": "ProposalExecuted",
      "type": "event"
    },
    {
      "anonymous": false,
      "inputs": [
        {
          "indexed": true,
          "internalType": "address",
          "name": "user",
          "type": "address"
        },
        {
          "indexed": false,
          "internalType": "uint256",
          "name": "sharesBurned",
          "type": "uint256"
        },
        {
          "indexed": false,
          "internalType": "uint256",
          "name": "amountReturned",
          "type": "uint256"
        }
      ],
      "name": "Redeem",
      "type": "event"
    },
    {
      "anonymous": false,
      "inputs": [
        {
          "indexed": true,
          "internalType": "bytes32",
          "name": "role",
          "type": "bytes32"
        },
        {
          "indexed": true,
          "internalType": "bytes32",
          "name": "previousAdminRole",
          "type": "bytes32"
        },
        {
          "indexed": true,
          "internalType": "bytes32",
          "name": "newAdminRole",
          "type": "bytes32"
        }
      ],
      "name": "RoleAdminChanged",
      "type": "event"
    },
    {
      "anonymous": false,
      "inputs": [
        {
          "indexed": true,
          "internalType": "bytes32",
          "name": "role",
          "type": "bytes32"
        },
        {
          "indexed": true,
          "internalType": "address",
          "name": "account",
          "type": "address"
        },
        {
          "indexed": true,
          "internalType": "address",
          "name": "sender",
          "type": "address"
        }
      ],
      "name": "RoleGranted",
      "type": "event"
    },
    {
      "anonymous": false,
      "inputs": [
        {
          "indexed": true,
          "internalType": "bytes32",
          "name": "role",
          "type": "bytes32"
        },
        {
          "indexed": true,
          "internalType": "address",
          "name": "account",
          "type": "address"
        },
        {
          "indexed": true,
          "internalType": "address",
          "name": "sender",
          "type": "address"
        }
      ],
      "name": "RoleRevoked",
      "type": "event"
    },
    {
      "anonymous": false,
      "inputs": [
        {
          "indexed": true,
          "internalType": "uint256",
          "name": "strategyId",
          "type": "uint256"
        },
        {
          "indexed": false,
          "internalType": "address",
          "name": "strategy",
          "type": "address"
        }
      ],
      "name": "StrategyAdded",
      "type": "event"
    },
    {
      "anonymous": false,
      "inputs": [
        {
          "indexed": true,
          "internalType": "uint256",
          "name": "strategyId",
          "type": "uint256"
        },
        {
          "indexed": false,
          "internalType": "address",
          "name": "strategy",
          "type": "address"
        },
        {
          "indexed": false,
          "internalType": "bool",
          "name": "active",
          "type": "bool"
        }
      ],
      "name": "StrategyToggled",
      "type": "event"
    },
    {
      "anonymous": false,
      "inputs": [
        {
          "indexed": true,
          "internalType": "address",
          "name": "from",
          "type": "address"
        },
        {
          "indexed": true,
          "internalType": "address",
          "name": "to",
          "type": "address"
        },
        {
          "indexed": false,
          "internalType": "uint256",
          "name": "value",
          "type": "uint256"
        }
      ],
      "name": "Transfer",
      "type": "event"
    },
    {
      "anonymous": false,
      "inputs": [
        {
          "indexed": true,
          "internalType": "uint256",
          "name": "proposalId",
          "type": "uint256"
        },
        {
          "indexed": false,
          "internalType": "address",
          "name": "voter",
          "type": "address"
        },
        {
          "indexed": false,
          "internalType": "bool",
          "name": "support",
          "type": "bool"
        },
        {
          "indexed": false,
          "internalType": "uint256",
          "name": "weight",
          "type": "uint256"
        }
      ],
      "name": "Voted",
      "type": "event"
    },
    {
      "inputs": [],
      "name": "ADMIN_ROLE",
      "outputs": [
        {
          "internalType": "bytes32",
          "name": "",
          "type": "bytes32"
        }
      ],
      "stateMutability": "view",
      "type": "function"
    },
    {
      "inputs": [],
      "name": "DEFAULT_ADMIN_ROLE",
      "outputs": [
        {
          "internalType": "bytes32",
          "name": "",
          "type": "bytes32"
        }
      ],
      "stateMutability": "view",
      "type": "function"
    },
    {
      "inputs": [
        {
          "internalType": "address",
          "name": "_strategy",
          "type": "address"
        },
        {
          "internalType": "string",
          "name": "_description",
          "type": "string"
        }
      ],
      "name": "addStrategy",
      "outputs": [],
      "stateMutability": "nonpayable",
      "type": "function"
    },
    {
      "inputs": [
        {
          "internalType": "address",
          "name": "owner",
          "type": "address"
        },
        {
          "internalType": "address",
          "name": "spender",
          "type": "address"
        }
      ],
      "name": "allowance",
      "outputs": [
        {
          "internalType": "uint256",
          "name": "",
          "type": "uint256"
        }
      ],
      "stateMutability": "view",
      "type": "function"
    },
    {
      "inputs": [
        {
          "internalType": "address",
          "name": "spender",
          "type": "address"
        },
        {
          "internalType": "uint256",
          "name": "value",
          "type": "uint256"
        }
      ],
      "name": "approve",
      "outputs": [
        {
          "internalType": "bool",
          "name": "",
          "type": "bool"
        }
      ],
      "stateMutability": "nonpayable",
      "type": "function"
    },
    {
      "inputs": [
        {
          "internalType": "address",
          "name": "account",
          "type": "address"
        }
      ],
      "name": "balanceOf",
      "outputs": [
        {
          "internalType": "uint256",
          "name": "",
          "type": "uint256"
        }
      ],
      "stateMutability": "view",
      "type": "function"
    },
    {
      "inputs": [],
      "name": "baseToken",
      "outputs": [
        {
          "internalType": "contract IERC20",
          "name": "",
          "type": "address"
        }
      ],
      "stateMutability": "view",
      "type": "function"
    },
    {
      "inputs": [
        {
          "internalType": "uint256",
          "name": "_proposalId",
          "type": "uint256"
        }
      ],
      "name": "cancelProposal",
      "outputs": [],
      "stateMutability": "nonpayable",
      "type": "function"
    },
    {
      "inputs": [
        {
          "internalType": "uint256",
          "name": "_strategyId",
          "type": "uint256"
        },
        {
          "internalType": "uint256",
          "name": "_amount",
          "type": "uint256"
        },
        {
          "internalType": "uint256",
          "name": "votingPeriodMinutes",
          "type": "uint256"
        },
        {
          "internalType": "string",
          "name": "_title",
          "type": "string"
        },
        {
          "internalType": "string",
          "name": "_description",
          "type": "string"
        }
      ],
      "name": "createProposal",
      "outputs": [
        {
          "internalType": "uint256",
          "name": "",
          "type": "uint256"
        }
      ],
      "stateMutability": "nonpayable",
      "type": "function"
    },
    {
      "inputs": [],
      "name": "decimals",
      "outputs": [
        {
          "internalType": "uint8",
          "name": "",
          "type": "uint8"
        }
      ],
      "stateMutability": "view",
      "type": "function"
    },
    {
      "inputs": [
        {
          "internalType": "uint256",
          "name": "_amount",
          "type": "uint256"
        }
      ],
      "name": "deposit",
      "outputs": [],
      "stateMutability": "nonpayable",
      "type": "function"
    },
    {
      "inputs": [
        {
          "internalType": "address",
          "name": "",
          "type": "address"
        }
      ],
      "name": "deposited",
      "outputs": [
        {
          "internalType": "uint256",
          "name": "",
          "type": "uint256"
        }
      ],
      "stateMutability": "view",
      "type": "function"
    },
    {
      "inputs": [
        {
          "internalType": "uint256",
          "name": "_proposalId",
          "type": "uint256"
        }
      ],
      "name": "executeProposal",
      "outputs": [],
      "stateMutability": "nonpayable",
      "type": "function"
    },
    {
      "inputs": [],
      "name": "feeCollected",
      "outputs": [
        {
          "internalType": "uint256",
          "name": "",
          "type": "uint256"
        }
      ],
      "stateMutability": "view",
      "type": "function"
    },
    {
      "inputs": [
        {
          "internalType": "uint256",
          "name": "_proposalId",
          "type": "uint256"
        }
      ],
      "name": "finalizeCancelVote",
      "outputs": [],
      "stateMutability": "nonpayable",
      "type": "function"
    },
    {
      "inputs": [
        {
          "internalType": "uint256",
          "name": "_proposalId",
          "type": "uint256"
        }
      ],
      "name": "finalizeProposal",
      "outputs": [],
      "stateMutability": "nonpayable",
      "type": "function"
    },
    {
      "inputs": [
        {
          "internalType": "uint256",
          "name": "_proposalId",
          "type": "uint256"
        }
      ],
      "name": "getProposal",
      "outputs": [
        {
          "internalType": "uint256",
          "name": "id",
          "type": "uint256"
        },
        {
          "internalType": "address",
          "name": "proposer",
          "type": "address"
        },
        {
          "internalType": "uint256",
          "name": "strategyId",
          "type": "uint256"
        },
        {
          "internalType": "uint256",
          "name": "amount",
          "type": "uint256"
        },
        {
          "internalType": "uint256",
          "name": "forVotes",
          "type": "uint256"
        },
        {
          "internalType": "uint256",
          "name": "againstVotes",
          "type": "uint256"
        },
        {
          "internalType": "uint256",
          "name": "startTimestamp",
          "type": "uint256"
        },
        {
          "internalType": "uint256",
          "name": "endTimestamp",
          "type": "uint256"
        },
        {
          "internalType": "uint256",
          "name": "votingPeriodMinutes",
          "type": "uint256"
        },
        {
          "internalType": "enum InvestmentPool.ProposalState",
          "name": "state",
          "type": "uint8"
        },
        {
          "internalType": "string",
          "name": "description",
          "type": "string"
        },
        {
          "internalType": "string",
          "name": "title",
          "type": "string"
        }
      ],
      "stateMutability": "view",
      "type": "function"
    },
    {
      "inputs": [
        {
          "internalType": "uint256",
          "name": "_proposalId",
          "type": "uint256"
        },
        {
          "internalType": "address",
          "name": "_user",
          "type": "address"
        }
      ],
      "name": "getProposalCancel",
      "outputs": [
        {
          "internalType": "uint256",
          "name": "cancelForVotes",
          "type": "uint256"
        },
        {
          "internalType": "uint256",
          "name": "cancelAgainstVotes",
          "type": "uint256"
        },
        {
          "internalType": "bool",
          "name": "cancelActive",
          "type": "bool"
        },
        {
          "internalType": "uint256",
          "name": "cancelStartTimestamp",
          "type": "uint256"
        },
        {
          "internalType": "uint256",
          "name": "cancelEndTimestamp",
          "type": "uint256"
        },
        {
          "internalType": "bool",
          "name": "votedCancel",
          "type": "bool"
        }
      ],
      "stateMutability": "view",
      "type": "function"
    },
    {
      "inputs": [
        {
          "internalType": "bytes32",
          "name": "role",
          "type": "bytes32"
        }
      ],
      "name": "getRoleAdmin",
      "outputs": [
        {
          "internalType": "bytes32",
          "name": "",
          "type": "bytes32"
        }
      ],
      "stateMutability": "view",
      "type": "function"
    },
    {
      "inputs": [
        {
          "internalType": "uint256",
          "name": "_strategyId",
          "type": "uint256"
        }
      ],
      "name": "getStrategy",
      "outputs": [
        {
          "internalType": "address",
          "name": "strategy",
          "type": "address"
        },
        {
          "internalType": "bool",
          "name": "active",
          "type": "bool"
        },
        {
          "internalType": "uint256",
          "name": "balance",
          "type": "uint256"
        },
        {
          "internalType": "string",
          "name": "name",
          "type": "string"
        },
        {
          "internalType": "string",
          "name": "description",
          "type": "string"
        }
      ],
      "stateMutability": "view",
      "type": "function"
    },
    {
      "inputs": [],
      "name": "getWithdrawalFeePercent",
      "outputs": [
        {
          "internalType": "uint256",
          "name": "",
          "type": "uint256"
        }
      ],
      "stateMutability": "view",
      "type": "function"
    },
    {
      "inputs": [
        {
          "internalType": "bytes32",
          "name": "role",
          "type": "bytes32"
        },
        {
          "internalType": "address",
          "name": "account",
          "type": "address"
        }
      ],
      "name": "grantRole",
      "outputs": [],
      "stateMutability": "nonpayable",
      "type": "function"
    },
    {
      "inputs": [
        {
          "internalType": "bytes32",
          "name": "role",
          "type": "bytes32"
        },
        {
          "internalType": "address",
          "name": "account",
          "type": "address"
        }
      ],
      "name": "hasRole",
      "outputs": [
        {
          "internalType": "bool",
          "name": "",
          "type": "bool"
        }
      ],
      "stateMutability": "view",
      "type": "function"
    },
    {
      "inputs": [
        {
          "internalType": "uint256",
          "name": "_proposalId",
          "type": "uint256"
        },
        {
          "internalType": "address",
          "name": "_user",
          "type": "address"
        }
      ],
      "name": "hasVoted",
      "outputs": [
        {
          "internalType": "bool",
          "name": "",
          "type": "bool"
        }
      ],
      "stateMutability": "view",
      "type": "function"
    },
    {
      "inputs": [],
      "name": "name",
      "outputs": [
        {
          "internalType": "string",
          "name": "",
          "type": "string"
        }
      ],
      "stateMutability": "view",
      "type": "function"
    },
    {
      "inputs": [],
      "name": "proposalCount",
      "outputs": [
        {
          "internalType": "uint256",
          "name": "",
          "type": "uint256"
        }
      ],
      "stateMutability": "view",
      "type": "function"
    },
    {
      "inputs": [
        {
          "internalType": "uint256",
          "name": "_shares",
          "type": "uint256"
        }
      ],
      "name": "randeem",
      "outputs": [],
      "stateMutability": "nonpayable",
      "type": "function"
    },
    {
      "inputs": [
        {
          "internalType": "bytes32",
          "name": "role",
          "type": "bytes32"
        },
        {
          "internalType": "address",
          "name": "callerConfirmation",
          "type": "address"
        }
      ],
      "name": "renounceRole",
      "outputs": [],
      "stateMutability": "nonpayable",
      "type": "function"
    },
    {
      "inputs": [
        {
          "internalType": "bytes32",
          "name": "role",
          "type": "bytes32"
        },
        {
          "internalType": "address",
          "name": "account",
          "type": "address"
        }
      ],
      "name": "revokeRole",
      "outputs": [],
      "stateMutability": "nonpayable",
      "type": "function"
    },
    {
      "inputs": [
        {
          "internalType": "uint256",
          "name": "_percent",
          "type": "uint256"
        }
      ],
      "name": "setWithdrawalFeePercent",
      "outputs": [],
      "stateMutability": "nonpayable",
      "type": "function"
    },
    {
      "inputs": [
        {
          "internalType": "uint256",
          "name": "_proposalId",
          "type": "uint256"
        },
        {
          "internalType": "uint256",
          "name": "votingPeriodMinutes",
          "type": "uint256"
        }
      ],
      "name": "startCancelVoting",
      "outputs": [],
      "stateMutability": "nonpayable",
      "type": "function"
    },
    {
      "inputs": [
        {
          "internalType": "uint256",
          "name": "",
          "type": "uint256"
        }
      ],
      "name": "strategies",
      "outputs": [
        {
          "internalType": "address",
          "name": "strategy",
          "type": "address"
        },
        {
          "internalType": "bool",
          "name": "active",
          "type": "bool"
        },
        {
          "internalType": "string",
          "name": "description",
          "type": "string"
        }
      ],
      "stateMutability": "view",
      "type": "function"
    },
    {
      "inputs": [],
      "name": "strategyCount",
      "outputs": [
        {
          "internalType": "uint256",
          "name": "",
          "type": "uint256"
        }
      ],
      "stateMutability": "view",
      "type": "function"
    },
    {
      "inputs": [
        {
          "internalType": "bytes4",
          "name": "interfaceId",
          "type": "bytes4"
        }
      ],
      "name": "supportsInterface",
      "outputs": [
        {
          "internalType": "bool",
          "name": "",
          "type": "bool"
        }
      ],
      "stateMutability": "view",
      "type": "function"
    },
    {
      "inputs": [],
      "name": "symbol",
      "outputs": [
        {
          "internalType": "string",
          "name": "",
          "type": "string"
        }
      ],
      "stateMutability": "view",
      "type": "function"
    },
    {
      "inputs": [
        {
          "internalType": "uint256",
          "name": "_strategyId",
          "type": "uint256"
        },
        {
          "internalType": "bool",
          "name": "_active",
          "type": "bool"
        }
      ],
      "name": "toggleStrategy",
      "outputs": [],
      "stateMutability": "nonpayable",
      "type": "function"
    },
    {
      "inputs": [],
      "name": "totalAssets",
      "outputs": [
        {
          "internalType": "uint256",
          "name": "",
          "type": "uint256"
        }
      ],
      "stateMutability": "view",
      "type": "function"
    },
    {
      "inputs": [],
      "name": "totalLockedInStrategies",
      "outputs": [
        {
          "internalType": "uint256",
          "name": "",
          "type": "uint256"
        }
      ],
      "stateMutability": "view",
      "type": "function"
    },
    {
      "inputs": [],
      "name": "totalSupply",
      "outputs": [
        {
          "internalType": "uint256",
          "name": "",
          "type": "uint256"
        }
      ],
      "stateMutability": "view",
      "type": "function"
    },
    {
      "inputs": [
        {
          "internalType": "address",
          "name": "to",
          "type": "address"
        },
        {
          "internalType": "uint256",
          "name": "value",
          "type": "uint256"
        }
      ],
      "name": "transfer",
      "outputs": [
        {
          "internalType": "bool",
          "name": "",
          "type": "bool"
        }
      ],
      "stateMutability": "nonpayable",
      "type": "function"
    },
    {
      "inputs": [
        {
          "internalType": "address",
          "name": "from",
          "type": "address"
        },
        {
          "internalType": "address",
          "name": "to",
          "type": "address"
        },
        {
          "internalType": "uint256",
          "name": "value",
          "type": "uint256"
        }
      ],
      "name": "transferFrom",
      "outputs": [
        {
          "internalType": "bool",
          "name": "",
          "type": "bool"
        }
      ],
      "stateMutability": "nonpayable",
      "type": "function"
    },
    {
      "inputs": [
        {
          "internalType": "uint256",
          "name": "_proposalId",
          "type": "uint256"
        },
        {
          "internalType": "bool",
          "name": "support",
          "type": "bool"
        }
      ],
      "name": "vote",
      "outputs": [],
      "stateMutability": "nonpayable",
      "type": "function"
    },
    {
      "inputs": [
        {
          "internalType": "uint256",
          "name": "_proposalId",
          "type": "uint256"
        },
        {
          "internalType": "bool",
          "name": "support",
          "type": "bool"
        }
      ],
      "name": "voteCancel",
      "outputs": [],
      "stateMutability": "nonpayable",
      "type": "function"
    },
    {
      "inputs": [
        {
          "internalType": "uint256",
          "name": "amount",
          "type": "uint256"
        }
      ],
      "name": "withdrawCollectedFees",
      "outputs": [],
      "stateMutability": "nonpayable",
      "type": "function"
    },
    {
      "inputs": [
        {
          "internalType": "uint256",
          "name": "_proposalId",
          "type": "uint256"
        }
      ],
      "name": "withdrawFromProposal",
      "outputs": [],
      "stateMutability": "nonpayable",
      "type": "function"
    },
    {
      "inputs": [],
      "name": "withdrawalFeePercent",
      "outputs": [
        {
          "internalType": "uint256",
          "name": "",
          "type": "uint256"
        }
      ],
      "stateMutability": "view",
      "type": "function"
    }
  ],
  "bytecode": "0x60a0604052600a60095534801561001557600080fd5b506040516147fe3803806147fe833981016040819052610034916101eb565b6040518060400160405280601581526020017f496e766573746d656e7420506f6f6c20536861726500000000000000000000008152506040518060400160405280600381526020016249505360e81b815250816003908161009591906102ba565b5060046100a282826102ba565b50506001600555506001600160a01b0381166100f15760405162461bcd60e51b815260206004820152600a6024820152693d32b937903a37b5b2b760b11b604482015260640160405180910390fd5b6001600160a01b03811660805261010960003361013b565b506101347fa49807205ce4d355092ef5a8a18f56e8913cf4a201fbe287825b095693c217753361013b565b5050610378565b60008281526006602090815260408083206001600160a01b038516845290915281205460ff166101e15760008381526006602090815260408083206001600160a01b03861684529091529020805460ff191660011790556101993390565b6001600160a01b0316826001600160a01b0316847f2f8788117e7eff1d82e926ec794901d17c78024a50270940304540a733656f0d60405160405180910390a45060016101e5565b5060005b92915050565b6000602082840312156101fd57600080fd5b81516001600160a01b038116811461021457600080fd5b9392505050565b634e487b7160e01b600052604160045260246000fd5b600181811c9082168061024557607f821691505b60208210810361026557634e487b7160e01b600052602260045260246000fd5b50919050565b601f8211156102b557806000526020600020601f840160051c810160208510156102925750805b601f840160051c820191505b818110156102b2576000815560010161029e565b50505b505050565b81516001600160401b038111156102d3576102d361021b565b6102e7816102e18454610231565b8461026b565b6020601f82116001811461031b57600083156103035750848201515b600019600385901b1c1916600184901b1784556102b2565b600084815260208120601f198516915b8281101561034b578785015182556020948501946001909201910161032b565b50848210156103695786840151600019600387901b60f8161c191681555b50505050600190811b01905550565b6080516144256103d9600039600081816105fc015281816108ac0152818161110a015281816112950152818161132c015281816113ea01528181611aab01528181611f1b015281816121720152818161232b015261242101526144256000f3fe608060405234801561001057600080fd5b50600436106103095760003560e01c80637cb9b5441161019c578063c55dae63116100ee578063d574ea3d11610097578063dd62ed3e11610071578063dd62ed3e14610709578063e0a8f6f514610742578063e3ecf59f1461075557600080fd5b8063d574ea3d146106cb578063da35c664146106ed578063dc3e5695146106f657600080fd5b8063cb13cddb116100c8578063cb13cddb14610674578063cfc0cc3414610694578063d547741f146106b857600080fd5b8063c55dae63146105f7578063c7f758a814610636578063c9d27afe1461066157600080fd5b80639b2f288c11610150578063a217fddf1161012a578063a217fddf146105c9578063a9059cbb146105d1578063b6b55f25146105e457600080fd5b80639b2f288c146105a45780639e38c2e7146105b7578063a0499b3b146105c057600080fd5b8063913c26f311610181578063913c26f31461055057806391d148541461056357806395d89b411461059c57600080fd5b80637cb9b544146104f55780637d5a177a1461050857600080fd5b8063248a9ca3116102605780634bf3a02a116102095780636ed785ff116101e35780636ed785ff1461049257806370a08231146104a557806375b238fc146104ce57600080fd5b80634bf3a02a146104635780635652077c146104765780636ca7f95c1461048957600080fd5b8063313ce5671161023a578063313ce5671461042e57806336568abe1461043d578063438596321461045057600080fd5b8063248a9ca3146103e55780632f2ff15d146104085780632f94dfa31461041b57600080fd5b806306fdde03116102c257806318160ddd1161029c57806318160ddd146103c257806322068b44146103ca57806323b872dd146103d257600080fd5b806306fdde0314610387578063095ea7b31461039c5780630d61b519146103af57600080fd5b806301e6de42116102f357806301e6de421461033e57806301ffc9a714610351578063052ec8601461037457600080fd5b806221bc371461030e57806301e1d11414610323575b600080fd5b61032161031c366004613b81565b61075d565b005b61032b61088a565b6040519081526020015b60405180910390f35b61032b61034c366004613bfa565b610a2d565b61036461035f366004613c8c565b610d13565b6040519015158152602001610335565b610321610382366004613cd5565b610dac565b61038f610f32565b6040516103359190613d3e565b6103646103aa366004613d6d565b610fc4565b6103216103bd366004613cd5565b610fdc565b60025461032b565b600c5461032b565b6103646103e0366004613d97565b6114bf565b61032b6103f3366004613cd5565b60009081526006602052604090206001015490565b610321610416366004613dd4565b6114e3565b610321610429366004613cd5565b61150e565b60405160128152602001610335565b61032161044b366004613dd4565b61157f565b61036461045e366004613dd4565b6115d0565b610321610471366004613e00565b611617565b610321610484366004613cd5565b611841565b61032b600a5481565b6103216104a0366004613cd5565b6119bd565b61032b6104b3366004613e22565b6001600160a01b031660009081526020819052604090205490565b61032b7fa49807205ce4d355092ef5a8a18f56e8913cf4a201fbe287825b095693c2177581565b610321610503366004613eac565b611ad6565b61051b610516366004613dd4565b611c70565b6040805196875260208701959095529215159385019390935260608401526080830191909152151560a082015260c001610335565b61032161055e366004613cd5565b611d35565b610364610571366004613dd4565b60009182526006602090815260408084206001600160a01b0393909316845291905290205460ff1690565b61038f611db6565b6103216105b2366004613cd5565b611dc5565b61032b60075481565b61032b60095481565b61032b600081565b6103646105df366004613d6d565b6123a2565b6103216105f2366004613cd5565b6123b0565b61061e7f000000000000000000000000000000000000000000000000000000000000000081565b6040516001600160a01b039091168152602001610335565b610649610644366004613cd5565b61254d565b6040516103359c9b9a99989796959493929190613f53565b61032161066f366004613b81565b612751565b61032b610682366004613e22565b600b6020526000908152604090205481565b6106a76106a2366004613cd5565b6129cf565b604051610335959493929190613ff4565b6103216106c6366004613dd4565b612bf1565b6106de6106d9366004613cd5565b612c16565b60405161033593929190614042565b61032b60085481565b610321610704366004613b81565b612ce3565b61032b610717366004614075565b6001600160a01b03918216600090815260016020908152604080832093909416825291909152205490565b610321610750366004613cd5565b612f37565b60095461032b565b7fa49807205ce4d355092ef5a8a18f56e8913cf4a201fbe287825b095693c217756107878161305a565b600c5483106107dd5760405162461bcd60e51b815260206004820152600a60248201527f496e76616c69642069640000000000000000000000000000000000000000000060448201526064015b60405180910390fd5b81600c84815481106107f1576107f161409f565b906000526020600020906002020160000160146101000a81548160ff021916908315150217905550827f8b5f2c4ceef0d3cbbd60bbd304f81d421b33f88ce4dab1cdc290a2f5eace86b8600c858154811061084e5761084e61409f565b600091825260209182902060029091020154604080516001600160a01b03909216825286151592820192909252015b60405180910390a2505050565b6040516370a0823160e01b815230600482015260009081906001600160a01b037f000000000000000000000000000000000000000000000000000000000000000016906370a0823190602401602060405180830381865afa1580156108f3573d6000803e3d6000fd5b505050506040513d601f19601f8201168201806040525081019061091791906140b5565b90506000600a54821061093857600a5461093190836140e4565b915061093d565b600091505b60005b600c54811015610a1b57600c818154811061095d5761095d61409f565b6000918252602090912060029091020154600160a01b900460ff1615610a1357600c81815481106109905761099061409f565b60009182526020918290206002909102015460408051629032ff60e51b815290516001600160a01b03909216926312065fe0926004808401938290030181865afa1580156109e2573d6000803e3d6000fd5b505050506040513d601f19601f82011682018060405250810190610a0691906140b5565b610a1090836140f7565b91505b600101610940565b50610a2681836140f7565b9250505090565b336000908152602081905260408120548110610a8b5760405162461bcd60e51b815260206004820152601660248201527f4e6565642073686172657320746f2070726f706f73650000000000000000000060448201526064016107d4565b600c548810610adc5760405162461bcd60e51b815260206004820152601060248201527f496e76616c69642073747261746567790000000000000000000000000000000060448201526064016107d4565b600c8881548110610aef57610aef61409f565b6000918252602090912060029091020154600160a01b900460ff16610b565760405162461bcd60e51b815260206004820152601160248201527f496e61637469766520737472617465677900000000000000000000000000000060448201526064016107d4565b60008711610ba65760405162461bcd60e51b815260206004820152600e60248201527f496e76616c696420616d6f756e7400000000000000000000000000000000000060448201526064016107d4565b60008611610bf65760405162461bcd60e51b815260206004820152601960248201527f566f74696e6720706572696f64206d757374206265203e20300000000000000060448201526064016107d4565b60088054906000610c068361410a565b90915550506008546000818152600d602052604090208181556001810180547fffffffffffffffffffffffff00000000000000000000000000000000000000001633179055600281018a905560038101899055426006820155610c6a88603c614124565b610c7490426140f7565b6007820155600b810188905560088101805460ff1916905560098101610c9b8587836141c3565b50600a8101610cab8789836141c3565b506006810154600782015460408051338152602081018e90529081018c90526060810192909252608082015282907f8b6db1e8bf2f36cfa26dc90b4a539c5280a8531c988f1734450a6d919c6569a09060a00160405180910390a25098975050505050505050565b60007fffffffff0000000000000000000000000000000000000000000000000000000082167f7965db0b000000000000000000000000000000000000000000000000000000001480610da657507f01ffc9a7000000000000000000000000000000000000000000000000000000007fffffffff000000000000000000000000000000000000000000000000000000008316145b92915050565b6000818152600d602052604081208054909103610dfe5760405162461bcd60e51b815260206004820152601060248201526f125b9d985b1a59081c1c9bdc1bdcd85b60821b60448201526064016107d4565b600f81015460ff16610e525760405162461bcd60e51b815260206004820152601660248201527f43616e63656c20766f7465206e6f74206163746976650000000000000000000060448201526064016107d4565b80601101544211610ea55760405162461bcd60e51b815260206004820152601760248201527f43616e63656c20766f74696e67206e6f7420656e64656400000000000000000060448201526064016107d4565b6000610eb060025490565b90506000610ebf600a83614283565b905080600003610ecd575060015b82600e015483600d0154118015610ee857508083600d015410155b15610f2257610ef684613064565b60405184907f5789c4d658fb6af71484e63ce8b8e730acb07e6020a729da2d041a229008bd9690600090a25b5050600f01805460ff1916905550565b606060038054610f419061413b565b80601f0160208091040260200160405190810160405280929190818152602001828054610f6d9061413b565b8015610fba5780601f10610f8f57610100808354040283529160200191610fba565b820191906000526020600020905b815481529060010190602001808311610f9d57829003601f168201915b5050505050905090565b600033610fd28185856132a7565b5060019392505050565b610fe46132b4565b6000818152600d6020526040812080549091036110365760405162461bcd60e51b815260206004820152601060248201526f125b9d985b1a59081c1c9bdc1bdcd85b60821b60448201526064016107d4565b6002600882015460ff16600481111561105157611051613f3d565b1461109e5760405162461bcd60e51b815260206004820152601660248201527f50726f706f73616c206e6f74207375636365656465640000000000000000000060448201526064016107d4565b60008160030154116110f25760405162461bcd60e51b815260206004820152600b60248201527f5a65726f20616d6f756e7400000000000000000000000000000000000000000060448201526064016107d4565b6040516370a0823160e01b81523060048201526000907f00000000000000000000000000000000000000000000000000000000000000006001600160a01b0316906370a0823190602401602060405180830381865afa158015611159573d6000803e3d6000fd5b505050506040513d601f19601f8201168201806040525081019061117d91906140b5565b90508160030154670de0b6b3a76400006111979190614124565b8110156111e65760405162461bcd60e51b815260206004820152601260248201527f496e73756666696369656e742066756e6473000000000000000000000000000060448201526064016107d4565b6000600c8360020154815481106111ff576111ff61409f565b600091825260209091206002909102018054909150600160a01b900460ff1661126a5760405162461bcd60e51b815260206004820152601360248201527f5374726174656779206e6f74206163746976650000000000000000000000000060448201526064016107d4565b805460405163095ea7b360e01b81526001600160a01b039182166004820181905260006024830152917f0000000000000000000000000000000000000000000000000000000000000000169063095ea7b3906044016020604051808303816000875af11580156112de573d6000803e3d6000fd5b505050506040513d601f19601f8201168201806040525081019061130291906142a5565b5060008460030154670de0b6b3a764000061131d9190614124565b90506113536001600160a01b037f00000000000000000000000000000000000000000000000000000000000000001683836132f7565b6040517fb6b55f25000000000000000000000000000000000000000000000000000000008152600481018290526001600160a01b0383169063b6b55f2590602401600060405180830381600087803b1580156113ae57600080fd5b505af11580156113c2573d6000803e3d6000fd5b505060405163095ea7b360e01b81526001600160a01b038581166004830152600060248301527f000000000000000000000000000000000000000000000000000000000000000016925063095ea7b391506044016020604051808303816000875af1158015611435573d6000803e3d6000fd5b505050506040513d601f19601f8201168201806040525081019061145991906142a5565b5060088501805460ff19166003179055604080516001600160a01b03841681526020810183905287917f3b7c90df35b419337cff0919fe91849006607bb66c4373623f06f9d48c1ebb98910160405180910390a250505050506114bc6001600555565b50565b6000336114cd85828561339a565b6114d885858561342c565b506001949350505050565b6000828152600660205260409020600101546114fe8161305a565b61150883836134bd565b50505050565b6115166132b4565b7fa49807205ce4d355092ef5a8a18f56e8913cf4a201fbe287825b095693c217756115408161305a565b61154982613064565b60405182907f416e669c63d9a3a5e36ee7cc7e2104b8db28ccd286aa18966e98fa230c73b08c90600090a2506114bc6001600555565b6001600160a01b03811633146115c1576040517f6697b23200000000000000000000000000000000000000000000000000000000815260040160405180910390fd5b6115cb828261356b565b505050565b6000828152600d60205260408120805482036115f0576000915050610da6565b6001600160a01b0383166000908152600c909101602052604090205460ff16905092915050565b6000828152600d60209081526040808320338452918390528220549091106116815760405162461bcd60e51b815260206004820152600b60248201527f4e6565642073686172657300000000000000000000000000000000000000000060448201526064016107d4565b80546000036116c55760405162461bcd60e51b815260206004820152601060248201526f125b9d985b1a59081c1c9bdc1bdcd85b60821b60448201526064016107d4565b6003600882015460ff1660048111156116e0576116e0613f3d565b1461172d5760405162461bcd60e51b815260206004820152600a60248201527f4e6f74206163746976650000000000000000000000000000000000000000000060448201526064016107d4565b600f81015460ff16156117825760405162461bcd60e51b815260206004820152601a60248201527f43616e63656c20766f746520616c72656164792061637469766500000000000060448201526064016107d4565b600082116117d25760405162461bcd60e51b815260206004820152600e60248201527f496e76616c696420706572696f6400000000000000000000000000000000000060448201526064016107d4565b600f8101805460ff191660011790554260108201556117f282603c614124565b6117fc90426140f7565b60118201819055601082015460408051918252602082019290925284917fe2e6212a456d1e02f2fd537bf9469c888678037bff8522bc23cf5cf01020a168910161087d565b6000818152600d6020526040812080549091036118935760405162461bcd60e51b815260206004820152601060248201526f125b9d985b1a59081c1c9bdc1bdcd85b60821b60448201526064016107d4565b6000600882015460ff1660048111156118ae576118ae613f3d565b146118fb5760405162461bcd60e51b815260206004820152601660248201527f50726f706f73616c206973206e6f74206163746976650000000000000000000060448201526064016107d4565b8060070154421161194e5760405162461bcd60e51b815260206004820152601060248201527f566f74696e67206e6f7420656e6465640000000000000000000000000000000060448201526064016107d4565b600061195960025490565b90506000611968600a83614283565b905080600003611976575060015b82600501548360040154118015611991575080836004015410155b156119aa5760088301805460ff19166002179055611508565b5050600801805460ff1916600117905550565b7fa49807205ce4d355092ef5a8a18f56e8913cf4a201fbe287825b095693c217756119e78161305a565b33611a345760405162461bcd60e51b815260206004820152600f60248201527f496e76616c69642061646472657373000000000000000000000000000000000060448201526064016107d4565b600a54821115611a865760405162461bcd60e51b815260206004820152600f60248201527f4e6f7420656e6f7567682066656573000000000000000000000000000000000060448201526064016107d4565b81600a6000828254611a9891906140e4565b90915550611ad290506001600160a01b037f00000000000000000000000000000000000000000000000000000000000000001633846135f2565b5050565b7fa49807205ce4d355092ef5a8a18f56e8913cf4a201fbe287825b095693c21775611b008161305a565b6001600160a01b038316611b565760405162461bcd60e51b815260206004820152601060248201527f496e76616c69642073747261746567790000000000000000000000000000000060448201526064016107d4565b604080516060810182526001600160a01b038086168252600160208301818152938301868152600c80549283018155600052835160029092027fdf6966c971051c3d54ec59162606531493a51404a002842f56009d7e5cf4a8c78101805496511515600160a01b027fffffffffffffffffffffff00000000000000000000000000000000000000000090971693909416929092179490941782559251919290917fdf6966c971051c3d54ec59162606531493a51404a002842f56009d7e5cf4a8c890910190611c2590826142c2565b5050600c54611c3791506001906140e4565b6040516001600160a01b03851681527f1f967990e6274c3926058ddfc32b6d36f1ba6e914cc98ad1fe7d5d55ac05d16e9060200161087d565b6000828152600d60205260408120805482918291829182918291908203611ccc5760405162461bcd60e51b815260206004820152601060248201526f125b9d985b1a59081c1c9bdc1bdcd85b60821b60448201526064016107d4565b600d810154600e820154600f83015460108401546011850154939a5091985060ff169650945092506001600160a01b038816611d09576000611d28565b6001600160a01b038816600090815260128201602052604090205460ff165b9150509295509295509295565b7fa49807205ce4d355092ef5a8a18f56e8913cf4a201fbe287825b095693c21775611d5f8161305a565b6064821115611db05760405162461bcd60e51b815260206004820152601660248201527f4665652063616e6e6f742065786365656420313030250000000000000000000060448201526064016107d4565b50600955565b606060048054610f419061413b565b611dcd6132b4565b60008111611e1d5760405162461bcd60e51b815260206004820152601160248201527f4e6f7468696e6720746f2072656465656d00000000000000000000000000000060448201526064016107d4565b33600090815260208190526040902054811115611e7c5760405162461bcd60e51b815260206004820152601160248201527f4e6f7420656e6f7567682073686172657300000000000000000000000000000060448201526064016107d4565b6000611e8760025490565b905060008111611ed95760405162461bcd60e51b815260206004820152600960248201527f4e6f20737570706c79000000000000000000000000000000000000000000000060448201526064016107d4565b600081611ee461088a565b611eee9085614124565b611ef89190614283565b6040516370a0823160e01b81523060048201529091506000906001600160a01b037f000000000000000000000000000000000000000000000000000000000000000016906370a0823190602401602060405180830381865afa158015611f62573d6000803e3d6000fd5b505050506040513d601f19601f82011682018060405250810190611f8691906140b5565b9050600a54811115611fa657600a54611f9f90826140e4565b9050611faa565b5060005b8181101561215a576000611fbe82846140e4565b905060005b600c5481108015611fd45750600082115b1561215757600c8181548110611fec57611fec61409f565b6000918252602090912060029091020154600160a01b900460ff1615612145576000600c82815481106120215761202161409f565b6000918252602080832060029092029091015460408051629032ff60e51b815290516001600160a01b03909216945084926312065fe0926004808401938290030181865afa158015612077573d6000803e3d6000fd5b505050506040513d601f19601f8201168201806040525081019061209b91906140b5565b9050806000036120ac575050612145565b60008482116120bb57816120bd565b845b6040517f2e1a7d4d000000000000000000000000000000000000000000000000000000008152600481018290529091506001600160a01b03841690632e1a7d4d90602401600060405180830381600087803b15801561211b57600080fd5b505af115801561212f573d6000803e3d6000fd5b50505050808561213f91906140e4565b94505050505b8061214f8161410a565b915050611fc3565b50505b6040516370a0823160e01b81523060048201526000907f00000000000000000000000000000000000000000000000000000000000000006001600160a01b0316906370a0823190602401602060405180830381865afa1580156121c1573d6000803e3d6000fd5b505050506040513d601f19601f820116820180604052508101906121e591906140b5565b9050600a5481111561220557600a546121fe90826140e4565b9050612209565b5060005b6000818411612218578361221a565b815b90506000811161226c5760405162461bcd60e51b815260206004820152601660248201527f496e73756666696369656e74206c69717569646974790000000000000000000060448201526064016107d4565b3360009081526020818152604080832054600b9092528220549091826122928a84614124565b61229c9190614283565b9050600080828611156122e9576122b383876140e4565b91506064600954836122c59190614124565b6122cf9190614283565b905080600a60008282546122e391906140f7565b90915550505b60006122f582886140e4565b905061230184866140e4565b336000818152600b602052604090209190915561231e908d613666565b6123526001600160a01b037f00000000000000000000000000000000000000000000000000000000000000001633836135f2565b604080518d81526020810183905233917fe5b754fb1abb7f01b499791d0b820ae3b6af3424ac1c59768edb53f4ec31a929910160405180910390a250505050505050505050506114bc6001600555565b600033610fd281858561342c565b6123b86132b4565b600081116124085760405162461bcd60e51b815260206004820152601260248201527f4e6f7468696e6720746f206465706f736974000000000000000000000000000060448201526064016107d4565b600061241261088a565b90506124496001600160a01b037f0000000000000000000000000000000000000000000000000000000000000000163330856136b5565b60008061245560025490565b9050801580612462575082155b1561246f57839150612487565b8261247a8286614124565b6124849190614283565b91505b600082116124d75760405162461bcd60e51b815260206004820152600b60248201527f5a65726f2073686172657300000000000000000000000000000000000000000060448201526064016107d4565b6124e133836136ee565b336000908152600b6020526040812080548692906125009084906140f7565b9091555050604080518581526020810184905233917f90890809c654f11d6e72a28fa60149770a0d11ec6c92319d6ceb2bb0a4ea1a15910160405180910390a25050506114bc6001600555565b6000806000806000806000806000806060806000600d60008f8152602001908152602001600020905080600001546000036125bd5760405162461bcd60e51b815260206004820152601060248201526f125b9d985b1a59081c1c9bdc1bdcd85b60821b60448201526064016107d4565b80600001549c508060010160009054906101000a90046001600160a01b03169b5080600201549a50806003015499508060040154985080600501549750806006015496508060070154955080600b015494508060080160009054906101000a900460ff1693508060090180546126329061413b565b80601f016020809104026020016040519081016040528092919081815260200182805461265e9061413b565b80156126ab5780601f10612680576101008083540402835291602001916126ab565b820191906000526020600020905b81548152906001019060200180831161268e57829003601f168201915b5050505050925080600a0180546126c19061413b565b80601f01602080910402602001604051908101604052809291908181526020018280546126ed9061413b565b801561273a5780601f1061270f5761010080835404028352916020019161273a565b820191906000526020600020905b81548152906001019060200180831161271d57829003601f168201915b505050505091505091939597999b5091939597999b565b6000828152600d6020526040812080549091036127b05760405162461bcd60e51b815260206004820152601060248201527f4e6f20737563682070726f706f73616c0000000000000000000000000000000060448201526064016107d4565b6000600882015460ff1660048111156127cb576127cb613f3d565b146128185760405162461bcd60e51b815260206004820152601360248201527f50726f706f73616c206e6f74206163746976650000000000000000000000000060448201526064016107d4565b8060070154421061286b5760405162461bcd60e51b815260206004820152600d60248201527f566f74696e6720636c6f7365640000000000000000000000000000000000000060448201526064016107d4565b336000908152600c8201602052604090205460ff16156128cd5760405162461bcd60e51b815260206004820152600d60248201527f416c726561647920766f7465640000000000000000000000000000000000000060448201526064016107d4565b336000908152600c820160209081526040808320805460ff19166001179055908290528120549050600081116129455760405162461bcd60e51b815260206004820152600f60248201527f6e6f20766f74696e6720706f776572000000000000000000000000000000000060448201526064016107d4565b821561296a578082600401600082825461295f91906140f7565b909155506129849050565b8082600501600082825461297e91906140f7565b90915550505b60408051338152841515602082015290810182905284907f7c2de587c00d75474a0c6c6fa96fd3b45dc974cd4e8a75f712bb84c950dce1b5906060015b60405180910390a250505050565b6000806000606080600c805490508610612a2b5760405162461bcd60e51b815260206004820152600a60248201527f496e76616c69642069640000000000000000000000000000000000000000000060448201526064016107d4565b6000600c8781548110612a4057612a4061409f565b600091825260209182902060029190910201805460408051629032ff60e51b815290516001600160a01b0383169a50600160a01b90920460ff16985091935088926312065fe092600480820193918290030181865afa158015612aa7573d6000803e3d6000fd5b505050506040513d601f19601f82011682018060405250810190612acb91906140b5565b8154604080517f06fdde0300000000000000000000000000000000000000000000000000000000815290519296506001600160a01b03909116916306fdde03916004808201926000929091908290030181865afa158015612b30573d6000803e3d6000fd5b505050506040513d6000823e601f3d908101601f19168201604052612b589190810190614381565b8154604080517f7284e41600000000000000000000000000000000000000000000000000000000815290519295506001600160a01b0390911691637284e416916004808201926000929091908290030181865afa158015612bbd573d6000803e3d6000fd5b505050506040513d6000823e601f3d908101601f19168201604052612be59190810190614381565b91505091939590929450565b600082815260066020526040902060010154612c0c8161305a565b611508838361356b565b600c8181548110612c2657600080fd5b6000918252602090912060029091020180546001820180546001600160a01b0383169450600160a01b90920460ff169291612c609061413b565b80601f0160208091040260200160405190810160405280929190818152602001828054612c8c9061413b565b8015612cd95780601f10612cae57610100808354040283529160200191612cd9565b820191906000526020600020905b815481529060010190602001808311612cbc57829003601f168201915b5050505050905083565b6000828152600d602052604081208054909103612d355760405162461bcd60e51b815260206004820152601060248201526f125b9d985b1a59081c1c9bdc1bdcd85b60821b60448201526064016107d4565b600f81015460ff16612d895760405162461bcd60e51b815260206004820152601860248201527f43616e63656c20766f74696e67206e6f7420616374697665000000000000000060448201526064016107d4565b80601101544210612ddc5760405162461bcd60e51b815260206004820152601360248201527f43616e63656c20766f74696e6720656e6465640000000000000000000000000060448201526064016107d4565b33600090815260128201602052604090205460ff1615612e3e5760405162461bcd60e51b815260206004820152601460248201527f416c726561647920766f7465642063616e63656c00000000000000000000000060448201526064016107d4565b3360009081526020819052604090205480612e9b5760405162461bcd60e51b815260206004820152600f60248201527f4e6f20766f74696e6720706f776572000000000000000000000000000000000060448201526064016107d4565b3360009081526012830160205260409020805460ff191660011790558215612edc578082600d016000828254612ed191906140f7565b90915550612ef69050565b8082600e016000828254612ef091906140f7565b90915550505b60408051338152841515602082015290810182905284907f2afa3ec744a2db0716287bbd720599669eba1cddc53520cbcfa1aac2f12ebe4e906060016129c1565b7fa49807205ce4d355092ef5a8a18f56e8913cf4a201fbe287825b095693c21775612f618161305a565b6000828152600d602052604081208054909103612fb35760405162461bcd60e51b815260206004820152601060248201526f125b9d985b1a59081c1c9bdc1bdcd85b60821b60448201526064016107d4565b6000600882015460ff166004811115612fce57612fce613f3d565b1461301b5760405162461bcd60e51b815260206004820152600d60248201527f43616e6e6f742063616e63656c0000000000000000000000000000000000000060448201526064016107d4565b60088101805460ff1916600117905560405183907f416e669c63d9a3a5e36ee7cc7e2104b8db28ccd286aa18966e98fa230c73b08c90600090a2505050565b6114bc813361373d565b6000818152600d602052604090206003600882015460ff16600481111561308d5761308d613f3d565b146130da5760405162461bcd60e51b815260206004820152601560248201527f50726f706f73616c206e6f74206578656375746564000000000000000000000060448201526064016107d4565b6002810154600c5481106131305760405162461bcd60e51b815260206004820152601060248201527f4e6f20737563682073747261746567790000000000000000000000000000000060448201526064016107d4565b6000600c82815481106131455761314561409f565b6000918252602090912060029091020180549091506001600160a01b0316806131b05760405162461bcd60e51b815260206004820152601860248201527f496e76616c69642073747261746567792061646472657373000000000000000060448201526064016107d4565b60008460030154670de0b6b3a76400006131ca9190614124565b90506000811161321c5760405162461bcd60e51b815260206004820152600b60248201527f5a65726f20616d6f756e7400000000000000000000000000000000000000000060448201526064016107d4565b6040517f2e1a7d4d000000000000000000000000000000000000000000000000000000008152600481018290526001600160a01b03831690632e1a7d4d90602401600060405180830381600087803b15801561327757600080fd5b505af115801561328b573d6000803e3d6000fd5b50505050600894909401805460ff191660041790555050505050565b6115cb83838360016137ab565b6002600554036132f0576040517f3ee5aeb500000000000000000000000000000000000000000000000000000000815260040160405180910390fd5b6002600555565b6040517fdd62ed3e0000000000000000000000000000000000000000000000000000000081523060048201526001600160a01b0383811660248301526000919085169063dd62ed3e90604401602060405180830381865afa158015613360573d6000803e3d6000fd5b505050506040513d601f19601f8201168201806040525081019061338491906140b5565b9050611508848461339585856140f7565b6138b2565b6001600160a01b03838116600090815260016020908152604080832093861683529290522054600019811015611508578181101561341d576040517ffb8f41b20000000000000000000000000000000000000000000000000000000081526001600160a01b038416600482015260248101829052604481018390526064016107d4565b611508848484840360006137ab565b6001600160a01b03831661346f576040517f96c6fd1e000000000000000000000000000000000000000000000000000000008152600060048201526024016107d4565b6001600160a01b0382166134b2576040517fec442f05000000000000000000000000000000000000000000000000000000008152600060048201526024016107d4565b6115cb838383613957565b60008281526006602090815260408083206001600160a01b038516845290915281205460ff166135635760008381526006602090815260408083206001600160a01b03861684529091529020805460ff1916600117905561351b3390565b6001600160a01b0316826001600160a01b0316847f2f8788117e7eff1d82e926ec794901d17c78024a50270940304540a733656f0d60405160405180910390a4506001610da6565b506000610da6565b60008281526006602090815260408083206001600160a01b038516845290915281205460ff16156135635760008381526006602090815260408083206001600160a01b0386168085529252808320805460ff1916905551339286917ff6391f5c32d9c69d2a47ea670b442974b53935d1edc7fd64eb21e047a839171b9190a4506001610da6565b6040516001600160a01b038381166024830152604482018390526115cb91859182169063a9059cbb906064015b604051602081830303815290604052915060e01b6020820180517bffffffffffffffffffffffffffffffffffffffffffffffffffffffff8381831617835250505050613a9a565b6001600160a01b0382166136a9576040517f96c6fd1e000000000000000000000000000000000000000000000000000000008152600060048201526024016107d4565b611ad282600083613957565b6040516001600160a01b0384811660248301528381166044830152606482018390526115089186918216906323b872dd9060840161361f565b6001600160a01b038216613731576040517fec442f05000000000000000000000000000000000000000000000000000000008152600060048201526024016107d4565b611ad260008383613957565b60008281526006602090815260408083206001600160a01b038516845290915290205460ff16611ad2576040517fe2517d3f0000000000000000000000000000000000000000000000000000000081526001600160a01b0382166004820152602481018390526044016107d4565b6001600160a01b0384166137ee576040517fe602df05000000000000000000000000000000000000000000000000000000008152600060048201526024016107d4565b6001600160a01b038316613831576040517f94280d62000000000000000000000000000000000000000000000000000000008152600060048201526024016107d4565b6001600160a01b038085166000908152600160209081526040808320938716835292905220829055801561150857826001600160a01b0316846001600160a01b03167f8c5be1e5ebec7d5bd14f71427d1e84f3dd0314c0f7b2291e5b200ac8c7c3b925846040516138a491815260200190565b60405180910390a350505050565b604080516001600160a01b038416602482015260448082018490528251808303909101815260649091019091526020810180517bffffffffffffffffffffffffffffffffffffffffffffffffffffffff1663095ea7b360e01b1790526139188482613b24565b611508576040516001600160a01b0384811660248301526000604483015261394d91869182169063095ea7b39060640161361f565b6115088482613a9a565b6001600160a01b03831661398257806002600082825461397791906140f7565b90915550613a0d9050565b6001600160a01b038316600090815260208190526040902054818110156139ee576040517fe450d38c0000000000000000000000000000000000000000000000000000000081526001600160a01b038516600482015260248101829052604481018390526064016107d4565b6001600160a01b03841660009081526020819052604090209082900390555b6001600160a01b038216613a2957600280548290039055613a48565b6001600160a01b03821660009081526020819052604090208054820190555b816001600160a01b0316836001600160a01b03167fddf252ad1be2c89b69c2b068fc378daa952ba7f163c4a11628f55a4df523b3ef83604051613a8d91815260200190565b60405180910390a3505050565b600080602060008451602086016000885af180613abd576040513d6000823e3d81fd5b50506000513d91508115613ad5578060011415613ae2565b6001600160a01b0384163b155b15611508576040517f5274afe70000000000000000000000000000000000000000000000000000000081526001600160a01b03851660048201526024016107d4565b6000806000806020600086516020880160008a5af192503d91506000519050828015613b6957508115613b5a5780600114613b69565b6000866001600160a01b03163b115b9695505050505050565b80151581146114bc57600080fd5b60008060408385031215613b9457600080fd5b823591506020830135613ba681613b73565b809150509250929050565b60008083601f840112613bc357600080fd5b50813567ffffffffffffffff811115613bdb57600080fd5b602083019150836020828501011115613bf357600080fd5b9250929050565b600080600080600080600060a0888a031215613c1557600080fd5b873596506020880135955060408801359450606088013567ffffffffffffffff811115613c4157600080fd5b613c4d8a828b01613bb1565b909550935050608088013567ffffffffffffffff811115613c6d57600080fd5b613c798a828b01613bb1565b989b979a50959850939692959293505050565b600060208284031215613c9e57600080fd5b81357fffffffff0000000000000000000000000000000000000000000000000000000081168114613cce57600080fd5b9392505050565b600060208284031215613ce757600080fd5b5035919050565b60005b83811015613d09578181015183820152602001613cf1565b50506000910152565b60008151808452613d2a816020860160208601613cee565b601f01601f19169290920160200192915050565b602081526000613cce6020830184613d12565b80356001600160a01b0381168114613d6857600080fd5b919050565b60008060408385031215613d8057600080fd5b613d8983613d51565b946020939093013593505050565b600080600060608486031215613dac57600080fd5b613db584613d51565b9250613dc360208501613d51565b929592945050506040919091013590565b60008060408385031215613de757600080fd5b82359150613df760208401613d51565b90509250929050565b60008060408385031215613e1357600080fd5b50508035926020909101359150565b600060208284031215613e3457600080fd5b613cce82613d51565b634e487b7160e01b600052604160045260246000fd5b604051601f8201601f1916810167ffffffffffffffff81118282101715613e7c57613e7c613e3d565b604052919050565b600067ffffffffffffffff821115613e9e57613e9e613e3d565b50601f01601f191660200190565b60008060408385031215613ebf57600080fd5b613ec883613d51565b9150602083013567ffffffffffffffff811115613ee457600080fd5b8301601f81018513613ef557600080fd5b8035613f08613f0382613e84565b613e53565b818152866020838501011115613f1d57600080fd5b816020840160208301376000602083830101528093505050509250929050565b634e487b7160e01b600052602160045260246000fd5b8c81526001600160a01b038c1660208201528a60408201528960608201528860808201528760a08201528660c08201528560e082015284610100820152600060058510613fb057634e487b7160e01b600052602160045260246000fd5b84610120830152610180610140830152613fce610180830185613d12565b828103610160840152613fe18185613d12565b9f9e505050505050505050505050505050565b6001600160a01b0386168152841515602082015283604082015260a06060820152600061402460a0830185613d12565b82810360808401526140368185613d12565b98975050505050505050565b6001600160a01b0384168152821515602082015260606040820152600061406c6060830184613d12565b95945050505050565b6000806040838503121561408857600080fd5b61409183613d51565b9150613df760208401613d51565b634e487b7160e01b600052603260045260246000fd5b6000602082840312156140c757600080fd5b5051919050565b634e487b7160e01b600052601160045260246000fd5b81810381811115610da657610da66140ce565b80820180821115610da657610da66140ce565b6000600019820361411d5761411d6140ce565b5060010190565b8082028115828204841417610da657610da66140ce565b600181811c9082168061414f57607f821691505b60208210810361416f57634e487b7160e01b600052602260045260246000fd5b50919050565b601f8211156115cb57806000526020600020601f840160051c8101602085101561419c5750805b601f840160051c820191505b818110156141bc57600081556001016141a8565b5050505050565b67ffffffffffffffff8311156141db576141db613e3d565b6141ef836141e9835461413b565b83614175565b6000601f841160018114614223576000851561420b5750838201355b600019600387901b1c1916600186901b1783556141bc565b600083815260209020601f19861690835b828110156142545786850135825560209485019460019092019101614234565b50868210156142715760001960f88860031b161c19848701351681555b505060018560011b0183555050505050565b6000826142a057634e487b7160e01b600052601260045260246000fd5b500490565b6000602082840312156142b757600080fd5b8151613cce81613b73565b815167ffffffffffffffff8111156142dc576142dc613e3d565b6142f0816142ea845461413b565b84614175565b6020601f821160018114614324576000831561430c5750848201515b600019600385901b1c1916600184901b1784556141bc565b600084815260208120601f198516915b828110156143545787850151825560209485019460019092019101614334565b50848210156143725786840151600019600387901b60f8161c191681555b50505050600190811b01905550565b60006020828403121561439357600080fd5b815167ffffffffffffffff8111156143aa57600080fd5b8201601f810184136143bb57600080fd5b80516143c9613f0382613e84565b8181528560208385010111156143de57600080fd5b61406c826020830160208601613cee56fea26469706673582212202f0c2954e53a23c50730c35c1bc9d763d7f0ca248d7fbedb85c12b15a33c16b464736f6c634300081c0033",
  "linkReferences": {},
  "deployedLinkReferences": {}
}