{
  "_format": "hh-sol-artifact-1",
  "contractName": "InvestmentPool",
  "sourceName": "contracts/Dao.sol",
  "abi": [
    {
      "inputs": [
        {
          "internalType": "contract IERC20",
          "name": "_baseToken",
          "type": "address"
        }
      ],
      "stateMutability": "nonpayable",
      "type": "constructor"
    },
    {
      "inputs": [],
      "name": "AccessControlBadConfirmation",
      "type": "error"
    },
    {
      "inputs": [
        {
          "internalType": "address",
          "name": "account",
          "type": "address"
        },
        {
          "internalType": "bytes32",
          "name": "neededRole",
          "type": "bytes32"
        }
      ],
      "name": "AccessControlUnauthorizedAccount",
      "type": "error"
    },
    {
      "inputs": [
        {
          "internalType": "address",
          "name": "spender",
          "type": "address"
        },
        {
          "internalType": "uint256",
          "name": "allowance",
          "type": "uint256"
        },
        {
          "internalType": "uint256",
          "name": "needed",
          "type": "uint256"
        }
      ],
      "name": "ERC20InsufficientAllowance",
      "type": "error"
    },
    {
      "inputs": [
        {
          "internalType": "address",
          "name": "sender",
          "type": "address"
        },
        {
          "internalType": "uint256",
          "name": "balance",
          "type": "uint256"
        },
        {
          "internalType": "uint256",
          "name": "needed",
          "type": "uint256"
        }
      ],
      "name": "ERC20InsufficientBalance",
      "type": "error"
    },
    {
      "inputs": [
        {
          "internalType": "address",
          "name": "approver",
          "type": "address"
        }
      ],
      "name": "ERC20InvalidApprover",
      "type": "error"
    },
    {
      "inputs": [
        {
          "internalType": "address",
          "name": "receiver",
          "type": "address"
        }
      ],
      "name": "ERC20InvalidReceiver",
      "type": "error"
    },
    {
      "inputs": [
        {
          "internalType": "address",
          "name": "sender",
          "type": "address"
        }
      ],
      "name": "ERC20InvalidSender",
      "type": "error"
    },
    {
      "inputs": [
        {
          "internalType": "address",
          "name": "spender",
          "type": "address"
        }
      ],
      "name": "ERC20InvalidSpender",
      "type": "error"
    },
    {
      "inputs": [],
      "name": "ReentrancyGuardReentrantCall",
      "type": "error"
    },
    {
      "inputs": [
        {
          "internalType": "address",
          "name": "token",
          "type": "address"
        }
      ],
      "name": "SafeERC20FailedOperation",
      "type": "error"
    },
    {
      "anonymous": false,
      "inputs": [
        {
          "indexed": true,
          "internalType": "address",
          "name": "owner",
          "type": "address"
        },
        {
          "indexed": true,
          "internalType": "address",
          "name": "spender",
          "type": "address"
        },
        {
          "indexed": false,
          "internalType": "uint256",
          "name": "value",
          "type": "uint256"
        }
      ],
      "name": "Approval",
      "type": "event"
    },
    {
      "anonymous": false,
      "inputs": [
        {
          "indexed": true,
          "internalType": "uint256",
          "name": "proposalId",
          "type": "uint256"
        },
        {
          "indexed": false,
          "internalType": "uint256",
          "name": "start",
          "type": "uint256"
        },
        {
          "indexed": false,
          "internalType": "uint256",
          "name": "end",
          "type": "uint256"
        }
      ],
      "name": "CancelVoteStarted",
      "type": "event"
    },
    {
      "anonymous": false,
      "inputs": [
        {
          "indexed": true,
          "internalType": "uint256",
          "name": "proposalId",
          "type": "uint256"
        },
        {
          "indexed": false,
          "internalType": "address",
          "name": "voter",
          "type": "address"
        },
        {
          "indexed": false,
          "internalType": "bool",
          "name": "support",
          "type": "bool"
        },
        {
          "indexed": false,
          "internalType": "uint256",
          "name": "weight",
          "type": "uint256"
        }
      ],
      "name": "CancelVoted",
      "type": "event"
    },
    {
      "anonymous": false,
      "inputs": [
        {
          "indexed": false,
          "internalType": "string",
          "name": "msg",
          "type": "string"
        },
        {
          "indexed": false,
          "internalType": "uint256",
          "name": "val",
          "type": "uint256"
        }
      ],
      "name": "Debug",
      "type": "event"
    },
    {
      "anonymous": false,
      "inputs": [
        {
          "indexed": true,
          "internalType": "address",
          "name": "user",
          "type": "address"
        },
        {
          "indexed": false,
          "internalType": "uint256",
          "name": "amount",
          "type": "uint256"
        },
        {
          "indexed": false,
          "internalType": "uint256",
          "name": "sharesMinted",
          "type": "uint256"
        }
      ],
      "name": "Deposit",
      "type": "event"
    },
    {
      "anonymous": false,
      "inputs": [
        {
          "indexed": true,
          "internalType": "address",
          "name": "admin",
          "type": "address"
        },
        {
          "indexed": false,
          "internalType": "uint256",
          "name": "amount",
          "type": "uint256"
        }
      ],
      "name": "EmergencyWithdraw",
      "type": "event"
    },
    {
      "anonymous": false,
      "inputs": [
        {
          "indexed": true,
          "internalType": "uint256",
          "name": "proposalId",
          "type": "uint256"
        }
      ],
      "name": "ProposalCancelled",
      "type": "event"
    },
    {
      "anonymous": false,
      "inputs": [
        {
          "indexed": true,
          "internalType": "uint256",
          "name": "proposalId",
          "type": "uint256"
        }
      ],
      "name": "ProposalCancelledByVote",
      "type": "event"
    },
    {
      "anonymous": false,
      "inputs": [
        {
          "indexed": true,
          "internalType": "uint256",
          "name": "id",
          "type": "uint256"
        },
        {
          "indexed": false,
          "internalType": "address",
          "name": "proposer",
          "type": "address"
        },
        {
          "indexed": false,
          "internalType": "uint256",
          "name": "strategyId",
          "type": "uint256"
        },
        {
          "indexed": false,
          "internalType": "uint256",
          "name": "amount",
          "type": "uint256"
        },
        {
          "indexed": false,
          "internalType": "uint256",
          "name": "start",
          "type": "uint256"
        },
        {
          "indexed": false,
          "internalType": "uint256",
          "name": "end",
          "type": "uint256"
        }
      ],
      "name": "ProposalCreated",
      "type": "event"
    },
    {
      "anonymous": false,
      "inputs": [
        {
          "indexed": true,
          "internalType": "uint256",
          "name": "proposalId",
          "type": "uint256"
        },
        {
          "indexed": false,
          "internalType": "address",
          "name": "strategy",
          "type": "address"
        },
        {
          "indexed": false,
          "internalType": "uint256",
          "name": "amount",
          "type": "uint256"
        }
      ],
      "name": "ProposalExecuted",
      "type": "event"
    },
    {
      "anonymous": false,
      "inputs": [
        {
          "indexed": true,
          "internalType": "address",
          "name": "user",
          "type": "address"
        },
        {
          "indexed": false,
          "internalType": "uint256",
          "name": "sharesBurned",
          "type": "uint256"
        },
        {
          "indexed": false,
          "internalType": "uint256",
          "name": "amountReturned",
          "type": "uint256"
        }
      ],
      "name": "Redeem",
      "type": "event"
    },
    {
      "anonymous": false,
      "inputs": [
        {
          "indexed": true,
          "internalType": "bytes32",
          "name": "role",
          "type": "bytes32"
        },
        {
          "indexed": true,
          "internalType": "bytes32",
          "name": "previousAdminRole",
          "type": "bytes32"
        },
        {
          "indexed": true,
          "internalType": "bytes32",
          "name": "newAdminRole",
          "type": "bytes32"
        }
      ],
      "name": "RoleAdminChanged",
      "type": "event"
    },
    {
      "anonymous": false,
      "inputs": [
        {
          "indexed": true,
          "internalType": "bytes32",
          "name": "role",
          "type": "bytes32"
        },
        {
          "indexed": true,
          "internalType": "address",
          "name": "account",
          "type": "address"
        },
        {
          "indexed": true,
          "internalType": "address",
          "name": "sender",
          "type": "address"
        }
      ],
      "name": "RoleGranted",
      "type": "event"
    },
    {
      "anonymous": false,
      "inputs": [
        {
          "indexed": true,
          "internalType": "bytes32",
          "name": "role",
          "type": "bytes32"
        },
        {
          "indexed": true,
          "internalType": "address",
          "name": "account",
          "type": "address"
        },
        {
          "indexed": true,
          "internalType": "address",
          "name": "sender",
          "type": "address"
        }
      ],
      "name": "RoleRevoked",
      "type": "event"
    },
    {
      "anonymous": false,
      "inputs": [
        {
          "indexed": true,
          "internalType": "uint256",
          "name": "strategyId",
          "type": "uint256"
        },
        {
          "indexed": false,
          "internalType": "address",
          "name": "strategy",
          "type": "address"
        }
      ],
      "name": "StrategyAdded",
      "type": "event"
    },
    {
      "anonymous": false,
      "inputs": [
        {
          "indexed": true,
          "internalType": "uint256",
          "name": "strategyId",
          "type": "uint256"
        },
        {
          "indexed": false,
          "internalType": "address",
          "name": "strategy",
          "type": "address"
        },
        {
          "indexed": false,
          "internalType": "bool",
          "name": "active",
          "type": "bool"
        }
      ],
      "name": "StrategyToggled",
      "type": "event"
    },
    {
      "anonymous": false,
      "inputs": [
        {
          "indexed": true,
          "internalType": "address",
          "name": "from",
          "type": "address"
        },
        {
          "indexed": true,
          "internalType": "address",
          "name": "to",
          "type": "address"
        },
        {
          "indexed": false,
          "internalType": "uint256",
          "name": "value",
          "type": "uint256"
        }
      ],
      "name": "Transfer",
      "type": "event"
    },
    {
      "anonymous": false,
      "inputs": [
        {
          "indexed": true,
          "internalType": "uint256",
          "name": "proposalId",
          "type": "uint256"
        },
        {
          "indexed": false,
          "internalType": "address",
          "name": "voter",
          "type": "address"
        },
        {
          "indexed": false,
          "internalType": "bool",
          "name": "support",
          "type": "bool"
        },
        {
          "indexed": false,
          "internalType": "uint256",
          "name": "weight",
          "type": "uint256"
        }
      ],
      "name": "Voted",
      "type": "event"
    },
    {
      "inputs": [],
      "name": "ADMIN_ROLE",
      "outputs": [
        {
          "internalType": "bytes32",
          "name": "",
          "type": "bytes32"
        }
      ],
      "stateMutability": "view",
      "type": "function"
    },
    {
      "inputs": [],
      "name": "DEFAULT_ADMIN_ROLE",
      "outputs": [
        {
          "internalType": "bytes32",
          "name": "",
          "type": "bytes32"
        }
      ],
      "stateMutability": "view",
      "type": "function"
    },
    {
      "inputs": [],
      "name": "STRATEGIST_ROLE",
      "outputs": [
        {
          "internalType": "bytes32",
          "name": "",
          "type": "bytes32"
        }
      ],
      "stateMutability": "view",
      "type": "function"
    },
    {
      "inputs": [
        {
          "internalType": "address",
          "name": "_strategy",
          "type": "address"
        },
        {
          "internalType": "string",
          "name": "_description",
          "type": "string"
        }
      ],
      "name": "addStrategy",
      "outputs": [],
      "stateMutability": "nonpayable",
      "type": "function"
    },
    {
      "inputs": [
        {
          "internalType": "address",
          "name": "owner",
          "type": "address"
        },
        {
          "internalType": "address",
          "name": "spender",
          "type": "address"
        }
      ],
      "name": "allowance",
      "outputs": [
        {
          "internalType": "uint256",
          "name": "",
          "type": "uint256"
        }
      ],
      "stateMutability": "view",
      "type": "function"
    },
    {
      "inputs": [
        {
          "internalType": "address",
          "name": "spender",
          "type": "address"
        },
        {
          "internalType": "uint256",
          "name": "value",
          "type": "uint256"
        }
      ],
      "name": "approve",
      "outputs": [
        {
          "internalType": "bool",
          "name": "",
          "type": "bool"
        }
      ],
      "stateMutability": "nonpayable",
      "type": "function"
    },
    {
      "inputs": [
        {
          "internalType": "address",
          "name": "account",
          "type": "address"
        }
      ],
      "name": "balanceOf",
      "outputs": [
        {
          "internalType": "uint256",
          "name": "",
          "type": "uint256"
        }
      ],
      "stateMutability": "view",
      "type": "function"
    },
    {
      "inputs": [],
      "name": "baseToken",
      "outputs": [
        {
          "internalType": "contract IERC20",
          "name": "",
          "type": "address"
        }
      ],
      "stateMutability": "view",
      "type": "function"
    },
    {
      "inputs": [
        {
          "internalType": "uint256",
          "name": "_proposalId",
          "type": "uint256"
        }
      ],
      "name": "cancelProposal",
      "outputs": [],
      "stateMutability": "nonpayable",
      "type": "function"
    },
    {
      "inputs": [
        {
          "internalType": "uint256",
          "name": "_strategyId",
          "type": "uint256"
        },
        {
          "internalType": "uint256",
          "name": "_amount",
          "type": "uint256"
        },
        {
          "internalType": "uint256",
          "name": "votingPeriodMinutes",
          "type": "uint256"
        },
        {
          "internalType": "string",
          "name": "_title",
          "type": "string"
        },
        {
          "internalType": "string",
          "name": "_description",
          "type": "string"
        }
      ],
      "name": "createProposal",
      "outputs": [
        {
          "internalType": "uint256",
          "name": "",
          "type": "uint256"
        }
      ],
      "stateMutability": "nonpayable",
      "type": "function"
    },
    {
      "inputs": [],
      "name": "decimals",
      "outputs": [
        {
          "internalType": "uint8",
          "name": "",
          "type": "uint8"
        }
      ],
      "stateMutability": "view",
      "type": "function"
    },
    {
      "inputs": [
        {
          "internalType": "uint256",
          "name": "_amount",
          "type": "uint256"
        }
      ],
      "name": "deposit",
      "outputs": [],
      "stateMutability": "nonpayable",
      "type": "function"
    },
    {
      "inputs": [
        {
          "internalType": "address",
          "name": "",
          "type": "address"
        }
      ],
      "name": "deposited",
      "outputs": [
        {
          "internalType": "uint256",
          "name": "",
          "type": "uint256"
        }
      ],
      "stateMutability": "view",
      "type": "function"
    },
    {
      "inputs": [
        {
          "internalType": "uint256",
          "name": "_proposalId",
          "type": "uint256"
        }
      ],
      "name": "executeProposal",
      "outputs": [],
      "stateMutability": "nonpayable",
      "type": "function"
    },
    {
      "inputs": [],
      "name": "feeCollected",
      "outputs": [
        {
          "internalType": "uint256",
          "name": "",
          "type": "uint256"
        }
      ],
      "stateMutability": "view",
      "type": "function"
    },
    {
      "inputs": [
        {
          "internalType": "uint256",
          "name": "_proposalId",
          "type": "uint256"
        }
      ],
      "name": "finalizeCancelVote",
      "outputs": [],
      "stateMutability": "nonpayable",
      "type": "function"
    },
    {
      "inputs": [
        {
          "internalType": "uint256",
          "name": "_proposalId",
          "type": "uint256"
        }
      ],
      "name": "finalizeProposal",
      "outputs": [],
      "stateMutability": "nonpayable",
      "type": "function"
    },
    {
      "inputs": [
        {
          "internalType": "uint256",
          "name": "_proposalId",
          "type": "uint256"
        }
      ],
      "name": "getProposal",
      "outputs": [
        {
          "internalType": "uint256",
          "name": "id",
          "type": "uint256"
        },
        {
          "internalType": "address",
          "name": "proposer",
          "type": "address"
        },
        {
          "internalType": "uint256",
          "name": "strategyId",
          "type": "uint256"
        },
        {
          "internalType": "uint256",
          "name": "amount",
          "type": "uint256"
        },
        {
          "internalType": "uint256",
          "name": "forVotes",
          "type": "uint256"
        },
        {
          "internalType": "uint256",
          "name": "againstVotes",
          "type": "uint256"
        },
        {
          "internalType": "uint256",
          "name": "startTimestamp",
          "type": "uint256"
        },
        {
          "internalType": "uint256",
          "name": "endTimestamp",
          "type": "uint256"
        },
        {
          "internalType": "uint256",
          "name": "votingPeriodMinutes",
          "type": "uint256"
        },
        {
          "internalType": "enum InvestmentPool.ProposalState",
          "name": "state",
          "type": "uint8"
        },
        {
          "internalType": "string",
          "name": "description",
          "type": "string"
        },
        {
          "internalType": "string",
          "name": "title",
          "type": "string"
        }
      ],
      "stateMutability": "view",
      "type": "function"
    },
    {
      "inputs": [
        {
          "internalType": "uint256",
          "name": "_proposalId",
          "type": "uint256"
        },
        {
          "internalType": "address",
          "name": "_user",
          "type": "address"
        }
      ],
      "name": "getProposalCancel",
      "outputs": [
        {
          "internalType": "uint256",
          "name": "cancelForVotes",
          "type": "uint256"
        },
        {
          "internalType": "uint256",
          "name": "cancelAgainstVotes",
          "type": "uint256"
        },
        {
          "internalType": "bool",
          "name": "cancelActive",
          "type": "bool"
        },
        {
          "internalType": "uint256",
          "name": "cancelStartTimestamp",
          "type": "uint256"
        },
        {
          "internalType": "uint256",
          "name": "cancelEndTimestamp",
          "type": "uint256"
        },
        {
          "internalType": "bool",
          "name": "votedCancel",
          "type": "bool"
        }
      ],
      "stateMutability": "view",
      "type": "function"
    },
    {
      "inputs": [
        {
          "internalType": "bytes32",
          "name": "role",
          "type": "bytes32"
        }
      ],
      "name": "getRoleAdmin",
      "outputs": [
        {
          "internalType": "bytes32",
          "name": "",
          "type": "bytes32"
        }
      ],
      "stateMutability": "view",
      "type": "function"
    },
    {
      "inputs": [
        {
          "internalType": "uint256",
          "name": "_strategyId",
          "type": "uint256"
        }
      ],
      "name": "getStrategy",
      "outputs": [
        {
          "internalType": "address",
          "name": "strategy",
          "type": "address"
        },
        {
          "internalType": "bool",
          "name": "active",
          "type": "bool"
        },
        {
          "internalType": "uint256",
          "name": "balance",
          "type": "uint256"
        },
        {
          "internalType": "string",
          "name": "name",
          "type": "string"
        },
        {
          "internalType": "string",
          "name": "description",
          "type": "string"
        }
      ],
      "stateMutability": "view",
      "type": "function"
    },
    {
      "inputs": [],
      "name": "getWithdrawalFeePercent",
      "outputs": [
        {
          "internalType": "uint256",
          "name": "",
          "type": "uint256"
        }
      ],
      "stateMutability": "view",
      "type": "function"
    },
    {
      "inputs": [
        {
          "internalType": "bytes32",
          "name": "role",
          "type": "bytes32"
        },
        {
          "internalType": "address",
          "name": "account",
          "type": "address"
        }
      ],
      "name": "grantRole",
      "outputs": [],
      "stateMutability": "nonpayable",
      "type": "function"
    },
    {
      "inputs": [
        {
          "internalType": "bytes32",
          "name": "role",
          "type": "bytes32"
        },
        {
          "internalType": "address",
          "name": "account",
          "type": "address"
        }
      ],
      "name": "hasRole",
      "outputs": [
        {
          "internalType": "bool",
          "name": "",
          "type": "bool"
        }
      ],
      "stateMutability": "view",
      "type": "function"
    },
    {
      "inputs": [
        {
          "internalType": "uint256",
          "name": "_proposalId",
          "type": "uint256"
        },
        {
          "internalType": "address",
          "name": "_user",
          "type": "address"
        }
      ],
      "name": "hasVoted",
      "outputs": [
        {
          "internalType": "bool",
          "name": "",
          "type": "bool"
        }
      ],
      "stateMutability": "view",
      "type": "function"
    },
    {
      "inputs": [],
      "name": "name",
      "outputs": [
        {
          "internalType": "string",
          "name": "",
          "type": "string"
        }
      ],
      "stateMutability": "view",
      "type": "function"
    },
    {
      "inputs": [],
      "name": "proposalCount",
      "outputs": [
        {
          "internalType": "uint256",
          "name": "",
          "type": "uint256"
        }
      ],
      "stateMutability": "view",
      "type": "function"
    },
    {
      "inputs": [
        {
          "internalType": "uint256",
          "name": "_shares",
          "type": "uint256"
        }
      ],
      "name": "randeem",
      "outputs": [],
      "stateMutability": "nonpayable",
      "type": "function"
    },
    {
      "inputs": [
        {
          "internalType": "bytes32",
          "name": "role",
          "type": "bytes32"
        },
        {
          "internalType": "address",
          "name": "callerConfirmation",
          "type": "address"
        }
      ],
      "name": "renounceRole",
      "outputs": [],
      "stateMutability": "nonpayable",
      "type": "function"
    },
    {
      "inputs": [
        {
          "internalType": "bytes32",
          "name": "role",
          "type": "bytes32"
        },
        {
          "internalType": "address",
          "name": "account",
          "type": "address"
        }
      ],
      "name": "revokeRole",
      "outputs": [],
      "stateMutability": "nonpayable",
      "type": "function"
    },
    {
      "inputs": [
        {
          "internalType": "uint256",
          "name": "_percent",
          "type": "uint256"
        }
      ],
      "name": "setWithdrawalFeePercent",
      "outputs": [],
      "stateMutability": "nonpayable",
      "type": "function"
    },
    {
      "inputs": [
        {
          "internalType": "uint256",
          "name": "_proposalId",
          "type": "uint256"
        },
        {
          "internalType": "uint256",
          "name": "votingPeriodMinutes",
          "type": "uint256"
        }
      ],
      "name": "startCancelVoting",
      "outputs": [],
      "stateMutability": "nonpayable",
      "type": "function"
    },
    {
      "inputs": [
        {
          "internalType": "uint256",
          "name": "",
          "type": "uint256"
        }
      ],
      "name": "strategies",
      "outputs": [
        {
          "internalType": "address",
          "name": "strategy",
          "type": "address"
        },
        {
          "internalType": "bool",
          "name": "active",
          "type": "bool"
        },
        {
          "internalType": "string",
          "name": "description",
          "type": "string"
        }
      ],
      "stateMutability": "view",
      "type": "function"
    },
    {
      "inputs": [],
      "name": "strategyCount",
      "outputs": [
        {
          "internalType": "uint256",
          "name": "",
          "type": "uint256"
        }
      ],
      "stateMutability": "view",
      "type": "function"
    },
    {
      "inputs": [
        {
          "internalType": "bytes4",
          "name": "interfaceId",
          "type": "bytes4"
        }
      ],
      "name": "supportsInterface",
      "outputs": [
        {
          "internalType": "bool",
          "name": "",
          "type": "bool"
        }
      ],
      "stateMutability": "view",
      "type": "function"
    },
    {
      "inputs": [],
      "name": "symbol",
      "outputs": [
        {
          "internalType": "string",
          "name": "",
          "type": "string"
        }
      ],
      "stateMutability": "view",
      "type": "function"
    },
    {
      "inputs": [
        {
          "internalType": "uint256",
          "name": "_strategyId",
          "type": "uint256"
        },
        {
          "internalType": "bool",
          "name": "_active",
          "type": "bool"
        }
      ],
      "name": "toggleStrategy",
      "outputs": [],
      "stateMutability": "nonpayable",
      "type": "function"
    },
    {
      "inputs": [],
      "name": "totalAssets",
      "outputs": [
        {
          "internalType": "uint256",
          "name": "",
          "type": "uint256"
        }
      ],
      "stateMutability": "view",
      "type": "function"
    },
    {
      "inputs": [],
      "name": "totalLockedInStrategies",
      "outputs": [
        {
          "internalType": "uint256",
          "name": "",
          "type": "uint256"
        }
      ],
      "stateMutability": "view",
      "type": "function"
    },
    {
      "inputs": [],
      "name": "totalSupply",
      "outputs": [
        {
          "internalType": "uint256",
          "name": "",
          "type": "uint256"
        }
      ],
      "stateMutability": "view",
      "type": "function"
    },
    {
      "inputs": [
        {
          "internalType": "address",
          "name": "to",
          "type": "address"
        },
        {
          "internalType": "uint256",
          "name": "value",
          "type": "uint256"
        }
      ],
      "name": "transfer",
      "outputs": [
        {
          "internalType": "bool",
          "name": "",
          "type": "bool"
        }
      ],
      "stateMutability": "nonpayable",
      "type": "function"
    },
    {
      "inputs": [
        {
          "internalType": "address",
          "name": "from",
          "type": "address"
        },
        {
          "internalType": "address",
          "name": "to",
          "type": "address"
        },
        {
          "internalType": "uint256",
          "name": "value",
          "type": "uint256"
        }
      ],
      "name": "transferFrom",
      "outputs": [
        {
          "internalType": "bool",
          "name": "",
          "type": "bool"
        }
      ],
      "stateMutability": "nonpayable",
      "type": "function"
    },
    {
      "inputs": [
        {
          "internalType": "uint256",
          "name": "_proposalId",
          "type": "uint256"
        },
        {
          "internalType": "bool",
          "name": "support",
          "type": "bool"
        }
      ],
      "name": "vote",
      "outputs": [],
      "stateMutability": "nonpayable",
      "type": "function"
    },
    {
      "inputs": [
        {
          "internalType": "uint256",
          "name": "_proposalId",
          "type": "uint256"
        },
        {
          "internalType": "bool",
          "name": "support",
          "type": "bool"
        }
      ],
      "name": "voteCancel",
      "outputs": [],
      "stateMutability": "nonpayable",
      "type": "function"
    },
    {
      "inputs": [
        {
          "internalType": "uint256",
          "name": "amount",
          "type": "uint256"
        }
      ],
      "name": "withdrawCollectedFees",
      "outputs": [],
      "stateMutability": "nonpayable",
      "type": "function"
    },
    {
      "inputs": [
        {
          "internalType": "uint256",
          "name": "_proposalId",
          "type": "uint256"
        }
      ],
      "name": "withdrawFromProposal",
      "outputs": [],
      "stateMutability": "nonpayable",
      "type": "function"
    },
    {
      "inputs": [],
      "name": "withdrawalFeePercent",
      "outputs": [
        {
          "internalType": "uint256",
          "name": "",
          "type": "uint256"
        }
      ],
      "stateMutability": "view",
      "type": "function"
    }
  ],
  "bytecode": "0x60a0604052600a60095534801561001557600080fd5b5060405161481f38038061481f833981016040819052610034916101eb565b6040518060400160405280601581526020017f496e766573746d656e7420506f6f6c20536861726500000000000000000000008152506040518060400160405280600381526020016249505360e81b815250816003908161009591906102ba565b5060046100a282826102ba565b50506001600555506001600160a01b0381166100f15760405162461bcd60e51b815260206004820152600a6024820152693d32b937903a37b5b2b760b11b604482015260640160405180910390fd5b6001600160a01b03811660805261010960003361013b565b506101347fa49807205ce4d355092ef5a8a18f56e8913cf4a201fbe287825b095693c217753361013b565b5050610378565b60008281526006602090815260408083206001600160a01b038516845290915281205460ff166101e15760008381526006602090815260408083206001600160a01b03861684529091529020805460ff191660011790556101993390565b6001600160a01b0316826001600160a01b0316847f2f8788117e7eff1d82e926ec794901d17c78024a50270940304540a733656f0d60405160405180910390a45060016101e5565b5060005b92915050565b6000602082840312156101fd57600080fd5b81516001600160a01b038116811461021457600080fd5b9392505050565b634e487b7160e01b600052604160045260246000fd5b600181811c9082168061024557607f821691505b60208210810361026557634e487b7160e01b600052602260045260246000fd5b50919050565b601f8211156102b557806000526020600020601f840160051c810160208510156102925750805b601f840160051c820191505b818110156102b2576000815560010161029e565b50505b505050565b81516001600160401b038111156102d3576102d361021b565b6102e7816102e18454610231565b8461026b565b6020601f82116001811461031b57600083156103035750848201515b600019600385901b1c1916600184901b1784556102b2565b600084815260208120601f198516915b8281101561034b578785015182556020948501946001909201910161032b565b50848210156103695786840151600019600387901b60f8161c191681555b50505050600190811b01905550565b6080516144466103d96000396000818161062e015281816108de0152818161113f015281816112b701528181611338015281816113fd01528181611ac301528181611f330152818161218a01528181612343015261243901526144466000f3fe608060405234801561001057600080fd5b50600436106103145760003560e01c80637cb9b544116101a7578063c55dae63116100ee578063d574ea3d11610097578063dd62ed3e11610071578063dd62ed3e1461073b578063e0a8f6f514610774578063e3ecf59f1461078757600080fd5b8063d574ea3d146106fd578063da35c6641461071f578063dc3e56951461072857600080fd5b8063cb13cddb116100c8578063cb13cddb146106a6578063cfc0cc34146106c6578063d547741f146106ea57600080fd5b8063c55dae6314610629578063c7f758a814610668578063c9d27afe1461069357600080fd5b80639e38c2e711610150578063a378a3241161012a578063a378a324146105dc578063a9059cbb14610603578063b6b55f251461061657600080fd5b80639e38c2e7146105c2578063a0499b3b146105cb578063a217fddf146105d457600080fd5b806391d148541161018157806391d148541461056e57806395d89b41146105a75780639b2f288c146105af57600080fd5b80637cb9b544146105005780637d5a177a14610513578063913c26f31461055b57600080fd5b8063248a9ca31161026b5780634bf3a02a116102145780636ed785ff116101ee5780636ed785ff1461049d57806370a08231146104b057806375b238fc146104d957600080fd5b80634bf3a02a1461046e5780635652077c146104815780636ca7f95c1461049457600080fd5b8063313ce56711610245578063313ce5671461043957806336568abe14610448578063438596321461045b57600080fd5b8063248a9ca3146103f05780632f2ff15d146104135780632f94dfa31461042657600080fd5b806306fdde03116102cd57806318160ddd116102a757806318160ddd146103cd57806322068b44146103d557806323b872dd146103dd57600080fd5b806306fdde0314610392578063095ea7b3146103a75780630d61b519146103ba57600080fd5b806301e6de42116102fe57806301e6de421461034957806301ffc9a71461035c578063052ec8601461037f57600080fd5b806221bc371461031957806301e1d1141461032e575b600080fd5b61032c610327366004613ba2565b61078f565b005b6103366108bc565b6040519081526020015b60405180910390f35b610336610357366004613c1b565b610a5f565b61036f61036a366004613cad565b610d48565b6040519015158152602001610340565b61032c61038d366004613cf6565b610de1565b61039a610f67565b6040516103409190613d5f565b61036f6103b5366004613d8e565b610ff9565b61032c6103c8366004613cf6565b611011565b600254610336565b600c54610336565b61036f6103eb366004613db8565b6114d7565b6103366103fe366004613cf6565b60009081526006602052604090206001015490565b61032c610421366004613df5565b6114fb565b61032c610434366004613cf6565b611526565b60405160128152602001610340565b61032c610456366004613df5565b611597565b61036f610469366004613df5565b6115e8565b61032c61047c366004613e21565b61162f565b61032c61048f366004613cf6565b611859565b610336600a5481565b61032c6104ab366004613cf6565b6119d5565b6103366104be366004613e43565b6001600160a01b031660009081526020819052604090205490565b6103367fa49807205ce4d355092ef5a8a18f56e8913cf4a201fbe287825b095693c2177581565b61032c61050e366004613ecd565b611aee565b610526610521366004613df5565b611c88565b6040805196875260208701959095529215159385019390935260608401526080830191909152151560a082015260c001610340565b61032c610569366004613cf6565b611d4d565b61036f61057c366004613df5565b60009182526006602090815260408084206001600160a01b0393909316845291905290205460ff1690565b61039a611dce565b61032c6105bd366004613cf6565b611ddd565b61033660075481565b61033660095481565b610336600081565b6103367f17a8e30262c1f919c33056d877a3c22b95c2f5e4dac44683c1c2323cd79fbdb081565b61036f610611366004613d8e565b6123ba565b61032c610624366004613cf6565b6123c8565b6106507f000000000000000000000000000000000000000000000000000000000000000081565b6040516001600160a01b039091168152602001610340565b61067b610676366004613cf6565b612565565b6040516103409c9b9a99989796959493929190613f74565b61032c6106a1366004613ba2565b612769565b6103366106b4366004613e43565b600b6020526000908152604090205481565b6106d96106d4366004613cf6565b6129e7565b604051610340959493929190614015565b61032c6106f8366004613df5565b612c09565b61071061070b366004613cf6565b612c2e565b60405161034093929190614063565b61033660085481565b61032c610736366004613ba2565b612cfb565b610336610749366004614096565b6001600160a01b03918216600090815260016020908152604080832093909416825291909152205490565b61032c610782366004613cf6565b612f4f565b600954610336565b7fa49807205ce4d355092ef5a8a18f56e8913cf4a201fbe287825b095693c217756107b981613095565b600c54831061080f5760405162461bcd60e51b815260206004820152600a60248201527f496e76616c69642069640000000000000000000000000000000000000000000060448201526064015b60405180910390fd5b81600c8481548110610823576108236140c0565b906000526020600020906002020160000160146101000a81548160ff021916908315150217905550827f8b5f2c4ceef0d3cbbd60bbd304f81d421b33f88ce4dab1cdc290a2f5eace86b8600c8581548110610880576108806140c0565b600091825260209182902060029091020154604080516001600160a01b03909216825286151592820192909252015b60405180910390a2505050565b6040516370a0823160e01b815230600482015260009081906001600160a01b037f000000000000000000000000000000000000000000000000000000000000000016906370a0823190602401602060405180830381865afa158015610925573d6000803e3d6000fd5b505050506040513d601f19601f8201168201806040525081019061094991906140d6565b90506000600a54821061096a57600a546109639083614105565b915061096f565b600091505b60005b600c54811015610a4d57600c818154811061098f5761098f6140c0565b6000918252602090912060029091020154600160a01b900460ff1615610a4557600c81815481106109c2576109c26140c0565b60009182526020918290206002909102015460408051629032ff60e51b815290516001600160a01b03909216926312065fe0926004808401938290030181865afa158015610a14573d6000803e3d6000fd5b505050506040513d601f19601f82011682018060405250810190610a3891906140d6565b610a429083614118565b91505b600101610972565b50610a588183614118565b9250505090565b336000908152602081905260408120548110610abd5760405162461bcd60e51b815260206004820152601660248201527f4e6565642073686172657320746f2070726f706f7365000000000000000000006044820152606401610806565b600c548810610b0e5760405162461bcd60e51b815260206004820152601060248201527f496e76616c6964207374726174656779000000000000000000000000000000006044820152606401610806565b600c8881548110610b2157610b216140c0565b6000918252602090912060029091020154600160a01b900460ff16610b885760405162461bcd60e51b815260206004820152601160248201527f496e6163746976652073747261746567790000000000000000000000000000006044820152606401610806565b60008711610bd85760405162461bcd60e51b815260206004820152600e60248201527f496e76616c696420616d6f756e740000000000000000000000000000000000006044820152606401610806565b60008611610c285760405162461bcd60e51b815260206004820152601960248201527f566f74696e6720706572696f64206d757374206265203e2030000000000000006044820152606401610806565b60088054906000610c388361412b565b90915550506008546000818152600d602052604090208181556001810180547fffffffffffffffffffffffff00000000000000000000000000000000000000001633179055600281018a905560038101899055426006820155610c9c88603c614145565b610ca69042614118565b6007820155600b810188905560088101805460ff1916600117905560098101610cd08587836141e4565b50600a8101610ce08789836141e4565b506006810154600782015460408051338152602081018e90529081018c90526060810192909252608082015282907f8b6db1e8bf2f36cfa26dc90b4a539c5280a8531c988f1734450a6d919c6569a09060a00160405180910390a25098975050505050505050565b60007fffffffff0000000000000000000000000000000000000000000000000000000082167f7965db0b000000000000000000000000000000000000000000000000000000001480610ddb57507f01ffc9a7000000000000000000000000000000000000000000000000000000007fffffffff000000000000000000000000000000000000000000000000000000008316145b92915050565b6000818152600d602052604081208054909103610e335760405162461bcd60e51b815260206004820152601060248201526f125b9d985b1a59081c1c9bdc1bdcd85b60821b6044820152606401610806565b600f81015460ff16610e875760405162461bcd60e51b815260206004820152601660248201527f43616e63656c20766f7465206e6f7420616374697665000000000000000000006044820152606401610806565b80601101544211610eda5760405162461bcd60e51b815260206004820152601760248201527f43616e63656c20766f74696e67206e6f7420656e6465640000000000000000006044820152606401610806565b6000610ee560025490565b90506000610ef4600a836142a4565b905080600003610f02575060015b82600e015483600d0154118015610f1d57508083600d015410155b15610f5757610f2b8461309f565b60405184907f5789c4d658fb6af71484e63ce8b8e730acb07e6020a729da2d041a229008bd9690600090a25b5050600f01805460ff1916905550565b606060038054610f769061415c565b80601f0160208091040260200160405190810160405280929190818152602001828054610fa29061415c565b8015610fef5780601f10610fc457610100808354040283529160200191610fef565b820191906000526020600020905b815481529060010190602001808311610fd257829003601f168201915b5050505050905090565b6000336110078185856132c8565b5060019392505050565b6110196132d5565b6000818152600d60205260408120805490910361106b5760405162461bcd60e51b815260206004820152601060248201526f125b9d985b1a59081c1c9bdc1bdcd85b60821b6044820152606401610806565b6003600882015460ff16600681111561108657611086613f5e565b146110d35760405162461bcd60e51b815260206004820152601660248201527f50726f706f73616c206e6f7420737563636565646564000000000000000000006044820152606401610806565b60008160030154116111275760405162461bcd60e51b815260206004820152600b60248201527f5a65726f20616d6f756e740000000000000000000000000000000000000000006044820152606401610806565b6040516370a0823160e01b81523060048201526000907f00000000000000000000000000000000000000000000000000000000000000006001600160a01b0316906370a0823190602401602060405180830381865afa15801561118e573d6000803e3d6000fd5b505050506040513d601f19601f820116820180604052508101906111b291906140d6565b905081600301548110156112085760405162461bcd60e51b815260206004820152601260248201527f496e73756666696369656e742066756e647300000000000000000000000000006044820152606401610806565b6000600c836002015481548110611221576112216140c0565b600091825260209091206002909102018054909150600160a01b900460ff1661128c5760405162461bcd60e51b815260206004820152601360248201527f5374726174656779206e6f7420616374697665000000000000000000000000006044820152606401610806565b805460405163095ea7b360e01b81526001600160a01b039182166004820181905260006024830152917f0000000000000000000000000000000000000000000000000000000000000000169063095ea7b3906044016020604051808303816000875af1158015611300573d6000803e3d6000fd5b505050506040513d601f19601f8201168201806040525081019061132491906142c6565b506003840154611360906001600160a01b037f000000000000000000000000000000000000000000000000000000000000000016908390613318565b60038401546040517fb6b55f2500000000000000000000000000000000000000000000000000000000815260048101919091526001600160a01b0382169063b6b55f2590602401600060405180830381600087803b1580156113c157600080fd5b505af11580156113d5573d6000803e3d6000fd5b505060405163095ea7b360e01b81526001600160a01b038481166004830152600060248301527f000000000000000000000000000000000000000000000000000000000000000016925063095ea7b391506044016020604051808303816000875af1158015611448573d6000803e3d6000fd5b505050506040513d601f19601f8201168201806040525081019061146c91906142c6565b5060088401805460ff191660041790556003840154604080516001600160a01b0384168152602081019290925286917f3b7c90df35b419337cff0919fe91849006607bb66c4373623f06f9d48c1ebb98910160405180910390a2505050506114d46001600555565b50565b6000336114e58582856133bb565b6114f085858561344d565b506001949350505050565b60008281526006602052604090206001015461151681613095565b61152083836134de565b50505050565b61152e6132d5565b7fa49807205ce4d355092ef5a8a18f56e8913cf4a201fbe287825b095693c2177561155881613095565b6115618261309f565b60405182907f416e669c63d9a3a5e36ee7cc7e2104b8db28ccd286aa18966e98fa230c73b08c90600090a2506114d46001600555565b6001600160a01b03811633146115d9576040517f6697b23200000000000000000000000000000000000000000000000000000000815260040160405180910390fd5b6115e3828261358c565b505050565b6000828152600d6020526040812080548203611608576000915050610ddb565b6001600160a01b0383166000908152600c909101602052604090205460ff16905092915050565b6000828152600d60209081526040808320338452918390528220549091106116995760405162461bcd60e51b815260206004820152600b60248201527f4e656564207368617265730000000000000000000000000000000000000000006044820152606401610806565b80546000036116dd5760405162461bcd60e51b815260206004820152601060248201526f125b9d985b1a59081c1c9bdc1bdcd85b60821b6044820152606401610806565b6004600882015460ff1660068111156116f8576116f8613f5e565b146117455760405162461bcd60e51b815260206004820152600a60248201527f4e6f7420616374697665000000000000000000000000000000000000000000006044820152606401610806565b600f81015460ff161561179a5760405162461bcd60e51b815260206004820152601a60248201527f43616e63656c20766f746520616c7265616479206163746976650000000000006044820152606401610806565b600082116117ea5760405162461bcd60e51b815260206004820152600e60248201527f496e76616c696420706572696f640000000000000000000000000000000000006044820152606401610806565b600f8101805460ff1916600117905542601082015561180a82603c614145565b6118149042614118565b60118201819055601082015460408051918252602082019290925284917fe2e6212a456d1e02f2fd537bf9469c888678037bff8522bc23cf5cf01020a16891016108af565b6000818152600d6020526040812080549091036118ab5760405162461bcd60e51b815260206004820152601060248201526f125b9d985b1a59081c1c9bdc1bdcd85b60821b6044820152606401610806565b6001600882015460ff1660068111156118c6576118c6613f5e565b146119135760405162461bcd60e51b815260206004820152601660248201527f50726f706f73616c206973206e6f7420616374697665000000000000000000006044820152606401610806565b806007015442116119665760405162461bcd60e51b815260206004820152601060248201527f566f74696e67206e6f7420656e646564000000000000000000000000000000006044820152606401610806565b600061197160025490565b90506000611980600a836142a4565b90508060000361198e575060015b826005015483600401541180156119a9575080836004015410155b156119c25760088301805460ff19166003179055611520565b5050600801805460ff1916600217905550565b7fa49807205ce4d355092ef5a8a18f56e8913cf4a201fbe287825b095693c217756119ff81613095565b33611a4c5760405162461bcd60e51b815260206004820152600f60248201527f496e76616c6964206164647265737300000000000000000000000000000000006044820152606401610806565b600a54821115611a9e5760405162461bcd60e51b815260206004820152600f60248201527f4e6f7420656e6f756768206665657300000000000000000000000000000000006044820152606401610806565b81600a6000828254611ab09190614105565b90915550611aea90506001600160a01b037f0000000000000000000000000000000000000000000000000000000000000000163384613613565b5050565b7fa49807205ce4d355092ef5a8a18f56e8913cf4a201fbe287825b095693c21775611b1881613095565b6001600160a01b038316611b6e5760405162461bcd60e51b815260206004820152601060248201527f496e76616c6964207374726174656779000000000000000000000000000000006044820152606401610806565b604080516060810182526001600160a01b038086168252600160208301818152938301868152600c80549283018155600052835160029092027fdf6966c971051c3d54ec59162606531493a51404a002842f56009d7e5cf4a8c78101805496511515600160a01b027fffffffffffffffffffffff00000000000000000000000000000000000000000090971693909416929092179490941782559251919290917fdf6966c971051c3d54ec59162606531493a51404a002842f56009d7e5cf4a8c890910190611c3d90826142e3565b5050600c54611c4f9150600190614105565b6040516001600160a01b03851681527f1f967990e6274c3926058ddfc32b6d36f1ba6e914cc98ad1fe7d5d55ac05d16e906020016108af565b6000828152600d60205260408120805482918291829182918291908203611ce45760405162461bcd60e51b815260206004820152601060248201526f125b9d985b1a59081c1c9bdc1bdcd85b60821b6044820152606401610806565b600d810154600e820154600f83015460108401546011850154939a5091985060ff169650945092506001600160a01b038816611d21576000611d40565b6001600160a01b038816600090815260128201602052604090205460ff165b9150509295509295509295565b7fa49807205ce4d355092ef5a8a18f56e8913cf4a201fbe287825b095693c21775611d7781613095565b6064821115611dc85760405162461bcd60e51b815260206004820152601660248201527f4665652063616e6e6f74206578636565642031303025000000000000000000006044820152606401610806565b50600955565b606060048054610f769061415c565b611de56132d5565b60008111611e355760405162461bcd60e51b815260206004820152601160248201527f4e6f7468696e6720746f2072656465656d0000000000000000000000000000006044820152606401610806565b33600090815260208190526040902054811115611e945760405162461bcd60e51b815260206004820152601160248201527f4e6f7420656e6f756768207368617265730000000000000000000000000000006044820152606401610806565b6000611e9f60025490565b905060008111611ef15760405162461bcd60e51b815260206004820152600960248201527f4e6f20737570706c7900000000000000000000000000000000000000000000006044820152606401610806565b600081611efc6108bc565b611f069085614145565b611f1091906142a4565b6040516370a0823160e01b81523060048201529091506000906001600160a01b037f000000000000000000000000000000000000000000000000000000000000000016906370a0823190602401602060405180830381865afa158015611f7a573d6000803e3d6000fd5b505050506040513d601f19601f82011682018060405250810190611f9e91906140d6565b9050600a54811115611fbe57600a54611fb79082614105565b9050611fc2565b5060005b81811015612172576000611fd68284614105565b905060005b600c5481108015611fec5750600082115b1561216f57600c8181548110612004576120046140c0565b6000918252602090912060029091020154600160a01b900460ff161561215d576000600c8281548110612039576120396140c0565b6000918252602080832060029092029091015460408051629032ff60e51b815290516001600160a01b03909216945084926312065fe0926004808401938290030181865afa15801561208f573d6000803e3d6000fd5b505050506040513d601f19601f820116820180604052508101906120b391906140d6565b9050806000036120c457505061215d565b60008482116120d357816120d5565b845b6040517f2e1a7d4d000000000000000000000000000000000000000000000000000000008152600481018290529091506001600160a01b03841690632e1a7d4d90602401600060405180830381600087803b15801561213357600080fd5b505af1158015612147573d6000803e3d6000fd5b5050505080856121579190614105565b94505050505b806121678161412b565b915050611fdb565b50505b6040516370a0823160e01b81523060048201526000907f00000000000000000000000000000000000000000000000000000000000000006001600160a01b0316906370a0823190602401602060405180830381865afa1580156121d9573d6000803e3d6000fd5b505050506040513d601f19601f820116820180604052508101906121fd91906140d6565b9050600a5481111561221d57600a546122169082614105565b9050612221565b5060005b60008184116122305783612232565b815b9050600081116122845760405162461bcd60e51b815260206004820152601660248201527f496e73756666696369656e74206c6971756964697479000000000000000000006044820152606401610806565b3360009081526020818152604080832054600b9092528220549091826122aa8a84614145565b6122b491906142a4565b905060008082861115612301576122cb8387614105565b91506064600954836122dd9190614145565b6122e791906142a4565b905080600a60008282546122fb9190614118565b90915550505b600061230d8288614105565b90506123198486614105565b336000818152600b6020526040902091909155612336908d613687565b61236a6001600160a01b037f0000000000000000000000000000000000000000000000000000000000000000163383613613565b604080518d81526020810183905233917fe5b754fb1abb7f01b499791d0b820ae3b6af3424ac1c59768edb53f4ec31a929910160405180910390a250505050505050505050506114d46001600555565b60003361100781858561344d565b6123d06132d5565b600081116124205760405162461bcd60e51b815260206004820152601260248201527f4e6f7468696e6720746f206465706f73697400000000000000000000000000006044820152606401610806565b600061242a6108bc565b90506124616001600160a01b037f0000000000000000000000000000000000000000000000000000000000000000163330856136d6565b60008061246d60025490565b905080158061247a575082155b156124875783915061249f565b826124928286614145565b61249c91906142a4565b91505b600082116124ef5760405162461bcd60e51b815260206004820152600b60248201527f5a65726f207368617265730000000000000000000000000000000000000000006044820152606401610806565b6124f9338361370f565b336000908152600b602052604081208054869290612518908490614118565b9091555050604080518581526020810184905233917f90890809c654f11d6e72a28fa60149770a0d11ec6c92319d6ceb2bb0a4ea1a15910160405180910390a25050506114d46001600555565b6000806000806000806000806000806060806000600d60008f8152602001908152602001600020905080600001546000036125d55760405162461bcd60e51b815260206004820152601060248201526f125b9d985b1a59081c1c9bdc1bdcd85b60821b6044820152606401610806565b80600001549c508060010160009054906101000a90046001600160a01b03169b5080600201549a50806003015499508060040154985080600501549750806006015496508060070154955080600b015494508060080160009054906101000a900460ff16935080600901805461264a9061415c565b80601f01602080910402602001604051908101604052809291908181526020018280546126769061415c565b80156126c35780601f10612698576101008083540402835291602001916126c3565b820191906000526020600020905b8154815290600101906020018083116126a657829003601f168201915b5050505050925080600a0180546126d99061415c565b80601f01602080910402602001604051908101604052809291908181526020018280546127059061415c565b80156127525780601f1061272757610100808354040283529160200191612752565b820191906000526020600020905b81548152906001019060200180831161273557829003601f168201915b505050505091505091939597999b5091939597999b565b6000828152600d6020526040812080549091036127c85760405162461bcd60e51b815260206004820152601060248201527f4e6f20737563682070726f706f73616c000000000000000000000000000000006044820152606401610806565b6001600882015460ff1660068111156127e3576127e3613f5e565b146128305760405162461bcd60e51b815260206004820152601360248201527f50726f706f73616c206e6f7420616374697665000000000000000000000000006044820152606401610806565b806007015442106128835760405162461bcd60e51b815260206004820152600d60248201527f566f74696e6720636c6f736564000000000000000000000000000000000000006044820152606401610806565b336000908152600c8201602052604090205460ff16156128e55760405162461bcd60e51b815260206004820152600d60248201527f416c726561647920766f746564000000000000000000000000000000000000006044820152606401610806565b336000908152600c820160209081526040808320805460ff191660011790559082905281205490506000811161295d5760405162461bcd60e51b815260206004820152600f60248201527f6e6f20766f74696e6720706f77657200000000000000000000000000000000006044820152606401610806565b821561298257808260040160008282546129779190614118565b9091555061299c9050565b808260050160008282546129969190614118565b90915550505b60408051338152841515602082015290810182905284907f7c2de587c00d75474a0c6c6fa96fd3b45dc974cd4e8a75f712bb84c950dce1b5906060015b60405180910390a250505050565b6000806000606080600c805490508610612a435760405162461bcd60e51b815260206004820152600a60248201527f496e76616c6964206964000000000000000000000000000000000000000000006044820152606401610806565b6000600c8781548110612a5857612a586140c0565b600091825260209182902060029190910201805460408051629032ff60e51b815290516001600160a01b0383169a50600160a01b90920460ff16985091935088926312065fe092600480820193918290030181865afa158015612abf573d6000803e3d6000fd5b505050506040513d601f19601f82011682018060405250810190612ae391906140d6565b8154604080517f06fdde0300000000000000000000000000000000000000000000000000000000815290519296506001600160a01b03909116916306fdde03916004808201926000929091908290030181865afa158015612b48573d6000803e3d6000fd5b505050506040513d6000823e601f3d908101601f19168201604052612b7091908101906143a2565b8154604080517f7284e41600000000000000000000000000000000000000000000000000000000815290519295506001600160a01b0390911691637284e416916004808201926000929091908290030181865afa158015612bd5573d6000803e3d6000fd5b505050506040513d6000823e601f3d908101601f19168201604052612bfd91908101906143a2565b91505091939590929450565b600082815260066020526040902060010154612c2481613095565b611520838361358c565b600c8181548110612c3e57600080fd5b6000918252602090912060029091020180546001820180546001600160a01b0383169450600160a01b90920460ff169291612c789061415c565b80601f0160208091040260200160405190810160405280929190818152602001828054612ca49061415c565b8015612cf15780601f10612cc657610100808354040283529160200191612cf1565b820191906000526020600020905b815481529060010190602001808311612cd457829003601f168201915b5050505050905083565b6000828152600d602052604081208054909103612d4d5760405162461bcd60e51b815260206004820152601060248201526f125b9d985b1a59081c1c9bdc1bdcd85b60821b6044820152606401610806565b600f81015460ff16612da15760405162461bcd60e51b815260206004820152601860248201527f43616e63656c20766f74696e67206e6f742061637469766500000000000000006044820152606401610806565b80601101544210612df45760405162461bcd60e51b815260206004820152601360248201527f43616e63656c20766f74696e6720656e646564000000000000000000000000006044820152606401610806565b33600090815260128201602052604090205460ff1615612e565760405162461bcd60e51b815260206004820152601460248201527f416c726561647920766f7465642063616e63656c0000000000000000000000006044820152606401610806565b3360009081526020819052604090205480612eb35760405162461bcd60e51b815260206004820152600f60248201527f4e6f20766f74696e6720706f77657200000000000000000000000000000000006044820152606401610806565b3360009081526012830160205260409020805460ff191660011790558215612ef4578082600d016000828254612ee99190614118565b90915550612f0e9050565b8082600e016000828254612f089190614118565b90915550505b60408051338152841515602082015290810182905284907f2afa3ec744a2db0716287bbd720599669eba1cddc53520cbcfa1aac2f12ebe4e906060016129d9565b7fa49807205ce4d355092ef5a8a18f56e8913cf4a201fbe287825b095693c21775612f7981613095565b6000828152600d602052604081208054909103612fcb5760405162461bcd60e51b815260206004820152601060248201526f125b9d985b1a59081c1c9bdc1bdcd85b60821b6044820152606401610806565b6001600882015460ff166006811115612fe657612fe6613f5e565b148061300a57506000600882015460ff16600681111561300857613008613f5e565b145b6130565760405162461bcd60e51b815260206004820152600d60248201527f43616e6e6f742063616e63656c000000000000000000000000000000000000006044820152606401610806565b60088101805460ff1916600517905560405183907f416e669c63d9a3a5e36ee7cc7e2104b8db28ccd286aa18966e98fa230c73b08c90600090a2505050565b6114d4813361375e565b6000818152600d602052604090206004600882015460ff1660068111156130c8576130c8613f5e565b146131155760405162461bcd60e51b815260206004820152601560248201527f50726f706f73616c206e6f7420657865637574656400000000000000000000006044820152606401610806565b6002810154600c54811061316b5760405162461bcd60e51b815260206004820152601060248201527f4e6f2073756368207374726174656779000000000000000000000000000000006044820152606401610806565b6000600c8281548110613180576131806140c0565b6000918252602090912060029091020180549091506001600160a01b0316806131eb5760405162461bcd60e51b815260206004820152601860248201527f496e76616c6964207374726174656779206164647265737300000000000000006044820152606401610806565b60038401548061323d5760405162461bcd60e51b815260206004820152600b60248201527f5a65726f20616d6f756e740000000000000000000000000000000000000000006044820152606401610806565b6040517f2e1a7d4d000000000000000000000000000000000000000000000000000000008152600481018290526001600160a01b03831690632e1a7d4d90602401600060405180830381600087803b15801561329857600080fd5b505af11580156132ac573d6000803e3d6000fd5b50505050600894909401805460ff191660061790555050505050565b6115e383838360016137cc565b600260055403613311576040517f3ee5aeb500000000000000000000000000000000000000000000000000000000815260040160405180910390fd5b6002600555565b6040517fdd62ed3e0000000000000000000000000000000000000000000000000000000081523060048201526001600160a01b0383811660248301526000919085169063dd62ed3e90604401602060405180830381865afa158015613381573d6000803e3d6000fd5b505050506040513d601f19601f820116820180604052508101906133a591906140d6565b905061152084846133b68585614118565b6138d3565b6001600160a01b03838116600090815260016020908152604080832093861683529290522054600019811015611520578181101561343e576040517ffb8f41b20000000000000000000000000000000000000000000000000000000081526001600160a01b03841660048201526024810182905260448101839052606401610806565b611520848484840360006137cc565b6001600160a01b038316613490576040517f96c6fd1e00000000000000000000000000000000000000000000000000000000815260006004820152602401610806565b6001600160a01b0382166134d3576040517fec442f0500000000000000000000000000000000000000000000000000000000815260006004820152602401610806565b6115e3838383613978565b60008281526006602090815260408083206001600160a01b038516845290915281205460ff166135845760008381526006602090815260408083206001600160a01b03861684529091529020805460ff1916600117905561353c3390565b6001600160a01b0316826001600160a01b0316847f2f8788117e7eff1d82e926ec794901d17c78024a50270940304540a733656f0d60405160405180910390a4506001610ddb565b506000610ddb565b60008281526006602090815260408083206001600160a01b038516845290915281205460ff16156135845760008381526006602090815260408083206001600160a01b0386168085529252808320805460ff1916905551339286917ff6391f5c32d9c69d2a47ea670b442974b53935d1edc7fd64eb21e047a839171b9190a4506001610ddb565b6040516001600160a01b038381166024830152604482018390526115e391859182169063a9059cbb906064015b604051602081830303815290604052915060e01b6020820180517bffffffffffffffffffffffffffffffffffffffffffffffffffffffff8381831617835250505050613abb565b6001600160a01b0382166136ca576040517f96c6fd1e00000000000000000000000000000000000000000000000000000000815260006004820152602401610806565b611aea82600083613978565b6040516001600160a01b0384811660248301528381166044830152606482018390526115209186918216906323b872dd90608401613640565b6001600160a01b038216613752576040517fec442f0500000000000000000000000000000000000000000000000000000000815260006004820152602401610806565b611aea60008383613978565b60008281526006602090815260408083206001600160a01b038516845290915290205460ff16611aea576040517fe2517d3f0000000000000000000000000000000000000000000000000000000081526001600160a01b038216600482015260248101839052604401610806565b6001600160a01b03841661380f576040517fe602df0500000000000000000000000000000000000000000000000000000000815260006004820152602401610806565b6001600160a01b038316613852576040517f94280d6200000000000000000000000000000000000000000000000000000000815260006004820152602401610806565b6001600160a01b038085166000908152600160209081526040808320938716835292905220829055801561152057826001600160a01b0316846001600160a01b03167f8c5be1e5ebec7d5bd14f71427d1e84f3dd0314c0f7b2291e5b200ac8c7c3b925846040516138c591815260200190565b60405180910390a350505050565b604080516001600160a01b038416602482015260448082018490528251808303909101815260649091019091526020810180517bffffffffffffffffffffffffffffffffffffffffffffffffffffffff1663095ea7b360e01b1790526139398482613b45565b611520576040516001600160a01b0384811660248301526000604483015261396e91869182169063095ea7b390606401613640565b6115208482613abb565b6001600160a01b0383166139a35780600260008282546139989190614118565b90915550613a2e9050565b6001600160a01b03831660009081526020819052604090205481811015613a0f576040517fe450d38c0000000000000000000000000000000000000000000000000000000081526001600160a01b03851660048201526024810182905260448101839052606401610806565b6001600160a01b03841660009081526020819052604090209082900390555b6001600160a01b038216613a4a57600280548290039055613a69565b6001600160a01b03821660009081526020819052604090208054820190555b816001600160a01b0316836001600160a01b03167fddf252ad1be2c89b69c2b068fc378daa952ba7f163c4a11628f55a4df523b3ef83604051613aae91815260200190565b60405180910390a3505050565b600080602060008451602086016000885af180613ade576040513d6000823e3d81fd5b50506000513d91508115613af6578060011415613b03565b6001600160a01b0384163b155b15611520576040517f5274afe70000000000000000000000000000000000000000000000000000000081526001600160a01b0385166004820152602401610806565b6000806000806020600086516020880160008a5af192503d91506000519050828015613b8a57508115613b7b5780600114613b8a565b6000866001600160a01b03163b115b9695505050505050565b80151581146114d457600080fd5b60008060408385031215613bb557600080fd5b823591506020830135613bc781613b94565b809150509250929050565b60008083601f840112613be457600080fd5b50813567ffffffffffffffff811115613bfc57600080fd5b602083019150836020828501011115613c1457600080fd5b9250929050565b600080600080600080600060a0888a031215613c3657600080fd5b873596506020880135955060408801359450606088013567ffffffffffffffff811115613c6257600080fd5b613c6e8a828b01613bd2565b909550935050608088013567ffffffffffffffff811115613c8e57600080fd5b613c9a8a828b01613bd2565b989b979a50959850939692959293505050565b600060208284031215613cbf57600080fd5b81357fffffffff0000000000000000000000000000000000000000000000000000000081168114613cef57600080fd5b9392505050565b600060208284031215613d0857600080fd5b5035919050565b60005b83811015613d2a578181015183820152602001613d12565b50506000910152565b60008151808452613d4b816020860160208601613d0f565b601f01601f19169290920160200192915050565b602081526000613cef6020830184613d33565b80356001600160a01b0381168114613d8957600080fd5b919050565b60008060408385031215613da157600080fd5b613daa83613d72565b946020939093013593505050565b600080600060608486031215613dcd57600080fd5b613dd684613d72565b9250613de460208501613d72565b929592945050506040919091013590565b60008060408385031215613e0857600080fd5b82359150613e1860208401613d72565b90509250929050565b60008060408385031215613e3457600080fd5b50508035926020909101359150565b600060208284031215613e5557600080fd5b613cef82613d72565b634e487b7160e01b600052604160045260246000fd5b604051601f8201601f1916810167ffffffffffffffff81118282101715613e9d57613e9d613e5e565b604052919050565b600067ffffffffffffffff821115613ebf57613ebf613e5e565b50601f01601f191660200190565b60008060408385031215613ee057600080fd5b613ee983613d72565b9150602083013567ffffffffffffffff811115613f0557600080fd5b8301601f81018513613f1657600080fd5b8035613f29613f2482613ea5565b613e74565b818152866020838501011115613f3e57600080fd5b816020840160208301376000602083830101528093505050509250929050565b634e487b7160e01b600052602160045260246000fd5b8c81526001600160a01b038c1660208201528a60408201528960608201528860808201528760a08201528660c08201528560e082015284610100820152600060078510613fd157634e487b7160e01b600052602160045260246000fd5b84610120830152610180610140830152613fef610180830185613d33565b8281036101608401526140028185613d33565b9f9e505050505050505050505050505050565b6001600160a01b0386168152841515602082015283604082015260a06060820152600061404560a0830185613d33565b82810360808401526140578185613d33565b98975050505050505050565b6001600160a01b0384168152821515602082015260606040820152600061408d6060830184613d33565b95945050505050565b600080604083850312156140a957600080fd5b6140b283613d72565b9150613e1860208401613d72565b634e487b7160e01b600052603260045260246000fd5b6000602082840312156140e857600080fd5b5051919050565b634e487b7160e01b600052601160045260246000fd5b81810381811115610ddb57610ddb6140ef565b80820180821115610ddb57610ddb6140ef565b6000600019820361413e5761413e6140ef565b5060010190565b8082028115828204841417610ddb57610ddb6140ef565b600181811c9082168061417057607f821691505b60208210810361419057634e487b7160e01b600052602260045260246000fd5b50919050565b601f8211156115e357806000526020600020601f840160051c810160208510156141bd5750805b601f840160051c820191505b818110156141dd57600081556001016141c9565b5050505050565b67ffffffffffffffff8311156141fc576141fc613e5e565b6142108361420a835461415c565b83614196565b6000601f841160018114614244576000851561422c5750838201355b600019600387901b1c1916600186901b1783556141dd565b600083815260209020601f19861690835b828110156142755786850135825560209485019460019092019101614255565b50868210156142925760001960f88860031b161c19848701351681555b505060018560011b0183555050505050565b6000826142c157634e487b7160e01b600052601260045260246000fd5b500490565b6000602082840312156142d857600080fd5b8151613cef81613b94565b815167ffffffffffffffff8111156142fd576142fd613e5e565b6143118161430b845461415c565b84614196565b6020601f821160018114614345576000831561432d5750848201515b600019600385901b1c1916600184901b1784556141dd565b600084815260208120601f198516915b828110156143755787850151825560209485019460019092019101614355565b50848210156143935786840151600019600387901b60f8161c191681555b50505050600190811b01905550565b6000602082840312156143b457600080fd5b815167ffffffffffffffff8111156143cb57600080fd5b8201601f810184136143dc57600080fd5b80516143ea613f2482613ea5565b8181528560208385010111156143ff57600080fd5b61408d826020830160208601613d0f56fea26469706673582212208a4e521aad340ddc9807b27bca235cf18b6beab6d7be26ad76c87911a619f03064736f6c634300081c0033",
  "linkReferences": {},
  "deployedLinkReferences": {}
}