{
  "_format": "hh-sol-artifact-1",
  "contractName": "Token",
  "sourceName": "contracts/Token.sol",
  "abi": [
    {
      "inputs": [],
      "stateMutability": "nonpayable",
      "type": "constructor"
    },
    {
      "inputs": [
        {
          "internalType": "address",
          "name": "spender",
          "type": "address"
        },
        {
          "internalType": "uint256",
          "name": "allowance",
          "type": "uint256"
        },
        {
          "internalType": "uint256",
          "name": "needed",
          "type": "uint256"
        }
      ],
      "name": "ERC20InsufficientAllowance",
      "type": "error"
    },
    {
      "inputs": [
        {
          "internalType": "address",
          "name": "sender",
          "type": "address"
        },
        {
          "internalType": "uint256",
          "name": "balance",
          "type": "uint256"
        },
        {
          "internalType": "uint256",
          "name": "needed",
          "type": "uint256"
        }
      ],
      "name": "ERC20InsufficientBalance",
      "type": "error"
    },
    {
      "inputs": [
        {
          "internalType": "address",
          "name": "approver",
          "type": "address"
        }
      ],
      "name": "ERC20InvalidApprover",
      "type": "error"
    },
    {
      "inputs": [
        {
          "internalType": "address",
          "name": "receiver",
          "type": "address"
        }
      ],
      "name": "ERC20InvalidReceiver",
      "type": "error"
    },
    {
      "inputs": [
        {
          "internalType": "address",
          "name": "sender",
          "type": "address"
        }
      ],
      "name": "ERC20InvalidSender",
      "type": "error"
    },
    {
      "inputs": [
        {
          "internalType": "address",
          "name": "spender",
          "type": "address"
        }
      ],
      "name": "ERC20InvalidSpender",
      "type": "error"
    },
    {
      "anonymous": false,
      "inputs": [
        {
          "indexed": true,
          "internalType": "address",
          "name": "owner",
          "type": "address"
        },
        {
          "indexed": true,
          "internalType": "address",
          "name": "spender",
          "type": "address"
        },
        {
          "indexed": false,
          "internalType": "uint256",
          "name": "value",
          "type": "uint256"
        }
      ],
      "name": "Approval",
      "type": "event"
    },
    {
      "anonymous": false,
      "inputs": [
        {
          "indexed": true,
          "internalType": "address",
          "name": "from",
          "type": "address"
        },
        {
          "indexed": true,
          "internalType": "address",
          "name": "to",
          "type": "address"
        },
        {
          "indexed": false,
          "internalType": "uint256",
          "name": "value",
          "type": "uint256"
        }
      ],
      "name": "Transfer",
      "type": "event"
    },
    {
      "inputs": [
        {
          "internalType": "address",
          "name": "owner",
          "type": "address"
        },
        {
          "internalType": "address",
          "name": "spender",
          "type": "address"
        }
      ],
      "name": "allowance",
      "outputs": [
        {
          "internalType": "uint256",
          "name": "",
          "type": "uint256"
        }
      ],
      "stateMutability": "view",
      "type": "function"
    },
    {
      "inputs": [
        {
          "internalType": "address",
          "name": "spender",
          "type": "address"
        },
        {
          "internalType": "uint256",
          "name": "value",
          "type": "uint256"
        }
      ],
      "name": "approve",
      "outputs": [
        {
          "internalType": "bool",
          "name": "",
          "type": "bool"
        }
      ],
      "stateMutability": "nonpayable",
      "type": "function"
    },
    {
      "inputs": [
        {
          "internalType": "address",
          "name": "account",
          "type": "address"
        }
      ],
      "name": "balanceOf",
      "outputs": [
        {
          "internalType": "uint256",
          "name": "",
          "type": "uint256"
        }
      ],
      "stateMutability": "view",
      "type": "function"
    },
    {
      "inputs": [],
      "name": "decimals",
      "outputs": [
        {
          "internalType": "uint8",
          "name": "",
          "type": "uint8"
        }
      ],
      "stateMutability": "view",
      "type": "function"
    },
    {
      "inputs": [
        {
          "internalType": "uint256",
          "name": "amount",
          "type": "uint256"
        }
      ],
      "name": "faucet",
      "outputs": [],
      "stateMutability": "nonpayable",
      "type": "function"
    },
    {
      "inputs": [],
      "name": "name",
      "outputs": [
        {
          "internalType": "string",
          "name": "",
          "type": "string"
        }
      ],
      "stateMutability": "view",
      "type": "function"
    },
    {
      "inputs": [],
      "name": "symbol",
      "outputs": [
        {
          "internalType": "string",
          "name": "",
          "type": "string"
        }
      ],
      "stateMutability": "view",
      "type": "function"
    },
    {
      "inputs": [],
      "name": "totalSupply",
      "outputs": [
        {
          "internalType": "uint256",
          "name": "",
          "type": "uint256"
        }
      ],
      "stateMutability": "view",
      "type": "function"
    },
    {
      "inputs": [
        {
          "internalType": "address",
          "name": "to",
          "type": "address"
        },
        {
          "internalType": "uint256",
          "name": "value",
          "type": "uint256"
        }
      ],
      "name": "transfer",
      "outputs": [
        {
          "internalType": "bool",
          "name": "",
          "type": "bool"
        }
      ],
      "stateMutability": "nonpayable",
      "type": "function"
    },
    {
      "inputs": [
        {
          "internalType": "address",
          "name": "from",
          "type": "address"
        },
        {
          "internalType": "address",
          "name": "to",
          "type": "address"
        },
        {
          "internalType": "uint256",
          "name": "value",
          "type": "uint256"
        }
      ],
      "name": "transferFrom",
      "outputs": [
        {
          "internalType": "bool",
          "name": "",
          "type": "bool"
        }
      ],
      "stateMutability": "nonpayable",
      "type": "function"
    }
  ],
  "bytecode": "0x608060405234801561001057600080fd5b506040518060400160405280600d81526020016c26bc902a32b9ba102a37b5b2b760991b815250604051806040016040528060038152602001624d544b60e81b81525081600390816100629190610299565b50600461006f8282610299565b50505061008c3369d3c21bcecceda100000061009160201b60201c565b61037e565b6001600160a01b0382166100c05760405163ec442f0560e01b8152600060048201526024015b60405180910390fd5b6100cc600083836100d0565b5050565b6001600160a01b0383166100fb5780600260008282546100f09190610357565b9091555061016d9050565b6001600160a01b0383166000908152602081905260409020548181101561014e5760405163391434e360e21b81526001600160a01b038516600482015260248101829052604481018390526064016100b7565b6001600160a01b03841660009081526020819052604090209082900390555b6001600160a01b038216610189576002805482900390556101a8565b6001600160a01b03821660009081526020819052604090208054820190555b816001600160a01b0316836001600160a01b03167fddf252ad1be2c89b69c2b068fc378daa952ba7f163c4a11628f55a4df523b3ef836040516101ed91815260200190565b60405180910390a3505050565b634e487b7160e01b600052604160045260246000fd5b600181811c9082168061022457607f821691505b60208210810361024457634e487b7160e01b600052602260045260246000fd5b50919050565b601f82111561029457806000526020600020601f840160051c810160208510156102715750805b601f840160051c820191505b81811015610291576000815560010161027d565b50505b505050565b81516001600160401b038111156102b2576102b26101fa565b6102c6816102c08454610210565b8461024a565b6020601f8211600181146102fa57600083156102e25750848201515b600019600385901b1c1916600184901b178455610291565b600084815260208120601f198516915b8281101561032a578785015182556020948501946001909201910161030a565b50848210156103485786840151600019600387901b60f8161c191681555b50505050600190811b01905550565b8082018082111561037857634e487b7160e01b600052601160045260246000fd5b92915050565b6108df8061038d6000396000f3fe608060405234801561001057600080fd5b50600436106100be5760003560e01c8063579158971161007657806395d89b411161005b57806395d89b4114610176578063a9059cbb1461017e578063dd62ed3e1461019157600080fd5b8063579158971461013857806370a082311461014d57600080fd5b806318160ddd116100a757806318160ddd1461010457806323b872dd14610116578063313ce5671461012957600080fd5b806306fdde03146100c3578063095ea7b3146100e1575b600080fd5b6100cb6101ca565b6040516100d891906106bf565b60405180910390f35b6100f46100ef366004610747565b61025c565b60405190151581526020016100d8565b6002545b6040519081526020016100d8565b6100f4610124366004610771565b610276565b604051601281526020016100d8565b61014b6101463660046107ae565b61029a565b005b61010861015b3660046107c7565b6001600160a01b031660009081526020819052604090205490565b6100cb6102a7565b6100f461018c366004610747565b6102b6565b61010861019f3660046107e9565b6001600160a01b03918216600090815260016020908152604080832093909416825291909152205490565b6060600380546101d99061081c565b80601f01602080910402602001604051908101604052809291908181526020018280546102059061081c565b80156102525780601f1061022757610100808354040283529160200191610252565b820191906000526020600020905b81548152906001019060200180831161023557829003601f168201915b5050505050905090565b60003361026a8185856102c4565b60019150505b92915050565b6000336102848582856102d6565b61028f858585610391565b506001949350505050565b6102a43382610422565b50565b6060600480546101d99061081c565b60003361026a818585610391565b6102d18383836001610475565b505050565b6001600160a01b038381166000908152600160209081526040808320938616835292905220547fffffffffffffffffffffffffffffffffffffffffffffffffffffffffffffffff81101561038b578181101561037c576040517ffb8f41b20000000000000000000000000000000000000000000000000000000081526001600160a01b038416600482015260248101829052604481018390526064015b60405180910390fd5b61038b84848484036000610475565b50505050565b6001600160a01b0383166103d4576040517f96c6fd1e00000000000000000000000000000000000000000000000000000000815260006004820152602401610373565b6001600160a01b038216610417576040517fec442f0500000000000000000000000000000000000000000000000000000000815260006004820152602401610373565b6102d183838361057c565b6001600160a01b038216610465576040517fec442f0500000000000000000000000000000000000000000000000000000000815260006004820152602401610373565b6104716000838361057c565b5050565b6001600160a01b0384166104b8576040517fe602df0500000000000000000000000000000000000000000000000000000000815260006004820152602401610373565b6001600160a01b0383166104fb576040517f94280d6200000000000000000000000000000000000000000000000000000000815260006004820152602401610373565b6001600160a01b038085166000908152600160209081526040808320938716835292905220829055801561038b57826001600160a01b0316846001600160a01b03167f8c5be1e5ebec7d5bd14f71427d1e84f3dd0314c0f7b2291e5b200ac8c7c3b9258460405161056e91815260200190565b60405180910390a350505050565b6001600160a01b0383166105a757806002600082825461059c919061086f565b909155506106329050565b6001600160a01b03831660009081526020819052604090205481811015610613576040517fe450d38c0000000000000000000000000000000000000000000000000000000081526001600160a01b03851660048201526024810182905260448101839052606401610373565b6001600160a01b03841660009081526020819052604090209082900390555b6001600160a01b03821661064e5760028054829003905561066d565b6001600160a01b03821660009081526020819052604090208054820190555b816001600160a01b0316836001600160a01b03167fddf252ad1be2c89b69c2b068fc378daa952ba7f163c4a11628f55a4df523b3ef836040516106b291815260200190565b60405180910390a3505050565b602081526000825180602084015260005b818110156106ed57602081860181015160408684010152016106d0565b5060006040828501015260407fffffffffffffffffffffffffffffffffffffffffffffffffffffffffffffffe0601f83011684010191505092915050565b80356001600160a01b038116811461074257600080fd5b919050565b6000806040838503121561075a57600080fd5b6107638361072b565b946020939093013593505050565b60008060006060848603121561078657600080fd5b61078f8461072b565b925061079d6020850161072b565b929592945050506040919091013590565b6000602082840312156107c057600080fd5b5035919050565b6000602082840312156107d957600080fd5b6107e28261072b565b9392505050565b600080604083850312156107fc57600080fd5b6108058361072b565b91506108136020840161072b565b90509250929050565b600181811c9082168061083057607f821691505b602082108103610869577f4e487b7100000000000000000000000000000000000000000000000000000000600052602260045260246000fd5b50919050565b80820180821115610270577f4e487b7100000000000000000000000000000000000000000000000000000000600052601160045260246000fdfea2646970667358221220aef28b9b34c7c8d46a452f49fd30f4372d5aab47278f7628049eed629ee0fa1a64736f6c634300081c0033",
  "linkReferences": {},
  "deployedLinkReferences": {}
}