{
  "_format": "hh-sol-artifact-1",
  "contractName": "Token",
  "sourceName": "contracts/Token.sol",
  "abi": [
    {
      "inputs": [],
      "stateMutability": "nonpayable",
      "type": "constructor"
    },
    {
      "inputs": [
        {
          "internalType": "address",
          "name": "spender",
          "type": "address"
        },
        {
          "internalType": "uint256",
          "name": "allowance",
          "type": "uint256"
        },
        {
          "internalType": "uint256",
          "name": "needed",
          "type": "uint256"
        }
      ],
      "name": "ERC20InsufficientAllowance",
      "type": "error"
    },
    {
      "inputs": [
        {
          "internalType": "address",
          "name": "sender",
          "type": "address"
        },
        {
          "internalType": "uint256",
          "name": "balance",
          "type": "uint256"
        },
        {
          "internalType": "uint256",
          "name": "needed",
          "type": "uint256"
        }
      ],
      "name": "ERC20InsufficientBalance",
      "type": "error"
    },
    {
      "inputs": [
        {
          "internalType": "address",
          "name": "approver",
          "type": "address"
        }
      ],
      "name": "ERC20InvalidApprover",
      "type": "error"
    },
    {
      "inputs": [
        {
          "internalType": "address",
          "name": "receiver",
          "type": "address"
        }
      ],
      "name": "ERC20InvalidReceiver",
      "type": "error"
    },
    {
      "inputs": [
        {
          "internalType": "address",
          "name": "sender",
          "type": "address"
        }
      ],
      "name": "ERC20InvalidSender",
      "type": "error"
    },
    {
      "inputs": [
        {
          "internalType": "address",
          "name": "spender",
          "type": "address"
        }
      ],
      "name": "ERC20InvalidSpender",
      "type": "error"
    },
    {
      "inputs": [
        {
          "internalType": "address",
          "name": "owner",
          "type": "address"
        }
      ],
      "name": "OwnableInvalidOwner",
      "type": "error"
    },
    {
      "inputs": [
        {
          "internalType": "address",
          "name": "account",
          "type": "address"
        }
      ],
      "name": "OwnableUnauthorizedAccount",
      "type": "error"
    },
    {
      "anonymous": false,
      "inputs": [
        {
          "indexed": true,
          "internalType": "address",
          "name": "owner",
          "type": "address"
        },
        {
          "indexed": true,
          "internalType": "address",
          "name": "spender",
          "type": "address"
        },
        {
          "indexed": false,
          "internalType": "uint256",
          "name": "value",
          "type": "uint256"
        }
      ],
      "name": "Approval",
      "type": "event"
    },
    {
      "anonymous": false,
      "inputs": [
        {
          "indexed": true,
          "internalType": "address",
          "name": "previousOwner",
          "type": "address"
        },
        {
          "indexed": true,
          "internalType": "address",
          "name": "newOwner",
          "type": "address"
        }
      ],
      "name": "OwnershipTransferred",
      "type": "event"
    },
    {
      "anonymous": false,
      "inputs": [
        {
          "indexed": true,
          "internalType": "address",
          "name": "buyer",
          "type": "address"
        },
        {
          "indexed": false,
          "internalType": "uint256",
          "name": "ethSpent",
          "type": "uint256"
        },
        {
          "indexed": false,
          "internalType": "uint256",
          "name": "tokensReceived",
          "type": "uint256"
        }
      ],
      "name": "TokensPurchased",
      "type": "event"
    },
    {
      "anonymous": false,
      "inputs": [
        {
          "indexed": true,
          "internalType": "address",
          "name": "from",
          "type": "address"
        },
        {
          "indexed": true,
          "internalType": "address",
          "name": "to",
          "type": "address"
        },
        {
          "indexed": false,
          "internalType": "uint256",
          "name": "value",
          "type": "uint256"
        }
      ],
      "name": "Transfer",
      "type": "event"
    },
    {
      "inputs": [
        {
          "internalType": "address",
          "name": "owner",
          "type": "address"
        },
        {
          "internalType": "address",
          "name": "spender",
          "type": "address"
        }
      ],
      "name": "allowance",
      "outputs": [
        {
          "internalType": "uint256",
          "name": "",
          "type": "uint256"
        }
      ],
      "stateMutability": "view",
      "type": "function"
    },
    {
      "inputs": [
        {
          "internalType": "address",
          "name": "spender",
          "type": "address"
        },
        {
          "internalType": "uint256",
          "name": "value",
          "type": "uint256"
        }
      ],
      "name": "approve",
      "outputs": [
        {
          "internalType": "bool",
          "name": "",
          "type": "bool"
        }
      ],
      "stateMutability": "nonpayable",
      "type": "function"
    },
    {
      "inputs": [
        {
          "internalType": "address",
          "name": "account",
          "type": "address"
        }
      ],
      "name": "balanceOf",
      "outputs": [
        {
          "internalType": "uint256",
          "name": "",
          "type": "uint256"
        }
      ],
      "stateMutability": "view",
      "type": "function"
    },
    {
      "inputs": [],
      "name": "buyTokens",
      "outputs": [],
      "stateMutability": "payable",
      "type": "function"
    },
    {
      "inputs": [],
      "name": "currentPrice",
      "outputs": [
        {
          "internalType": "uint256",
          "name": "",
          "type": "uint256"
        }
      ],
      "stateMutability": "view",
      "type": "function"
    },
    {
      "inputs": [],
      "name": "decimals",
      "outputs": [
        {
          "internalType": "uint8",
          "name": "",
          "type": "uint8"
        }
      ],
      "stateMutability": "view",
      "type": "function"
    },
    {
      "inputs": [
        {
          "internalType": "address",
          "name": "user",
          "type": "address"
        }
      ],
      "name": "getFrontEndInfo",
      "outputs": [
        {
          "internalType": "uint256",
          "name": "userTokens",
          "type": "uint256"
        },
        {
          "internalType": "uint256",
          "name": "price",
          "type": "uint256"
        },
        {
          "internalType": "uint256",
          "name": "totalSupplyTokens",
          "type": "uint256"
        },
        {
          "internalType": "uint256",
          "name": "reserveETH",
          "type": "uint256"
        }
      ],
      "stateMutability": "view",
      "type": "function"
    },
    {
      "inputs": [
        {
          "internalType": "address",
          "name": "strategy",
          "type": "address"
        },
        {
          "internalType": "uint256",
          "name": "amount",
          "type": "uint256"
        }
      ],
      "name": "mintForStrategy",
      "outputs": [],
      "stateMutability": "nonpayable",
      "type": "function"
    },
    {
      "inputs": [],
      "name": "name",
      "outputs": [
        {
          "internalType": "string",
          "name": "",
          "type": "string"
        }
      ],
      "stateMutability": "view",
      "type": "function"
    },
    {
      "inputs": [],
      "name": "owner",
      "outputs": [
        {
          "internalType": "address",
          "name": "",
          "type": "address"
        }
      ],
      "stateMutability": "view",
      "type": "function"
    },
    {
      "inputs": [
        {
          "internalType": "uint256",
          "name": "ethAmount",
          "type": "uint256"
        }
      ],
      "name": "previewBuy",
      "outputs": [
        {
          "internalType": "uint256",
          "name": "",
          "type": "uint256"
        }
      ],
      "stateMutability": "pure",
      "type": "function"
    },
    {
      "inputs": [],
      "name": "renounceOwnership",
      "outputs": [],
      "stateMutability": "nonpayable",
      "type": "function"
    },
    {
      "inputs": [],
      "name": "reserveBalance",
      "outputs": [
        {
          "internalType": "uint256",
          "name": "",
          "type": "uint256"
        }
      ],
      "stateMutability": "view",
      "type": "function"
    },
    {
      "inputs": [
        {
          "internalType": "uint256",
          "name": "tokenAmount",
          "type": "uint256"
        }
      ],
      "name": "sellTokens",
      "outputs": [],
      "stateMutability": "nonpayable",
      "type": "function"
    },
    {
      "inputs": [],
      "name": "symbol",
      "outputs": [
        {
          "internalType": "string",
          "name": "",
          "type": "string"
        }
      ],
      "stateMutability": "view",
      "type": "function"
    },
    {
      "inputs": [],
      "name": "totalSupply",
      "outputs": [
        {
          "internalType": "uint256",
          "name": "",
          "type": "uint256"
        }
      ],
      "stateMutability": "view",
      "type": "function"
    },
    {
      "inputs": [
        {
          "internalType": "address",
          "name": "to",
          "type": "address"
        },
        {
          "internalType": "uint256",
          "name": "value",
          "type": "uint256"
        }
      ],
      "name": "transfer",
      "outputs": [
        {
          "internalType": "bool",
          "name": "",
          "type": "bool"
        }
      ],
      "stateMutability": "nonpayable",
      "type": "function"
    },
    {
      "inputs": [
        {
          "internalType": "address",
          "name": "from",
          "type": "address"
        },
        {
          "internalType": "address",
          "name": "to",
          "type": "address"
        },
        {
          "internalType": "uint256",
          "name": "value",
          "type": "uint256"
        }
      ],
      "name": "transferFrom",
      "outputs": [
        {
          "internalType": "bool",
          "name": "",
          "type": "bool"
        }
      ],
      "stateMutability": "nonpayable",
      "type": "function"
    },
    {
      "inputs": [
        {
          "internalType": "address",
          "name": "newOwner",
          "type": "address"
        }
      ],
      "name": "transferOwnership",
      "outputs": [],
      "stateMutability": "nonpayable",
      "type": "function"
    },
    {
      "inputs": [],
      "name": "withdraw",
      "outputs": [],
      "stateMutability": "nonpayable",
      "type": "function"
    },
    {
      "stateMutability": "payable",
      "type": "receive"
    }
  ],
  "bytecode": "0x6080604052670de0b6b3a764000060065534801561001c57600080fd5b5033604051806040016040528060058152602001642a37b5b2b760d91b815250604051806040016040528060038152602001622a25a760e91b815250816003908161006791906101a5565b50600461007482826101a5565b5050506001600160a01b0381166100a557604051631e4fbdf760e01b81526000600482015260240160405180910390fd5b6100ae816100b4565b50610263565b600580546001600160a01b038381166001600160a01b0319831681179093556040519116919082907f8be0079c531659141344cd1fd0a4f28419497f9722a3daafe3b4186f6b6457e090600090a35050565b634e487b7160e01b600052604160045260246000fd5b600181811c9082168061013057607f821691505b60208210810361015057634e487b7160e01b600052602260045260246000fd5b50919050565b601f8211156101a057806000526020600020601f840160051c8101602085101561017d5750805b601f840160051c820191505b8181101561019d5760008155600101610189565b50505b505050565b81516001600160401b038111156101be576101be610106565b6101d2816101cc845461011c565b84610156565b6020601f82116001811461020657600083156101ee5750848201515b600019600385901b1c1916600184901b17845561019d565b600084815260208120601f198516915b828110156102365787850151825560209485019460019092019101610216565b50848210156102545786840151600019600387901b60f8161c191681555b50505050600190811b01905550565b610fa7806102726000396000f3fe6080604052600436106101635760003560e01c8063715018a6116100c0578063a9059cbb11610074578063dd62ed3e11610059578063dd62ed3e14610396578063e98d8529146103dc578063f2fde38b146103fc57600080fd5b8063a9059cbb1461036e578063d0febe4c1461038e57600080fd5b806395d89b41116100a557806395d89b411461032d5780639d1b464a14610342578063a10954fe1461035857600080fd5b8063715018a6146102f05780638da5cb5b1461030557600080fd5b80633ccfd60b116101175780635adc447e116100fc5780635adc447e1461025a5780636c11bcd31461029a57806370a08231146102ba57600080fd5b80633ccfd60b14610225578063481532791461023c57600080fd5b806318160ddd1161014857806318160ddd146101ca57806323b872dd146101e9578063313ce5671461020957600080fd5b806306fdde031461016f578063095ea7b31461019a57600080fd5b3661016a57005b600080fd5b34801561017b57600080fd5b5061018461041c565b6040516101919190610d6c565b60405180910390f35b3480156101a657600080fd5b506101ba6101b5366004610df4565b6104ae565b6040519015158152602001610191565b3480156101d657600080fd5b506002545b604051908152602001610191565b3480156101f557600080fd5b506101ba610204366004610e1e565b6104c8565b34801561021557600080fd5b5060405160128152602001610191565b34801561023157600080fd5b5061023a6104ec565b005b34801561024857600080fd5b506101db610257366004610e5b565b90565b34801561026657600080fd5b5061027a610275366004610e74565b610530565b604080519485526020850193909352918301526060820152608001610191565b3480156102a657600080fd5b5061023a6102b5366004610e5b565b610573565b3480156102c657600080fd5b506101db6102d5366004610e74565b6001600160a01b031660009081526020819052604090205490565b3480156102fc57600080fd5b5061023a610734565b34801561031157600080fd5b506005546040516001600160a01b039091168152602001610191565b34801561033957600080fd5b50610184610748565b34801561034e57600080fd5b506101db60065481565b34801561036457600080fd5b506101db60075481565b34801561037a57600080fd5b506101ba610389366004610df4565b610757565b61023a610765565b3480156103a257600080fd5b506101db6103b1366004610e96565b6001600160a01b03918216600090815260016020908152604080832093909416825291909152205490565b3480156103e857600080fd5b5061023a6103f7366004610df4565b610815565b34801561040857600080fd5b5061023a610417366004610e74565b610827565b60606003805461042b90610ec9565b80601f016020809104026020016040519081016040528092919081815260200182805461045790610ec9565b80156104a45780601f10610479576101008083540402835291602001916104a4565b820191906000526020600020905b81548152906001019060200180831161048757829003601f168201915b5050505050905090565b6000336104bc81858561087b565b60019150505b92915050565b6000336104d685828561088d565b6104e1858585610943565b506001949350505050565b6104f46109d4565b6005546040516001600160a01b03909116904780156108fc02916000818181858888f1935050505015801561052d573d6000803e3d6000fd5b50565b600080600080610555856001600160a01b031660009081526020819052604090205490565b9350600654925061056560025490565b915060075490509193509193565b600081116105c85760405162461bcd60e51b815260206004820152601460248201527f5370656369667920746f6b656e20616d6f756e7400000000000000000000000060448201526064015b60405180910390fd5b336000908152602081905260409020548111156106275760405162461bcd60e51b815260206004820152601360248201527f496e73756666696369656e7420746f6b656e730000000000000000000000000060448201526064016105bf565b804710156106775760405162461bcd60e51b815260206004820152601b60248201527f436f6e747261637420686173206e6f7420656e6f75676820455448000000000060448201526064016105bf565b6106813382610a1a565b80600760008282546106939190610f4b565b9091555050604051600090339083908381818185875af1925050503d80600081146106da576040519150601f19603f3d011682016040523d82523d6000602084013e6106df565b606091505b50509050806107305760405162461bcd60e51b815260206004820152601360248201527f455448207472616e73666572206661696c65640000000000000000000000000060448201526064016105bf565b5050565b61073c6109d4565b6107466000610a69565b565b60606004805461042b90610ec9565b6000336104bc818585610943565b600034116107b55760405162461bcd60e51b815260206004820152600860248201527f53656e642045544800000000000000000000000000000000000000000000000060448201526064016105bf565b346107c03382610ad3565b34600760008282546107d29190610f5e565b9091555050604080513481526020810183905233917f8fafebcaf9d154343dad25669bfa277f4fbacd7ac6b0c4fed522580e040a0f33910160405180910390a250565b61081d6109d4565b6107308282610ad3565b61082f6109d4565b6001600160a01b038116610872576040517f1e4fbdf7000000000000000000000000000000000000000000000000000000008152600060048201526024016105bf565b61052d81610a69565b6108888383836001610b22565b505050565b6001600160a01b038381166000908152600160209081526040808320938616835292905220547fffffffffffffffffffffffffffffffffffffffffffffffffffffffffffffffff81101561093d578181101561092e576040517ffb8f41b20000000000000000000000000000000000000000000000000000000081526001600160a01b038416600482015260248101829052604481018390526064016105bf565b61093d84848484036000610b22565b50505050565b6001600160a01b038316610986576040517f96c6fd1e000000000000000000000000000000000000000000000000000000008152600060048201526024016105bf565b6001600160a01b0382166109c9576040517fec442f05000000000000000000000000000000000000000000000000000000008152600060048201526024016105bf565b610888838383610c29565b6005546001600160a01b03163314610746576040517f118cdaa70000000000000000000000000000000000000000000000000000000081523360048201526024016105bf565b6001600160a01b038216610a5d576040517f96c6fd1e000000000000000000000000000000000000000000000000000000008152600060048201526024016105bf565b61073082600083610c29565b600580546001600160a01b038381167fffffffffffffffffffffffff0000000000000000000000000000000000000000831681179093556040519116919082907f8be0079c531659141344cd1fd0a4f28419497f9722a3daafe3b4186f6b6457e090600090a35050565b6001600160a01b038216610b16576040517fec442f05000000000000000000000000000000000000000000000000000000008152600060048201526024016105bf565b61073060008383610c29565b6001600160a01b038416610b65576040517fe602df05000000000000000000000000000000000000000000000000000000008152600060048201526024016105bf565b6001600160a01b038316610ba8576040517f94280d62000000000000000000000000000000000000000000000000000000008152600060048201526024016105bf565b6001600160a01b038085166000908152600160209081526040808320938716835292905220829055801561093d57826001600160a01b0316846001600160a01b03167f8c5be1e5ebec7d5bd14f71427d1e84f3dd0314c0f7b2291e5b200ac8c7c3b92584604051610c1b91815260200190565b60405180910390a350505050565b6001600160a01b038316610c54578060026000828254610c499190610f5e565b90915550610cdf9050565b6001600160a01b03831660009081526020819052604090205481811015610cc0576040517fe450d38c0000000000000000000000000000000000000000000000000000000081526001600160a01b038516600482015260248101829052604481018390526064016105bf565b6001600160a01b03841660009081526020819052604090209082900390555b6001600160a01b038216610cfb57600280548290039055610d1a565b6001600160a01b03821660009081526020819052604090208054820190555b816001600160a01b0316836001600160a01b03167fddf252ad1be2c89b69c2b068fc378daa952ba7f163c4a11628f55a4df523b3ef83604051610d5f91815260200190565b60405180910390a3505050565b602081526000825180602084015260005b81811015610d9a5760208186018101516040868401015201610d7d565b5060006040828501015260407fffffffffffffffffffffffffffffffffffffffffffffffffffffffffffffffe0601f83011684010191505092915050565b80356001600160a01b0381168114610def57600080fd5b919050565b60008060408385031215610e0757600080fd5b610e1083610dd8565b946020939093013593505050565b600080600060608486031215610e3357600080fd5b610e3c84610dd8565b9250610e4a60208501610dd8565b929592945050506040919091013590565b600060208284031215610e6d57600080fd5b5035919050565b600060208284031215610e8657600080fd5b610e8f82610dd8565b9392505050565b60008060408385031215610ea957600080fd5b610eb283610dd8565b9150610ec060208401610dd8565b90509250929050565b600181811c90821680610edd57607f821691505b602082108103610f16577f4e487b7100000000000000000000000000000000000000000000000000000000600052602260045260246000fd5b50919050565b7f4e487b7100000000000000000000000000000000000000000000000000000000600052601160045260246000fd5b818103818111156104c2576104c2610f1c565b808201808211156104c2576104c2610f1c56fea2646970667358221220c6bcbe7448c18a23431ab32c225d74db989e47ba57f9e57defd6b9d5129bcc0564736f6c634300081c0033",
  "linkReferences": {},
  "deployedLinkReferences": {}
}